:100000000C94500C0C94810C0C94810C0C94810C6D
:100010000C94810C0C94810C0C94810C0C94810C2C
:100020000C94810C0C94810C0C94810C0C94ED3686
:100030000C94810C0C94810C0C94810C0C94810C0C
:100040000C94810C0C94810C0C94810C0C94810CFC
:100050000C94810C0C94810C0C94810C0C947836CB
:100060000C94810C0C9442360C9418360C94810C30
:100070000C94810C0C94810C0C94810C0C94810CCC
:100080000C94810C0C94810C0C94810C0C94C23651
:100090000C94810C0C94810C0C94810C0C94810CAC
:1000A0000C94810C0C94810C0C94810C0C94810C9C
:1000B0000C94810C0C94810C0C94810C0C94810C8C
:1000C0000C94810C0C94810C0C94810C0C94810C7C
:1000D0000C94810C0C94810C0C94810C0C94810C6C
:1000E0000C94810C07634236B79BD8A71A3968561F
:1000F00018AEBAAB558C1D3CB7CC5763BD6DEDFD4A
:10010000753EF6177231BF000000803F0800000006
:10011000BE922449123EABAAAA2ABECDCCCC4C3EFC
:1001200000000080BEABAAAAAA3E00000000BF00EB
:100130000000803F0000000000084178D3BB4387E7
:10014000D1133D190E3CC3BD4282AD2B3E68EC82FB
:1001500076BED98FE1A93E4C80EFFFBE01C4FF7F80
:100160003F0000000000FFE0FFD1AFFF32FFD0FFF3
:10017000FEFFE0FFD1AEFFD0FFFEFFE0FFD1100297
:10018000FFFEFFD0FFE0FFC1FFD1AED580A83FD377
:1001900000408D142002A1C8DA1281CFD9F1DB40D2
:1001A0002EA4A6AFFFD0FFFE0000200023002600F3
:1001B00029002C002F00320000010000030106017D
:1001C000090100000A0B02090C0D0E0807030401C7
:1001D000000000000000000000000000000000001F
:1001E00000000000000000000000000000001211EC
:1001F00010000000000000000000000000000000EF
:1002000000000000000000000D0A003B412C0030FF
:10021000002D003B4D2C003B442C003B472C003B69
:100220004E2C003B532C00552C00510000002200A6
:10023000250028002B002E003100340002010000B0
:10024000050108010B0100002100240027002A00FD
:100250002D003000330001010000040107010A01F4
:1002600001021020200808102040102040800201C8
:1002700002010804020101020408102040808040AD
:1002800020100804020180040201804020100804AC
:10029000020108040201010204081020408001024A
:1002A0000408102040800505050507050808080812
:1002B000020202020A0A08080404040401010101FE
:1002C00001010101030303030303030304070707F9
:1002D0000C0C0C0C0C0C0C0C02020202060606069E
:1002E000060606060B0B0B0B0B0B0B0B001010007E
:1002F000FE0A06A7089500FFFE0EFE0BFE1010205A
:100300001000FEAAAA00018000000180004A51EA04
:10031000505A51C99E0001800000018000000180F8
:100320000055551010201000FEAAAA000180000000
:100330000180003993C252325F8A5271938000006B
:100340000180000001800055551010201000FEAA09
:10035000AA00018000000180003BA5C12431198959
:100360002471258000000180000001800055551097
:1003700010201000FEAAAA00018000000180007B6E
:10038000A5C1247919C124792580000001800000CD
:1003900001800055551010201000FEAAAA0001800F
:1003A000000001800079BFC2487A49C2487989803B
:1003B0000000018000000180005555101020100041
:1003C000FEAAAA00018000000180007A4DC2527B83
:1003D00053C2D67A4F800000018000000180005592
:1003E000551010201000FEAAAA0001800000018014
:1003F0000031A5CA287A31CA2849A58000000180A9
:10040000000001800055551010201000FEAAAA001F
:100410000180000001800073D1CA1073D1CA10732B
:10042000DF80000001800000018000555510102081
:100430001000FEAAAA00018000000180001E399170
:10044000401E3191081E7180000001800000018073
:100450000055551010201000FEAAAA0001800000CF
:1004600001800022F9A2203E21A22022218000004A
:100470000180000001800055551010201000FEAAD8
:10048000AA000180000001800020F9A08020F9A0CE
:10049000803E8180000001800000018000555510E1
:1004A00010201000FEAAAA00018000000180002296
:1004B000F9A2202221942008218000000180000060
:1004C00001800055551010201000FEAAAA000180DE
:1004D00000000180003EF9A0803EF9A080208180CC
:1004E0000000018000000180005555101020100010
:1004F000FEAAAA00018000000180001EF1A0882051
:10050000F1A0901E8980000001800000018000554C
:10051000551010201000FEAAAA00018000000180E2
:10052000001E71A0881C8982883C718000000180B7
:10053000000001800055551010201000FEAAAA00EE
:10054000018000000180001EF9A0201C2182203CB7
:10055000F980000001800000018000555510102036
:100560001000FEAAAA0001800000018000391DA52C
:1005700010251DA51039DD800000018000000180DC
:100580000055551010201000FEAAAA00018000009E
:100590000180007189CA184A09CA08719D8000004B
:1005A0000180000001800055551010201000FEAAA7
:1005B000AA00018000000180007199CA044A09CA9A
:1005C00010719D80000001800000018000555510D1
:1005D00010201000FEAAAA00018000000180007116
:1005E00099CA044A19CA0471998000000180000068
:1005F00001800055551010201000FEAAAA000180AD
:1006000000000180007185CA0C4A15CA1C718580E2
:1006100000000180000001800055551010201000DE
:10062000FEAAAA00018000000180004993EA546AF2
:1006300059DBD44A5380000001800000018000553E
:10064000551010201000FEAAAA00018000000180B1
:10065000003453C29A31178912711380000001804F
:10066000000001800055551010201000FEAAAA00BD
:10067000018000000180007BB9C1247939C124794F
:1006800039800000018000000180005555101020C5
:100690001000FEAAAA00018000000180003325C4DA
:1006A000B447ADC4A434A5800000018000000180DF
:1006B0000055551010201000FEAAAA00018000006D
:1006C0000180003E89A0D83EA9A0883E8980000014
:1006D0000180000001800055551010201000FEAA76
:1006E000AA00018000000180003A5DC252325D8A9A
:1006F00052719D800000018000000180005555105E
:1007000010201000FEAAAA000180000001800079DC
:10071000CFC2107991C0507B8F8000000180000013
:1007200001800055551010201000FEAAAA0001807B
:1007300000000180001E7190801E61901010E18009
:1007400000000180000001800055551010201000AD
:10075000FEAAAA00018000000180000E71908016A0
:100760006192100EE18000000180000001800055C0
:10077000551010201000FEAAAA0001800000018080
:10078000001C7192801C61941012E18000000180B5
:10079000000001800055551010201000FEAAAA008C
:1007A0000180000001800012719280126192100C91
:1007B000E18000000180000001800055550000002C
:1007C00008000E010A0A0804008080808080808072
:1007D00000808005040408020888888888060A0AC0
:1007E000080100242424FC4848FC909090070A0A41
:1007F000080100107C9290701C12927C10070A0A6B
:100800000801006294946810102C52528C070A0A56
:100810000801003844442830528A848C7201040450
:1008200008040880808080030C0C0803FF204040EF
:10083000808080808080404020030C0C0802FF8074
:10084000404020202020202040408007070708014A
:100850000110925438549210070707080101101034
:1008600010FE1010100204040803FEC04040800473
:100870000101080204F0020202080300C0C0060AD7
:100880000A08010004040810102020408080060A95
:100890000A08010030488484848484844830050A2E
:1008A0000A0802002060A0202020202020F8060A4C
:1008B0000A080100788484041820408080FC060A1D
:1008C0000A08010078848404380404848478060AC1
:1008D0000A080100081828488888FC080808060A41
:1008E0000A080100FC808080F80404048478060A69
:1008F0000A08010038408080F88484848478060ADD
:100900000A080100FC040408080810101010060A68
:100910000A08010078848484788484848478060AB0
:100920000A080100788484847C04040408700207A7
:1009300007080301C0C0000000C0C0020909080385
:10094000FFC0C0000000C040408005090908020047
:10095000081020408040201008060505080102FC10
:10096000000000FC05090908010080402010081063
:10097000204080060A0A08010078848404081010C8
:10098000001010060A0A080100384494ACA4A4A47C
:100990009C403C060A0A0801003048488484FC84D4
:1009A000848484060A0A080100F8848484F8848414
:1009B0008484F8060A0A0801007884848080808094
:1009C000848478060A0A080100F088848484848478
:1009D0008488F0060A0A080100FC808080F8808084
:1009E0008080FC060A0A080100FC808080F8808074
:1009F000808080060A0A08010078848480809C84B4
:100A0000848C74060A0A08010084848484FC84842B
:100A1000848484050A0A080200F82020202020206F
:100A20002020F8070A0A0801003E080808080808FC
:100A3000888870060A0A080100848890A0C0C0A0B7
:100A4000908884060A0A0801008080808080808067
:100A50008080FC060A0A0801008484CCCCB4B484EB
:100A6000848484060A0A08010084C4C4A4A494945B
:100A70008C8C84060A0A0801007884848484848427
:100A8000848478060A0A080100F8848484F8808047
:100A9000808080070B0B0801FF7884848484848421
:100AA000B4CC7806060A0A080100F8848484F89019
:100AB00088888484060A0A08010078848480601883
:100AC00004848478070A0A080100FE101010101030
:100AD00010101010060A0A0801008484848484849B
:100AE00084848478070A0A0801008282824444448C
:100AF00028281010060A0A08010084848484B4B4EB
:100B0000CCCC8484060A0A0801008484484830302A
:100B100048488484070A0A08010082824444281055
:100B200010101010060A0A080100FC040408102026
:100B3000408080FC030C0C0804FFE08080808080F3
:100B40008080808080E0060A0A08010080804020C2
:100B5000201010080404030C0C0801FFE0202020E2
:100B600020202020202020E006030308010930482F
:100B7000840701010801FFFE03030308020A804005
:100B8000200608080801007884047C84848C74069C
:100B90000B0B080100808080B8C484848484C4B8AE
:100BA0000608080801007884808080808478060B1D
:100BB0000B080100040404748C848484848C7406FF
:100BC0000808080100788484FC80808478050B0B79
:100BD00008010018202020F8202020202020060BCB
:100BE0000B0801FE04748888887040788484780635
:100BF0000B0B080100808080B8C4848484848484C2
:100C0000050B0B080200202000602020202020205F
:100C1000F8050D0D0801FE08080018080808080866
:100C200008089060060B0B0801008080808890A067
:100C3000C0A0908884050B0B0802006020202020B3
:100C40002020202020F8070808080100EC9292924A
:100C500092929292060808080100B8C484848484A1
:100C60008484060808080100788484848484847855
:100C7000060A0A0801FEB8C484848484C4B880804B
:100C8000060A0A0801FE748C848484848C7404042B
:100C9000060808080100B8C48480808080800608A7
:100CA000080801007884806018048478050A0A081E
:100CB0000100202020F82020202020180608080805
:100CC00001008484848484848C74060808080100EC
:100CD000848484484848303007080808010082921C
:100CE00092929292926C060808080100848448301F
:100CF00030488484060A0A0801FE84848484844C73
:100D000034040478060808080100FC040810204098
:100D100080FC030C0C0803FF608080404080804012
:100D200040808060010E0E0804FE808080808080FC
:100D30008080808080808080030C0C0802FFC020AF
:100D4000204040202040402020C007030308010825
:100D500062928C1010201000FEAAAA0001800000F0
:100D600001800073D1CA104BD1CA1073DF8000001C
:100D70000180000001800055551010201000FEAACF
:100D8000AA0001800000018000719DCA5273D3C285
:100D900052425D8000000180000001800055551026
:100DA00010201000FEAAAA00018000000180004966
:100DB0009DCA527A5DCA50499180000001800000AE
:100DC00001800055551010201000FEAAAA000180D5
:100DD00000000180007393CA52739FCA127213807D
:100DE0000000018000000180005555101020100007
:100DF000FEAAAA00018000000180004B93EA525B2A
:100E00009FCA524B93800000018000000180005572
:100E1000551010201000FEAAAA00018000000180D9
:100E20000074B9A6A425A5A4A474B980000001800B
:100E3000000001800055551010201000FEAAAA00E5
:100E4000018000000180004BD1EA105BD1CA104B39
:100E5000DF80000001800000018000555510102047
:100E60001000FEAAAA000180000001800039CDC256
:100E700012319F885273938000000180000001802E
:100E80000055551010201000FEAAAA000180000095
:100E900001800079CDC212799FC0527B93800000FF
:100EA0000180000001800055551010201000FEAA9E
:100EB000AA00018000000180004B9DC9207919C95A
:100EC0000449398000000180000001800055551060
:100ED00010201000FEAAAA00018000000180002559
:100EE000DDA4843C85A48424998000000180000056
:100EF00001800055551010201000FEAAAA000180A4
:100F0000000001800045CDC4904489A884109980D8
:100F100000000180000001800055551010201000D5
:100F2000FEAAAA0001800000018000721DCA127290
:100F300013C21243DD8000000180000001800055D3
:100F4000551010201000FEAAAA00018000000180A8
:100F5000007213CA127213C21243CD8000000180C6
:100F6000000001800055551010201000FEAAAA00B4
:100F7000018000000180000E2189200E218A2009B5
:100F800021800000018000000180005555101020D4
:100F90001000FEAAAA000180000001800039DDC215
:100FA00002318D8850739F80000001800000018015
:100FB0000055551010201000FEAAAA000180000064
:100FC00001800039DDC202318D8842739D800000AE
:100FD0000180000001800055551010201000FEAA6D
:100FE000AA000180000001800071CFCA104A0DCA1A
:100FF0000271DD8000000180000001800055551065
:1010000010201000FEAAAA000180000001800072DA
:1010100045CA4C7245C244418F80000001800000E7
:1010200001800055551010201000FEAAAA00018072
:101030000000018000725DCA42724DC250419F8023
:1010400000000180000001800055551010201000A4
:10105000FEAAAA00018000000180003B9DC1203152
:101060001989047139800000018000000180005559
:10107000551010201000FEAAAA0001800000018077
:101080000039D3C212421FC21239D380000001803E
:10109000000001800055551010201000FEAAAA0083
:1010A000018000000180002289B6882AA9A2D822E6
:1010B000898000000180000001800055551010203B
:1010C0001000FEAAAA00018000000180003B8DC232
:1010D00052339F8A12721380000001800000018049
:1010E0000055551010201000FEAAAA000180000033
:1010F0000180007B8DC2527B9FC2127A1380000058
:101100000180000001800055551010201000FEAA3B
:10111000AA0001800000018000398FC250324D8A40
:1011200042719D8000000180000001800055551033
:1011300010201000FEAAAA000180000001800033E8
:101140009BC42225A394A2639B8000000180000021
:1011500001800055551010201000FEAAAA00018041
:10116000000001800039DDC20832098A0871DD8083
:101170000000018000000180005555101020100073
:10118000FEAAAA000180000001800039DDC20841EA
:1011900089C0483B9D80000001800000018000550F
:1011A000551010201000FEAAAA0001800000018046
:1011B000000EF990200C2182201C2180000001806B
:1011C000000001800055551010201000FEAAAA0052
:1011D0000180000001800031CFCA104991C850330E
:1011E0008F80000001800000018000555510102004
:1011F0001000FEAAAA00018000000180001C899254
:10120000D81CA9908810898000000180000001800E
:101210000055551010201000FEAAAA000180000001
:10122000018000338FCA507B91CA104A0F800000A2
:1012300001800000018000555500000008000E01EB
:101240000A0A0804008080008080808080808007F7
:101250000A0A08010010107C929090927C101007EE
:101260000A0A0801001C202020F82020207CC20649
:1012700008080801018448784848784884070A0A21
:1012800008010082442810FE10FE101010010A0A06
:1012900008040080808080000080808080060A0A28
:1012A00008010078848078848478048478040202B9
:1012B00008020C9090080A0A0800003C4299A5A177
:1012C000A1A599423C0507070802057008788878AF
:1012D00000F80609090801002424484890484824D9
:1012E00024060404080100FC04040410102010006B
:1012F000FEAAAA000180003A63C25433C98A487228
:101300004980000001800003C18000000180005579
:1013100055080A0A0800003C42B9A5A5B9A9A5428A
:101320003C06010108010BFC03040408020A40A06A
:10133000A040070909080101101010FE101010004C
:10134000FE050707080205708808708080F8050709
:1013500007080205708808700888700303030803F3
:101360000A204080080A0A0800FE424242424242E5
:1013700066594080060C0C0801FF7CF4F4F4F47408
:1013800014141414141C020202080304C0C0030243
:10139000020802FE20C00307070802052060A02003
:1013A000202020050707080205708888887000F84B
:1013B0000609090801009090484824484890900682
:1013C0000A0A08010044C4485050242C549C840646
:1013D0000A0A08010044C4485050283444889C0636
:1013E0000A0A080100C4244830D0242C549C8406E6
:1013F0000A0A080100101000101060848484780626
:101400000E0E080100601800003048488484FC84F7
:10141000848484060E0E08010018600000304848DD
:101420008484FC84848484060E0E08010030480005
:10143000003048488484FC84848484060E0E0801AD
:1014400000649800003048488484FC8484848406C6
:101450000E0E080100484800003048488484FC848F
:10146000848484060E0E080100304830003048485D
:101470008484FC84848484070A0A0801003E509016
:1014800090FE909090909E060C0C0801FE7884844B
:10149000808080808484781060060E0E08010060D1
:1014A000180000FC808080F880808080FC060E0E92
:1014B00008010018600000FC808080F88080808037
:1014C000FC060E0E08010030480000FC808080F809
:1014D00080808080FC060E0E08010048480000FC59
:1014E000808080F880808080FC050E0E08020060FD
:1014F000180000F82020202020202020F8050E0EC3
:1015000008020030C00000F82020202020202020E9
:10151000F8050E0E08020060900000F82020202040
:1015200020202020F8050E0E08020090900000F800
:101530002020202020202020F8070A0A0800007818
:10154000444242F24242424478060E0E08010064D0
:1015500098000084C4C4A4A494948C8C84060E0EB9
:101560000801006018000078848484848484848462
:1015700078060E0E080100186000007884848484C8
:101580008484848478060E0E0801003048000078B8
:10159000848484848484848478060E0E0801006424
:1015A00098000078848484848484848478060E0E71
:1015B00008010048480000788484848484848484FA
:1015C000780605050801028448304884060C0C089A
:1015D00001FF0474888C9494A4A4C444B880060EBB
:1015E0000E0801006018000084848484848484844C
:1015F0008478060E0E08010018600000848484843C
:10160000848484848478060E0E080100304800002B
:1016100084848484848484848478060E0E08010083
:101620004848000084848484848484848478070EF9
:101630000E08010018600000828244442810101037
:101640001010060B0B0801008080F088848488F05D
:10165000808080060A0A08010070888890B088841B
:1016600084A498060C0C080100601800007884041B
:101670007C84848C74060C0C0801001860000078CF
:1016800084047C84848C74060C0C080100304800AF
:10169000007884047C84848C74060C0C080100643B
:1016A0009800007884047C84848C74060C0C0801F7
:1016B00000484800007884047C84848C74060D0DF6
:1016C00008010030483000007884047C84848C74E5
:1016D0000708080801007C92127E9090927C060A0E
:1016E0000A0801FE78848080808084781060060C6F
:1016F0000C08010060180000788484FC80808478E5
:10170000060C0C08010018600000788484FC8080BE
:101710008478060C0C08010030480000788484FCB2
:1017200080808478060C0C0801004848000078840A
:1017300084FC80808478050C0C080200C030000016
:1017400060202020202020F8050C0C08020030C06A
:10175000000060202020202020F8050C0C0802004A
:101760006090000060202020202020F8050C0C084C
:1017700002009090000060202020202020F8060C1D
:101780000C08010064182844047C848484848478D0
:10179000060C0C08010064980000B8C4848484849A
:1017A0008484060C0C08010060180000788484848E
:1017B00084848478060C0C0801001860000078848A
:1017C000848484848478060C0C080100304800006E
:1017D0007884848484848478060C0C0801006498DE
:1017E00000007884848484848478060C0C080100CA
:1017F0004848000078848484848484780607070835
:101800000101300000FC000030060A0A0801FF0454
:10181000788C9494A4A4C47880060C0C0801006011
:101820001800008484848484848C74060C0C080161
:1018300000186000008484848484848C74060C0CFA
:10184000080100304800008484848484848C7406F9
:101850000C0C080100484800008484848484848C33
:1018600074060E0E0801FE186000008484848484CF
:101870004C34040478050C0C0802FE8080F0888843
:101880008890A0C0808080060E0E0801FE484800A7
:101890000084848484844C34040478003A37C24041
:1018A00011241FBECFEFD1E2DEBFCDBF00E00CBFE1
:1018B00013E0A0E0B2E0EEEBF7E900E00BBF02C0FE
:1018C00007900D92A439B107D9F727E0A4E9B3E056
:1018D00001C01D92A13FB207E1F71CE0CFE4DCE0BC
:1018E00000E006C021970109802FFE010E948F466B
:1018F000CE34D10780E00807A9F70E940F390C9475
:10190000CE4B0C940000089580E008958CBD9DBDE1
:10191000089580913007909131078C5E924099F143
:101920008CEE92E0909331078093300780914307CB
:1019300081112AC0E1EFF2E0E491E0934407E8EF7F
:10194000F2E0E491E093450780914407082E000CF3
:10195000990B20914507821B910927FD93952091B2
:101960004607203441F0829FC001112426E096955D
:1019700087952A95E1F78093470784E89CE0909348
:101980004207809341070895813041F4EBEFF2E084
:10199000E491E0934407ECEFF2E0D3CFE9EFF2E01B
:1019A000E491E0934407EAEFF2E0CBCF20E3FC01BF
:1019B00020833296862F82958F706F706A3030F454
:1019C000605D6293682F8111F5CF0895695CF9CF4E
:1019D000FC01818D928D08950895AF92BF92CF92B0
:1019E000DF92EF92FF920F931F93CF93DF936C01DF
:1019F0007B018B01040F151FEB015E01AE18BF08C0
:101A0000C017D10759F06991D601ED91FC91019071
:101A1000F081E02DC6011995892B79F7C501DF9179
:101A2000CF911F910F91FF90EF90DF90CF90BF90DB
:101A3000AF900895FC01538D448D252F30E0842F05
:101A400090E0821B930B541710F0CF9608950197E6
:101A50000895FC01918D828D981761F0A28DAE0FD3
:101A6000BF2FB11D5D968C91928D9F5F9F73928F5A
:101A700090E008958FEF9FEF0895FC01918D828D86
:101A8000981731F0828DE80FF11D858D90E0089553
:101A90008FEF9FEF0895FC01918D228D892F90E0AB
:101AA000805C9F4F821B91098F739927089585E56C
:101AB00096E0F1DF21E0892B09F420E0822F0895E0
:101AC000FC01A48DA80FB92FB11DA35ABF4F2C91B3
:101AD000848D90E001968F739927848FA689B789AA
:101AE0002C93A089B1898C91837080648C93938DA1
:101AF000848D981306C00288F389E02D80818F7D44
:101B000080830895EF92FF920F931F93CF93DF93FB
:101B1000EC0181E0888F9B8D8C8D98131AC0E88929
:101B2000F989808185FF15C09FB7F894EE89FF89F8
:101B30006083E889F98980818370806480839FBF96
:101B400081E090E0DF91CF911F910F91FF90EF9096
:101B50000895F62E0B8D10E00F5F1F4F0F731127A6
:101B6000E02E8C8D8E110BC00FB607FCFACFE889E2
:101B7000F989808185FFF5CFCE01A2DFF2CFEB8D11
:101B8000EC0FFD2FF11DE35AFF4FF0829FB7F89441
:101B90000B8FEA89FB8980818062D0CF0F931F93DE
:101BA000CF93DF938C01D0E0C0E0F801EC0FFD1F74
:101BB0006491662339F085E596E0A4DF892B11F066
:101BC0002196F3CFCE01DF91CF911F910F91089510
:101BD000CF93DF93EC01888D8823B1F0AA89BB896C
:101BE000E889F9898C9185FD03C0808186FD0CC050
:101BF0000FB607FCF7CF8C9185FFF2CF808185FF70
:101C0000EDCFCE015DDFEACFDF91CF91089580E087
:101C100090E0892B21F04BDF81110E94000080E0D1
:101C200090E0892B49F080E090E0892B29F00E9418
:101C3000000081110E94000080E090E0892B49F0B3
:101C400080E090E0892B29F00E94000081110E9421
:101C5000000080E090E0892B49F080E090E0892B43
:101C600029F00E94000081110C9400000895815019
:101C7000823108F05AC0E82FF0E08827ED5BF14F81
:101C80008F4F0C948F46630E670E550E5B0E5F0EE2
:101C9000950E6A0E700E740E7A0E7E0E820E880EEF
:101CA0008C0E950E900E960E9A0E809180008F7776
:101CB000809380000895809180008F7DF9CF80917E
:101CC0008000877FF5CF84B58F7784BD089584B574
:101CD0008F7DFBCF8091B0008F778093B000089507
:101CE0008091B0008F7DF9CF809190008F778093A5
:101CF00090000895809190008F7DF9CF80919000A1
:101D0000877FF5CF8091A0008F778093A000089502
:101D10008091A0008F7DF9CF8091A000877FF5CFC3
:101D2000809120018F778093200108958091200178
:101D30008F7DF9CF80912001877FF5CFCF93DF93FF
:101D4000282F30E0F901EE53FE4F8491F901E05A5B
:101D5000FD4FD491F901EA55FD4FC491CC2399F080
:101D6000811185DFEC2FF0E0EE0FFF1FE855FE4FED
:101D7000A591B491EC91ED2381E090E009F480E02D
:101D8000DF91CF91089580E090E0FACF1F93CF9339
:101D9000DF93282F30E0F901EE53FE4F8491F901D3
:101DA000E05AFD4FD491F901EA55FD4FC491CC237F
:101DB000A1F0162F81115BDFEC2FF0E0EE0FFF1F7B
:101DC000E45DFD4FA591B4918FB7F894EC9111119A
:101DD00008C0D095DE23DC938FBFDF91CF911F9198
:101DE0000895DE2BF8CFCF93DF9390E0FC01E05A0B
:101DF000FD4F24918A559D4FFC0184918823C9F0A1
:101E000090E0880F991FFC01EA5BFD4FA591B4910A
:101E1000FC01E45DFD4FC591D49161110DC09FB7E8
:101E2000F8948C91209582238C9388812823288391
:101E30009FBFDF91CF910895623051F49FB7F8941E
:101E40003C91822F809583238C93E8812E2BEFCFBA
:101E50008FB7F894EC912E2B2C938FBFEACF1F9362
:101E6000CF93DF93182FEB0161E0BDDF209731F4B2
:101E700060E0812FDF91CF911F9188CFCF3FD105B7
:101E800011F461E0F6CFE12FF0E0EE53FE4FE49164
:101E9000E150E23108F0B3C0F0E08827ED5AF04F8E
:101EA0008F4F0C948F46650F6D0F720F7C0F860F4E
:101EB000FF0F900F980FA00FAA0FB40FBE0FCD0FFA
:101EC000D70FFF0FE10FEB0FF50F84B5806884BDCE
:101ED000C7BDDF91CF911F91089584B5806284BD05
:101EE000C8BDF7CF80918000806880938000D09338
:101EF0008900C0938800EDCF80918000806280933C
:101F00008000D0938B00C0938A00E3CF8091800043
:101F1000886080938000D0938D00C0938C00D9CFCF
:101F20008091B00080688093B000C093B300D1CF9F
:101F30008091B00080628093B000C093B400C9CF9C
:101F400080919000806880939000D0939900C09316
:101F50009800BFCF80919000806280939000D093D2
:101F60009B00C0939A00B5CF8091900088608093C9
:101F70009000D0939D00C0939C00ABCF8091A000B7
:101F800080688093A0008091A0008F7B8093A00048
:101F9000D093A900C093A8009CCF8091A00080623C
:101FA0008093A000D093AB00C093AA0092CF809101
:101FB000A00088608093A000D093AD00C093AC00D7
:101FC00088CF80912001806880932001D0932901DF
:101FD000C09328017ECF80912001806280932001F0
:101FE000D0932B01C0932A0174CF80912001886087
:101FF00080932001D0932D01C0932C016ACFC0386B
:10200000D1050CF03ECF34CF6091190470911A04C1
:1020100088E025DF8091190490911A040B9734F41D
:1020200082E090E090930B0280930A028091190461
:1020300090911A048A3F910534F08EEF9FEF9093B0
:102040000B0280930A0220910A0230910B028091C8
:10205000190490911A04820F931F90931A0480938D
:10206000190460911F047091200487E0F8DE8091CC
:102070001F049091200497FD09C080911F04909146
:10208000200444979093200480931F0480911F04A0
:1020900090912004029734F481E090E09093200422
:1020A00080931F04609195057091960586E0D7DEB8
:1020B000809195059091960597FD09C080919505B1
:1020C000909196050A979093960580939505809137
:1020D000950590919605029734F481E090E09093F5
:1020E00096058093950508953FB7F8948091300543
:1020F00090913105A0913205B091330526B5A89B8A
:1021000005C02F3F19F00196A11DB11D3FBFBA2F89
:10211000A92F982F8827BC01CD01620F711D811D49
:10212000911D42E0660F771F881F991F4A95D1F7CE
:1021300008958F929F92AF92BF92CF92DF92EF92CB
:10214000FF924B015C01D0DF6B017C01CDDF6C198C
:102150007D098E099F09683E734081059105B0F3A2
:1021600021E0821A9108A108B10888EEC80E83E028
:10217000D81EE11CF11C81149104A104B10431F7B3
:10218000FF90EF90DF90CF90BF90AF909F908F9097
:1021900008952FB7F89460912C0570912D058091CA
:1021A0002E0590912F052FBF0895DC011696ED9115
:1021B000FC91179712968C91481B477081E090E034
:1021C00001C0880F4A95EAF7E60FF11D30812223FE
:1021D00019F0832B8083089580958323FBCFFB0127
:1021E0004181DC0112962C911297421760F01396F0
:1021F0002C911397241738F0608115962C91621753
:1022000010F42481D2CF0895FC0180819281980F2F
:1022100092832181921760F494819F5F94839381CC
:10222000890F821710F08FEF820F838381E008956A
:1022300080E00895FC0112828081815083831482A2
:102240000895DB01ED91FC9119940F931F93CF93A7
:10225000DF931F92CDB7DEB700912E0710912F07A5
:10226000E0915D07F0915E0782E0199530E020E093
:102270004AE0B8018CE297E0E4DF182FE0915D07B7
:10228000F0915E0783E01995E0915D07F0915E079C
:1022900080E01995112399F160912E0770912F0715
:1022A0009E012F5F3F4F46E48CE297E0CADF8981B1
:1022B00080932C0760912E0770912F079E012F5F4E
:1022C0003F4F47E48CE297E0BCDF898180932D0784
:1022D00060912E0770912F0730E020E048E48CE2F7
:1022E00097E0AFDF8093370760912E0770912F073B
:1022F0002FE537E047E18CE297E0A3DF11E0812F83
:102300000F90DF91CF911F910F910895CF93DF939D
:1023100080916507811104C081E08093650795DF96
:10232000C0912E07D0912F07E0915D07F0915E07D5
:1023300082E01995E0915D07F0915E0781E01995C3
:1023400030E020E044E1BE018CE297E07ADF2FE547
:1023500037E047E1BE018CE297E073DFE0915D0773
:10236000F0915E0780E0DF91CF9119940F931F9356
:10237000CF93E0913A07F0913B07309719F08CE248
:1023800097E0199500912E0710912F07E0915D07B6
:10239000F0915E0782E01995E0915D07F0915E078C
:1023A00081E0199530E020E045E1B8018CE297E04A
:1023B00048DFC82F882339F02FE537E047E1B8011F
:1023C0008CE297E03EDFE0915D07F0915E0780E0F0
:1023D00019958C2FCF911F910F9108950B96FC01A9
:1023E000849108950A96FC0184910895FC018491DA
:1023F0000895FCDF882321F0823011F083E00895F6
:1024000086E00895FC01E60FF11D849190E0982F7D
:1024100088273196E4918E0F911D089568E0F2CFE0
:1024200066E0F0CF5F926F927F928F929F92AF9211
:10243000BF92CF92DF92EF92FF920F931F93CF93B1
:10244000DF93EC01E62EF42EC22E0C811D81C80113
:10245000CDDFD82E8C819D81CCDF982E21E0AA245F
:10246000AA94D21202C02FE0A22E8C819D81BADFE5
:10247000D82E8C819D81B2DFB82E8C819D81CEDFDC
:10248000E0E6EC1578F4009769F0080F191F91E663
:10249000D92EBC14B8F4188A1B8A1C8A198A1A8A85
:1024A00080E09DC08C819D81BBDFF0E4FC1538F499
:1024B000009729F0080F191F81E4D82EEACF0F5E8C
:1024C0001F4FE7CFBD1438F3892D90E0F801249118
:1024D0002F3F31F40F5F1F4FBD14E9F2D394F6CFB5
:1024E000CD1070C08C819D8181DF98012F5F3F4F9F
:1024F000F801882319F0823009F04DC084918B8B4C
:10250000F90124912C8BF8013396E491E88BF801C2
:102510003496E491E98BF8013596E491EA8B011544
:10252000110509F4BDCF8C819D8163DF3C89F31ACD
:102530009A89F91A9FEF930F9F0D2CA94EA94F1559
:1025400008F449C0921718F49F1508F047C02B896A
:102550009989E90E9FEF920F9E0D4BA95DA95E151B
:1025600008F44DC0941718F49E1508F037C0080FF2
:10257000111D295F722E7694769476946F2C630EDB
:102580005E01FCE1AF0EB11C872C912CF61431F1E9
:102590005E2C680149C08491982F9F7092509A8B4D
:1025A00082958F70898BF9012491822F8F708C8B8B
:1025B00022952F702B8BF8013296E491E295EF7003
:1025C000E88BADCF3296E491EA21E80FF92FF11DA7
:1025D0000E0F1F1F81CF921708F0B6CF8889DF91A9
:1025E000CF911F910F91FF90EF90DF90CF90BF9010
:1025F000AF909F908F907F906F905F900895941709
:1026000008F0B2CFEBCFF60184916A817B815C8EBA
:10261000FD8E1F8E8E8F95014BE3CE0112DEFFEFF4
:10262000CF1ADF0A28E0520E8C2D801B871558F335
:10263000080D191DF394AACFEF92FF920F931F93E9
:10264000CF93DF93F82E062FE42E152FE09141074C
:10265000F09142078CE297E01995080FCE2DD12F0B
:1026600010E02991211108C0812FDF91CF911F9196
:102670000F91FF90EF900895402F6F2D8CE297E01F
:10268000D1DEF80E180FEDCF2EE93FE0009709F4E8
:102690000895F9013197F1F70197F8CFCF93DF93C0
:1026A0001F921F92CDB7DEB720ED37E03A83298322
:1026B0009091BC00982311F081E00FC029813A81EC
:1026C000232B81F48091CF0581FDF6CF8091CE053B
:1026D00081110DC091E09093CE050F900F90DF9186
:1026E000CF91089529813A8121503109DFCF80E0CF
:1026F000F4CF84EA8093BC0061E080E8CFDF8111F1
:1027000002C080E008958091B900887F883051F040
:10271000803141F08091CE058111F3CF82E080932A
:10272000CE05EFCF88E78093BB0084E88093BC00A0
:1027300062E080E8B3DF882321F38091CF0581FD3B
:1027400005C08091B900887F883121F781E0089524
:1027500084E98093BC0064E080E1A0CF8093BB005B
:1027600084E88093BC0063E080E898DF8823A1F0D0
:102770008091CF0581FD0DC08091B900887F88329E
:1027800041F08091CE05811106C092E09093CE0574
:10279000089581E0089580E008951092CE0508958F
:1027A0008093CF051092B90084FF04C08CE0809321
:1027B000B800F3CF88E4FBCFCF93DF93FC0123A5D0
:1027C000222379F0EC0195DF811104C080E0DF91D4
:1027D000CF9108958EA1811106C0C0DF8823B1F387
:1027E0001BA681E0F4CF80E4F8CF0F931F93CF9323
:1027F000DF93C62FD42F89016330E9F038F46130BC
:1028000089F0623009F440C0C1E00FC0663001F1C8
:10281000673059F16530C1F7CFDF811114C098DFFF
:10282000C0E003C0FC0186A5BBDF8C2FDF91CF91F8
:102830001F910F910895FC0116A221E023A74111D9
:10284000E3CF86DFE1CF8D2F89DF8111DDCFE7CFA9
:10285000B3DF882321F3DD23B9F2F80181918F01E1
:102860007DDF8823E1F2D150F6CFA6DF8823B9F2CD
:10287000DD2351F2F801849171DFC82F8823A9F27A
:102880000F5F1F4FD150F4CFFC0146A321E023A7D7
:10289000BBCFDB011496ED91FC9130E020E065E0C8
:1028A0001994DB011496ED91FC9130E020E062E098
:1028B0001994DB011496ED91FC9130E020E063E087
:1028C0001994CF92DF92EF92FF920F931F93CF93C1
:1028D000DF938C017B016A0180E0F601C4918111D4
:1028E0000FC081E0CF3F41F04C2FB701C801D1DFCD
:1028F000882309F440C080E0BFEFCB1ADB0AEDCF9C
:102900004FEFCF3F91F3CE3FB9F1C03FA0F7C03EAC
:1029100030F04C2F4F70B701C801C3DFECCFC03D82
:1029200030F04C2F4F70B701C801C3DFE4CFC03C7B
:10293000E8F0D7011496ED91FC9130E020E040E002
:1029400064E0C8011995C295C07FCE5FD0E0CE018A
:102950009BDED7011496ED91FC9130E020E041E040
:1029600064E0C8011995CE018FDEC5CFC7FDC3CF86
:102970008C2F90E0F9CF80E0DF91CF911F910F91E4
:10298000FF90EF90DF90CF900895AF92BF92CF92DB
:10299000DF92FF920F931F93CF93DF936C018B0114
:1029A000F42EE90180E1481709F478C0841770F12A
:1029B000AAE04A1709F45DC0BFE04B1709F478C0DC
:1029C000F80102811381F2E3FF1609F4D0C0FF156C
:1029D00008F482C085E1F81609F4CDC0A7E1FA1623
:1029E00009F4DDC0B4E1FB125EC0D8011696ED918A
:1029F000FC91179715968C918E0F9F2F911D119218
:102A00008E179F07E1F7C80115DC4DC0E1E14E17B5
:102A100009F44BC0F5E14F13D3CFFB01A280B38083
:102A20004AE751E0C6014DDFD50114964C91406B49
:102A3000B801C6012EDF41E0B801C60132DFF50161
:102A400026813781D8011496ED91FC91D501159618
:102A50004C9166E0C601199581111BC080E0DF91A1
:102A6000CF911F910F91FF90DF90CF90BF90AF90CB
:102A70000895DB011496ED91FC9130E020E042E0F6
:102A800061E0C601199542E851E0B801C60119DFBD
:102A900097CF40E0B801C6010CDF92CF41E751E08B
:102AA000B801C6010EDF81E0DACF46E651E0F8CF8B
:102AB00041E0C601FEDE40E0B801C601F2DE41E8B9
:102AC000B801C601E6DE4881B801C601E2DE40E099
:102AD000B801C601EEDEE7CFE6E4FE1609F469C0F0
:102AE000F7E4FF1609F46AC08BE3F812DCCF998192
:102AF0008B8138E0390F813031F0833011F0392F7C
:102B000002C0392F985021E0D80113964C914917F3
:102B100008F420E041E0391708F040E091E0F801C6
:102B20005281351708F490E0322F342B932319F497
:102B3000242309F4B8CFFA80D12CC12C843048F476
:102B400090E0FC01EA5AFD4FC0808E5A9D4FDC0197
:102B5000DC90F7FE03C0BE01C80141DB88818C0D0B
:102B6000888389818D0D8983FF0C99F79CCFBE01E5
:102B7000C80135DB98CFC80147DB882309F46ECF45
:102B8000D8011696ED91FC91179715968C918E0FA2
:102B90009F2F911D11928E179F07E1F784CF188206
:102BA000F80182818983858181508A8383818B8327
:102BB0007ACFD80115968C91888375CFF8018181E1
:102BC000FBCF862F642F0FC9FC018185B7D821E088
:102BD000892B09F420E0822F08950F931F93CF9340
:102BE00080916E078B7F80936E0786E697E0ECDF1F
:102BF000C82F80916E0786958170C817C1F0C9DA19
:102C0000609368077093690780936A0790936B07D6
:102C100080916E0792E0892780936E0780916E07FE
:102C200082FB882780F9CF911F910F910895B1DA27
:102C3000009168071091690720916A0730916B072E
:102C4000AB01BC01401B510B620B730B80916C07F5
:102C500090916D07B0E0A0E0481759076A077B071D
:102C6000E8F280916E078170C817C1F292DA609322
:102C700068077093690780936A0790936B07809148
:102C80006E0791E08927846080936E0782DA009155
:102C90007007109171072091720730917307601BC4
:102CA000710B820B930B609374077093750780937D
:102CB0007607909377076DDA6093700770937107CA
:102CC0008093720790937307A9CFFB01248135810C
:102CD000428153812417350750F4A081B181A20F9E
:102CE000B31F8C938481958101969583848380E0C2
:102CF0000895CF93DF93EC01E881F9810284F38595
:102D0000E02DCE0119950196B9F7DF91CF91089585
:102D1000CF93DF93EC01E881F9810284F385E02D04
:102D2000CE0119958F3F980769F0E881F9818132CA
:102D300091059CF30684F785E02D682FCE01199547
:102D400090E080E0DF91CF910895FC01A285B385EA
:102D50001097A9F086859785029788F0CD01019696
:102D6000938782876C938685978501979787868757
:102D70000284F385E02D108281E090E0089590E0D8
:102D800080E00895FC01868197818F3F980729F0A4
:102D90002FEF3FEF378326830895A085B1851097E5
:102DA00089F0248535852115310561F0CD01019625
:102DB000918780878C912150310935872487082E8F
:102DC000000C990B0895FC0186819781019639F4D6
:102DD00081E024853585232B19F480E0089581E076
:102DE0000895CF92DF92EF92FF920F931F93CF93AC
:102DF000DF937C016A018B01D0E0C0E0CC15DD05DA
:102E000081F0D701ED91FC910284F385E02DC7019B
:102E100019958F3F980729F0F80181938F0121962A
:102E2000EDCFCE01DF91CF911F910F91FF90EF90E9
:102E3000DF90CF900895062E000C770BFC0177836E
:102E400066830895FC01848195810895FC01A68123
:102E5000B7819D012F5F3F4F8481958140855185CA
:102E6000840F951F2817390750F4378326836C93F6
:102E70000680F781E02D108281E090E0089590E0D7
:102E800080E00895FC0120812EBD9B012150310975
:102E900041F051810DB407FEFDCF4EB55EBD4193AB
:102EA000F5CF61507109860F971F0DB407FEFDCF56
:102EB0002EB5FC0120830895E0910906F0910A06E1
:102EC000808190910806892B80830895E0910906FE
:102ED000F0910A069081809108068095892380836D
:102EE00008958EBD00000DB407FEFDCF8EB5089588
:102EF000AF92BF92CF92DF92EF92FF920F931F9308
:102F0000CF93DF9300D000D01F921F92CDB7DEB7D2
:102F10008C017B016A0180910C068333B1F4580166
:102F2000A40EB51EA016B10609F463C0CFDF80EF72
:102F3000D8DF812FD6DF802FD4DF0F5F1F4FF7013F
:102F400081917F01CEDFB8DFEDCF5B01A40EB51E0E
:102F50008433A9F4BBDF19830A838D2D80688B83AA
:102F6000CC8264E070E0CE0101968CDFAE14BF0429
:102F700009F43EC0F70181917F01B3DFF7CFA6DFEF
:102F80000F3F110509F028F419820A8384E08B832E
:102F90000CC017FD17C019820A8333E016950795F8
:102FA0003A95E1F7007E0C600B8386E0C816D104E9
:102FB00090F5F701DE011496EA15FB0599F0819171
:102FC0008D93FACFC80126E0969587952A95E1F76B
:102FD000807E19830A830115104C10F48461D7CFC9
:102FE0008C61D5CFB6016D5F7F4FCE0101964ADF70
:102FF00063DFC60128960FB6F894DEBF0FBECDBFC3
:10300000DF91CF911F910F91FF90EF90DF90CF90C4
:10301000BF90AF90089563E070E0CE01019632DF7B
:10302000F70181917F015DDFAE14BF04C9F7E0CFE6
:10303000CF93DF931F92CDB7DEB7898341E050E095
:10304000BE016F5F7F4F90E080E052DF0F90DF9115
:10305000CF91089590E020910C06233339F40C961B
:10306000982F990F990F990F80E008954896F8CFFF
:10307000DA01E0910D06F0E0FE2FEE27E60FF71FD4
:1030800090E0982F8827A901BD018E0F9F1F30CF98
:10309000CF93DF931F921F92CDB7DEB779836A83F8
:1030A00022E030E0AE014F5F5F4F60E170E0E0DFB3
:1030B0000F900F90DF91CF910895CF93DF931F92E0
:1030C0001F92CDB7DEB779836A8322E030E0AE018C
:1030D0004F5F5F4F64E070E0CBDF0F900F90DF91A8
:1030E000CF910895CF93DF931F92CDB7DEB7209194
:1030F0000D0630E0322F2227260F371F90E0982F41
:103100008827498341E050E0BE016F5F7F4F820F07
:10311000931FEEDE0F90DF91CF910895CF93DF9351
:103120001F92CDB7DEB76983DC01ED91FC9102807F
:10313000F381E02D41E050E0BE016F5F7F4F1995B4
:103140000F90DF91CF910895FC019485FB01848558
:10315000981303C081E0983008F080E00895CF9381
:10316000DF931F92CDB7DEB76983DC01ED91FC914F
:103170000280F381E02D41E050E0BE016F5F7F4FA0
:1031800019950F90DF91CF91089544E050E0BC0174
:1031900085E090E0ADCE44E050E0BC0181E090E0FD
:1031A000A7CE08950F931F93CF93DF9300D000D045
:1031B000CDB7DEB78C0180E591E00E94860C88ECEB
:1031C00092E09A838983F80182819381A481B581F9
:1031D0008B839C83AD83BE83CE010396D6DF269678
:1031E0000FB6F894DEBF0FBECDBFDF91CF911F9118
:1031F0000F9108950F931F93CF93DF9300D000D0CA
:10320000CDB7DEB78C0180E591E00E94860C88EC9A
:1032100092E09A838983F80182819381A481B581A8
:103220008B839C83AD83BE83CE010396B4DF269649
:103230000FB6F894DEBF0FBECDBFDF91CF911F91C7
:103240000F910895FF920F931F93CF93DF93EB019C
:10325000FC01178A168A2A81211109C02B812111AC
:1032600006C02C81211103C02D812223F1F04115CC
:103270005105D9F08A01FC01F08C80E591E00E94B3
:10328000860CAE014E5F5F4F24E030E06CE070E0F2
:103290008F2DEEDEB8018F2DFBDE81E090E0DF9117
:1032A000CF911F910F91FF90089580E0F7CFFC011F
:1032B000848595850895FC0184899589089528EC75
:1032C00032E0FC0131832083FB014089518962890E
:1032D0007389FC0142835383648375830895DC0101
:1032E000ED91FC91048CF58DE02D1994CF92DF9235
:1032F000EF92FF920F931F930E94C9108B019C01C4
:10330000C0902704D0902804E0902904F0902A046B
:1033100060912304709124048091250490912604E7
:103320000C191D092E093F09083E134021053105DE
:10333000E0F0DC01CB010196A11DB11D80932304B7
:1033400090932404A0932504B0932604B701A6010A
:1033500048515C4F6F4F7F4F409327045093280490
:103360006093290470932A04C7CF1F910F91FF9097
:10337000EF90DF90CF9008950F931F93CF93DF933B
:10338000EC01FC0110E000E00F5F1F4F8191811103
:10339000FBCF0C0F1D1F20E030E0A901C017D107A3
:1033A000B1F0E99180ED8E0F8A30C0F7AAE0B0E06D
:1033B0000E9432444E2F4053550B9A01032E000CAD
:1033C000440B550B260F371F481F591FE7CFCA0163
:1033D000B901DF91CF911F910F910895DF92EF9284
:1033E000FF920F931F93CF93DF93EC01D62E1CAD6A
:1033F0000BAD7C0184E0E80EF11CE98DFA8DC7016C
:103400001995412F480F2D2D602FC7010BD89BAD6B
:10341000890F8BAF81E090E0DF91CF911F910F91E9
:10342000FF90EF90DF900895FC01768765870895FF
:10343000DC01ED91FC91068CF78DE02D199591E062
:1034400089270895862F089581E08627089521E031
:10345000FC018485883008F020E0822F08950895CB
:1034600090E080E008950F931F93CF93DF93EC01DA
:103470002097F1F00A811B81888587FD05C08E8128
:103480009F81009709F0EFDF8885853031F48985C9
:103490009A85009711F00E943A4788819981009798
:1034A00011F00E943A47CE010E943A47E801E0CF6E
:1034B000DF91CF911F910F910895CF93DF93EC018E
:1034C00088819981009711F00E943A4719821882E9
:1034D0001D821C821B821A82DF91CF910895FC010C
:1034E00080819181009711F00C943A470895AF9232
:1034F000BF92CF92DF92EF92FF920F931F93CF93E1
:10350000DF9359018B017B01E40EF51ECFE0D6E07D
:10351000C82E880FDD08A50170E060E0CE010E9492
:103520006441F80161938F01B601CE010E94D74832
:10353000009749F0FC012081222329F0EC0121961B
:103540000E151F0541F7DF91CF911F910F91FF904D
:10355000EF90DF90CF90BF90AF9008950F931F939F
:10356000CF93DF93FC01048115810115110539F416
:10357000FB011082DF91CF911F910F9108950F30C1
:10358000110510F00FE010E0EB01FC01608171818A
:10359000A801CE010E94F748C00FD11F1882EACFC0
:1035A0008F929F92AF92BF92EF92FF920F931F93D1
:1035B000CF93DF93CDB7DEB7A1970FB6F894DEBFF8
:1035C0000FBECDBF7C01FA01CB0119A2223008F455
:1035D0002AE08E010F5D1F4F822E912CB12CA12C61
:1035E000BF01A50194010E94F443F901CA016A30A8
:1035F00074F5605DD8016E938D01232B242B252B50
:1036000079F790E080E0109789F0FD0101900020AB
:10361000E9F73197AF014A1B5B0BD701ED91FC91A4
:103620000280F381E02DB801C7011995A1960FB66C
:10363000F894DEBF0FBECDBFDF91CF911F910F91E8
:10364000FF90EF90BF90AF909F908F900895695C2E
:10365000D1CFCF92DF92EF92FF92CF93DF936C01A5
:10366000990FEE08FF08F7FE19C06DE285ED97E0AF
:10367000EDDBEC0144275527BA014C195D096E09B1
:103680007F092AE085ED97E08BDF8C0F9D1FDF918E
:10369000CF91FF90EF90DF90CF9008952AE0B7018F
:1036A000A60185ED97E0DF91CF91FF90EF90DF903D
:1036B000CF9076CF8F929F92AF92BF92CF92DF92B0
:1036C000EF92FF920F931F93CF93DF937C01EB0157
:1036D0006C0182E0C80ED11C4701E5E08E0E911C02
:1036E00010E000E0F60141916F0150E070E060E011
:1036F0002AE0CE0155DF5C01E881F9810190F0817B
:10370000E02D6EE2CE0119958A0D9B1D080F191F41
:10371000C814D90439F7F701458150E070E060E042
:103720002AE0CE013DDF800F911FDF91CF911F91E5
:103730000F91FF90EF90DF90CF90BF90AF909F9050
:103740008F900895FC0101900020E9F73197AF01B7
:10375000481B590BBC0185ED97E00C94ED0CAB01B7
:10376000FB0101900020E9F73197E61BF70B23E0FE
:10377000EE0FFF1F2A95E1F720E830E02E1B3F0BEC
:1037800037FF02C02F5F3F4F35952795682F822F57
:103790000C941C130E9486110E94890C66ED72E045
:1037A00080E190E0DCDF61EE72E086E290E0D7DF5E
:1037B0006EEE72E08CE390E0D2DF0E94B6118111D0
:1037C000EBCF089583E090E0909386058093850584
:1037D0000E9486110E94890C66EF72E083E290E0FD
:1037E000BEDF0E94B6118111F5CF61E082E00E9438
:1037F000C60E61E082E00E94F30E60E082E00C946D
:10380000C60EAF92BF92CF92DF92EF92FF920F93CC
:103810001F93CF93DF9300D01F92CDB7DEB78C01FB
:103820006B017A0180910C068333B9F45B01680166
:10383000C40ED51EC016D10659F148DB8FE051DB0E
:10384000812F4FDB802F4DDB0F5F1F4F80E049DB67
:10385000F50181935F0130DBEDCF843349F536DB31
:1038600019830A838F2D8F778B83EC8264E070E05D
:10387000CE01019607DBA70170E060E0C6010E945F
:10388000BD48E114F10419F0B701C601FBDA14DBFD
:10389000C7010F900F900F900F90DF91CF911F9164
:1038A0000F91FF90EF90DF90CF90BF90AF90089571
:1038B0000DDB0F3F110509F030F419820A831B82DA
:1038C00063E070E0D5CF17FD0BC019820A8333E0A7
:1038D000169507953A95E1F7007E08600B83F0CFC7
:1038E000C80126E0969587952A95E1F7807E198391
:1038F0000A830115104C18F480618B83E1CF886135
:10390000FCCFCF93DF931F92CDB7DEB720910D068A
:1039100030E0322F2227260F371F90E0982F88277C
:1039200041E050E0BE016F5F7F4F820F931F69DF60
:1039300089810F90DF91CF910895CF93C82F462FA3
:1039400061E070E0CFDB61E070E08C2FDADF8111A5
:10395000FACFCF910895CF93C82F80E591E00E94D0
:10396000860C68E070E08C2FCF91E7CFCF93C82F03
:1039700080E591E00E94860C60E170E08C2FCF9191
:10398000DCCFCF93DF93EC01888D883018F4EEDF25
:1039900088E0888FDF91CF910895CF93C82F80E57D
:1039A00091E00E94860C63E070E08C2FCF91A9CF4C
:1039B000CF93DF93EC018C858830C8F4EEDF84313F
:1039C00089F0882379F0883169F021E08C3159F44D
:1039D000E881F9810084F185E02DCE01199521E07F
:1039E000892B09F420E0822FDF91CF91089580E0A8
:1039F000FBCFCF92DF92EF92FF92CF93DF93EC0158
:103A00008C85883058F4A7DF0E94C9106B017C01B7
:103A10008C85C3DF811109C088E08C87DF91CF914D
:103A2000FF90EF90DF90CF90089561E070E080E02C
:103A300090E00E9499100E94C910AB01BC014C1982
:103A40005D096E097F098D859E85B0E0A0E048176D
:103A500059076A077B07E0F28C8588DFDDCFCF93BB
:103A6000FC01C08D80E591E00E94860C60E270E070
:103A70008C2F63DF62E070E08C2F43DF84FD14C085
:103A800062E070E08C2F3DDF83FF09C048E162E017
:103A900070E08C2F27DB80E090E0CF91089580E5E7
:103AA00091E00E94860CE6CF40E162E070E08C2F4E
:103AB00019DB81E0F1CFCF93DF931F92CDB7DEB753
:103AC00041E050E0BE016F5F7F4F90E080E099DE03
:103AD00089810F90DF91CF910895CF93DF93C4E157
:103AE000D0E0E9DF882361F061E070E080E090E001
:103AF0000E9499102197A9F780E0DF91CF91089556
:103B000081E0FBCFCF92DF92EF92FF920F931F9352
:103B1000CF93DF93CDB7DEB7C454D1090FB6F89475
:103B2000DEBF0FBECDBFFC0182819381A481B58130
:103B300023968CAF9DAFAEAFBFAF239721E0239606
:103B40002FAF239723964CAD5DAD6EAD7FAD239720
:103B50004BAB5CAB6DAB7EAB89AF9AAFABAFBCAFE1
:103B60008DA79EA7AFA7B8AB28AB4DA55EA56FA547
:103B700078A94FA358A769A77AA72EAB4BA95CA930
:103B80006DA97EA949A35AA36BA37CA38B8F9C8F9D
:103B9000AD8FBE8F48EC52E05C8B4B8B3FEF3D8B83
:103BA0003E8B3F8B188E5E874D872AA7CFA0D8A467
:103BB000E9A4FAA4CF86D88AE98AFA8A2CA309A1B3
:103BC0001AA12BA13CA109871A872B873C875A830E
:103BD00049838B839C83AD83BE8380910E068111C4
:103BE00096C060E372E080E090E00E9499101FB7F9
:103BF000F89480910B06811127C0EBEDF2E08491DF
:103C0000E5E9F2E09491E82FF0E0EE0FFF1FEA5BA8
:103C1000FD4FA591B491EC91E92321F461E085E396
:103C20000E94C60E61E085E30E94F30E8CB58061B0
:103C30008CBD8CB580648CBD61E084E30E94F30E82
:103C400061E083E30E94F30E80910B068F5F809307
:103C50000B061FBF80911102282F30E0F901EA55B1
:103C6000FD4FE491F0E0EE0FFF1FE45DFD4F459145
:103C7000549150930A0640930906F901E05AFD4F0A
:103C8000E491E093080661E00E94F30E15D980E507
:103C900091E00E94860C84E380930C0680E8C8D9EA
:103CA0001CDF882309F45BC088E0C2D904DF8830B8
:103CB00009F055C080E1BCD9FEDE803109F04FC06B
:103CC00080E0B6D9F8DE182F811149C041E050E0FC
:103CD000BE016D5B7F4F8FE190E093DD24968FAD49
:103CE0002497833009F03BC080E480930D0642E0C6
:103CF0006EE170E0812FF6D942E06FE170E0812F34
:103D0000F1D91F5F183099F781E080930E0680E5A6
:103D100091E00E94860C46E050E066E977E089E099
:103D200090E0E6D844E050E0BE016D5F7F4F8FE049
:103D300090E0DED8CE010F962EDACE01459625DA38
:103D400081E08C8789859A85AB85BC858093120735
:103D500090931307A0931407B09315075CC087E3F3
:103D600080930C0680E864D9B8DE882301F188E0EE
:103D70005FD9A1DE8830D9F480E15AD99CDE182FB2
:103D80008031A9F480E054D996DE811110C041E061
:103D900050E0BE016D5B7F4F89E390E032DD2496F9
:103DA0008FAD2497843019F410930D06ADCF83E3C3
:103DB00080930C0680E83CD990DE882351F180E1A5
:103DC00037D979DE803129F582E132D974DE82314A
:103DD00001F580E02DD96FDE81111BC084E0809356
:103DE0000D0615E525961FAF259741E050E0BE0171
:103DF0006C5B7F4F8BE190E07BD824961FAF2497BC
:103E000041E050E0BE016D5B7F4F8AE190E070D8E9
:103E10007BCF10920C06CC5BDF4F0FB6F894DEBF61
:103E20000FBECDBFDF91CF911F910F91FF90EF900B
:103E3000DF90CF9008951F93CF93DF931F92CDB75C
:103E4000DEB7182F80E591E00E94860C812F02D901
:103E500027E0129FF0011124E053FA4F22813381B1
:103E6000377041E050E0BE016F5F7F4F820F931FBC
:103E7000C8DC89810F90DF91CF911F910895FC01DB
:103E8000808D883038F4218D328D232B19F0D3DFCB
:103E900090E008958FEF9FEF0895CF93DF93FC019B
:103EA0002485283028F08FEF9FEFDF91CF91089580
:103EB000EC010190F081E02D0084F185E02D199551
:103EC000892B89F38C85B7DF90E0EFCFDA01E091A1
:103ED0000D06F0E0FE2FEE27E60FF71F90E0982F7B
:103EE0008827A901BD018E0F9F1F8BCC8F929F92B7
:103EF000AF92BF92CF92DF92EF92FF920F931F93F8
:103F0000CF93DF93CDB7DEB760970FB6F894DEBFDF
:103F10000FBECDBF7C0190910C06911115C018E029
:103F2000812F60960FB6F894DEBF0FBECDBFDF9134
:103F3000CF911F910F91FF90EF90DF90CF90BF90A6
:103F4000AF909F908F90089508E0933309F404E0B8
:103F50006B0180E591E00E94860C9E012F5F3F4F30
:103F60005901490110E063E070E0812FCADCF401DF
:103F700081934F018823B9F01F5F0113F4CF00E054
:103F8000F50181915F018D3149F0883139F08A5115
:103F9000823020F00F5F1013F3CFC1CF60E170E0EB
:103FA000802FCBDC102FA12EB12C83EE93E0019754
:103FB000F1F742E870E060E0812F94D84FEF62E0C3
:103FC00070E0812F8FD8B601C114D10491F4809193
:103FD0000F029091100201968115F0EC9F0708F4F2
:103FE00056C09093100280930F0260910F0270915F
:103FF0001002812F62D886E0E2E2F2E0DE0119963B
:1040000001900D928A95E1F7F70183818F778C8774
:1040100084818D8785818E87A7014E5F5F4F24E065
:1040200030E06CE070E0812F23D8B601812F30D8CA
:1040300026E030E0AE01475F5F4F66E070E0812F21
:1040400017D861E070E0812F78DC27E02A9DC0015D
:104050002B9D900D11249C0120533A4F7901F901B9
:104060001182108222E030E0AE01415F5F4F68E2D2
:1040700070E0812F2BDF8F859889982789279827D3
:10408000F7019383828316821582148249CF80E0E0
:1040900090ECA7CFCF92DF92EF92FF920F931F93F6
:1040A000CF93DF9300D000D0CDB7DEB78C016B018A
:1040B0007A01FC01808D883008F458DC88EC92E0AD
:1040C0009A838983F60182819381A481B5818B8350
:1040D0009C83AD83BE83B701CE01019607DFF80153
:1040E000808F8830A0F4F586E486128E118E81E0F0
:1040F00026960FB6F894DEBF0FBECDBFDF91CF91ED
:104100001F910F91FF90EF90DF90CF90089580E086
:10411000EFCF7F928F929F92AF92BF92CF92DF921A
:10412000EF92FF920F931F93CF93DF931F921F92F3
:10413000CDB7DEB7782E8B014A01590122E030E07D
:10414000AE014F5F5F4F64E270E0C0DEE980FA804D
:10415000FE24EF24FE24E00EF11E970137704091FB
:104160000C06072D10E0433309F042C0085F1F4FD3
:10417000102F0027110F110F110FC901800F911F70
:104180004733C9F1A9014A0D5B1D4130584098F1F0
:1041900060E078E06B01C21AD30AA601B4010E9464
:1041A0007817A5014C195D09B4016C0D7D1DC8017E
:1041B0000E947817EA0CFB1CF982EA8222E030E0C8
:1041C000AE014F5F5F4F64E270E0872D0E943818A8
:1041D0000F900F90DF91CF911F910F91FF90EF9073
:1041E000DF90CF90BF90AF909F908F907F90089579
:1041F000005F1F4FBDCFA501B401DACFEF92FF9250
:104200001F93CF93DF931F921F92CDB7DEB7182F66
:1042100022E030E0AE014F5F5F4F60E270E056DEBB
:10422000E980FA80FE24EF24FE2422E030E0AE0193
:104230004F5F5F4F60E270E0812F48DE89819A8195
:10424000982789279827E816F90689F487E0189FA8
:10425000F0011124E053FA4FF582E482C7010F9078
:104260000F90DF91CF911F91FF90EF9008957C0107
:10427000DCCF1F93CF93DF93182F80E591E00E944E
:10428000860C812FBBDFEC0163E070E0812F39DB0E
:10429000873121F08C3111F0D0E0C0E0CE01DF9108
:1042A000CF911F910895CF93DF93EC018C858830D7
:1042B00050F473DB873111F08C3129F48C85D9DF10
:1042C0008115984098F3DF91CF910895FC01848582
:1042D000883008F4CECF90E080E008959F92AF92AE
:1042E000BF92CF92DF92EF92FF920F931F93CF93E3
:1042F000DF938C015B01942EE52EFC01C688D788E4
:10430000F08C80E591E00E94860C8F2D77DFC92D1F
:10431000DE2D8C179D0708F4EC019E01A501B60166
:104320008F2DF7DEF801868997898C0F9D1F978B5B
:10433000868BCE01DF91CF911F910F91FF90EF906F
:10434000DF90CF90BF90AF909F9008958F929F92F3
:10435000AF92BF92CF92DF92EF92FF920F931F9393
:10436000CF936C015B018A01FC01C485C830C0F5A4
:104370007A014130584018F0E12C88E0F82E80E5B1
:1043800091E00E94860C8C2F39DF4C0163E070E0D5
:104390008C2FB7DA873111F08C3129F58E149F04F8
:1043A00070F380E591E00E94860C9701A50170E012
:1043B00060E08C2FAEDE60E270E08C2FBEDA62E04F
:1043C00070E08C2F9EDA84FD16C063E070E08C2FC5
:1043D00098DA81110BC081E090E0F601938382832B
:1043E00010E000E010C0F12CE12CDBCF80E591E083
:1043F0000E94860CE4CF40E162E070E08C2F0E94C6
:104400007218EF2841F3C801CF911F910F91FF90CF
:10441000EF90DF90CF90BF90AF909F908F900895D6
:10442000FF920F931F93CF93DF931F921F92CDB7ED
:10443000DEB7F82E22E030E0AE014F5F5F4F66E25C
:1044400070E044DD09811A8110270127102722E03E
:1044500030E0AE014F5F5F4F66E270E08F2D36DDDA
:1044600089819A819827892798270817190749F47D
:10447000C8010F900F90DF91CF911F910F91FF9086
:1044800008958C01E4CF1F93CF93DF93182F87E01B
:10449000189FE0011124C053DA4F88819981009759
:1044A00059F480E591E00E94860C812FB9DF2E81BE
:1044B000821B910999838883DF91CF911F91089581
:1044C000FC018485883008F4DECF90E080E0089518
:1044D0004F925F927F928F929F92AF92BF92CF92B4
:1044E000DF92EF92FF920F931F93CF93DF931F9270
:1044F0001F92CDB7DEB7782E6B014A01A82EB12CE2
:1045000027E0829FC0011124FC01E053FA4F7F0194
:104510000081118180E591E00E94860C0815190543
:104520004CF4872D7DDFF70126818C01021B1109D8
:10453000118300830115110521F563E070E0872DDB
:10454000E0D9843159F0882349F001E010E08C3142
:1045500011F410E000E0119501951109C8010F90C8
:104560000F90DF91CF911F910F91FF90EF90DF900F
:10457000CF90BF90AF909F908F907F905F904F9023
:104580000895801691060CF4840187E08A9DF0015D
:104590008B9DF00D1124E053FA4FE280F380C1149B
:1045A000D10441F12701F7E05F22872D0E942A18EC
:1045B000840D951D20910C06273309F450C09801F5
:1045C000240D351D2130384008F449C020E038E082
:1045D000490184189508A401B60113D92601480C95
:1045E000591C6801C818D908872D0E942A18A601ED
:1045F000B20107D9E00EF11E87E08A9DF0018B9D84
:10460000F00D1124E053FA4FF382E28220813181D0
:10461000201B310B318320838681800F912F911DC8
:104620008A3F910510F4232BE9F487E08A9DF0017D
:104630008B9DF00D1124E053FA4F1682F982EA8225
:1046400022E030E0AE014F5F5F4F68E270E0872DFF
:104650000E94381860E470E0872D6FD97FCFA801E1
:10466000B601C7CF86837ACFCF93DF93FC01218D2C
:10467000328D2115310529F48FEF9FEFDF91CF9116
:104680000895EC01808D4217530708F0A90120DF3F
:10469000181619068CF7298D3A8D281B390B3A8F7D
:1046A000298FECCF0F931F93CF93DF931F92CDB73A
:1046B000DEB7FC01218D328D232B41F48FEF9FEF6C
:1046C0000F90DF91CF911F910F9108958C0141E0E0
:1046D00050E0BE016F5F7F4FFC01808DF9DE181640
:1046E000190664F7F801818D928D0197928F818F61
:1046F000898190E0E5CFCF93DF931F92CDB7DEB7EE
:1047000041E050E0BE016F5F7F4FFC018485E0DE39
:104710001816190634F4898190E00F90DF91CF913B
:1047200008958FEF9FEFF9CFFC018485883008F45E
:10473000CFCE90E080E008958F929F92AF92BF928B
:10474000CF92DF92EF92FF920F931F93CF93DF935D
:1047500000D000D000D01F92CDB7DEB790910C06EC
:10476000911115C018E0812F2A960FB6F894DEBF7C
:104770000FBECDBFDF91CF911F910F91FF90EF90B2
:10478000DF90CF90BF90AF909F908F90089528E0DA
:10479000F22E933311F494E0F92E6B01082F80E58B
:1047A00091E00E94860C9E012F5F3F4F5901490105
:1047B00010E063E070E0812FA4D8F40181934F01F1
:1047C0008823B9F01F5FF112F4CFF12CF50191911C
:1047D0005F019D3149F0983139F09A51923020F0C3
:1047E000F3941F11F3CFBECF60E170E08F2DA5D8F9
:1047F0001F2DE12EF12C83EE93E00197F1F7402F6E
:1048000070E060E0812F0E9472184FEF62E070E06C
:10481000812F0E947218B601CD2889F480910F0271
:104820009091100201968115F0EC9F0788F190930A
:10483000100280930F0260910F0270911002812F7D
:104840000E945D1861E070E0812F77D827E02E9DEF
:10485000C0012F9D900D11249C0120533A4F7901E6
:10486000F9011182108222E030E0AE01475F5F4F14
:1048700068E270E0812F2ADB89859A85982789274D
:104880009827F701938382831682158214826BCF57
:1048900080E090ECCCCF0F931F93CF93DF93EC018C
:1048A0008B01888D883008F461D8B80182E044DF3C
:1048B000888F883050F41D870C871A8E198E81E0FE
:1048C000DF91CF911F910F91089580E0F9CFCF92A2
:1048D000DF92EF92FF921F93CF93DF93EC017B0166
:1048E0006A018C85883038F458D8882311F08C857B
:1048F00032D888E08C87F70182819381A481B581C9
:104900000097A105B10551F490E080E0DF91CF91CF
:104910001F91FF90EF90DF90CF9008958F3F9F4FB2
:10492000AF4FBF4F89F370E060E081E205DF182FE1
:104930008C87883048F780E591E00E94860CA701BB
:104940004E5F5F4F24E030E06CE070E0812F0E940A
:104950003818B601812F0E94481864E070E0812F5A
:104960000E949D1C0E94C9106B017C018C8515D88A
:10497000873111F18C3101F1882331F20E94C91085
:10498000AB01BC014C195D096E097F098D859E85BF
:10499000B0E0A0E084179507A607B70738F061E0FC
:1049A00070E080E090E00E949910E0CF8C850E943A
:1049B000B61C88E08C87A8CF81E090E0A7CF0F934A
:1049C0001F93CF93DF931F921F92CDB7DEB7FC01E9
:1049D00024852830D8F48C0180E591E00E94860C73
:1049E00022E030E0AE014F5F5F4F60E170E0F80120
:1049F00084856CDA89819A819827892798270F9076
:104A00000F90DF91CF911F910F91089590E080E07A
:104A1000F6CF0F931F93CF93DF931F921F92CDB7C3
:104A2000DEB7FC0124852830D8F48C0180E591E0C4
:104A30000E94860C22E030E0AE014F5F5F4F64E0E1
:104A400070E0F801848542DA89819A819827892764
:104A500098270F900F90DF91CF911F910F9108959C
:104A600090E080E0F6CF0F931F93CF93DF93EC019C
:104A700088819981009759F02A813B812617370751
:104A800030F081E0DF91CF911F910F9108958B015C
:104A90006F5F7F4F0E94C347009759F099838883C7
:104AA0001B830A832C813D81232B59F7FC01108243
:104AB000E8CF80E0E7CFEF92FF920F931F93CF9361
:104AC000DF936115710541F480E0DF91CF911F9173
:104AD0000F91FF90EF90089541155105A9F07B01CA
:104AE000EC010C811D81040F151FB801BCDF882368
:104AF00059F3288139818C819D81B701820F931FE1
:104B00000E94E2481D830C8381E0DFCFCF93DF93C7
:104B1000EC01FB014481558160817181CCDF811101
:104B200003C0CE010E945D1ACE01DF91CF9108959E
:104B3000EF92FF920F931F93CF93DF93EC017B01D2
:104B40008A01BA0190DF81110BC0CE010E945D1A6B
:104B5000CE01DF91CF911F910F91FF90EF900895BB
:104B60001D830C83B701888199810E94E248F0CFB0
:104B7000CF93DF93EC01FB018617970741F060812B
:104B800071816115710539F044815581D1DFCE0104
:104B9000DF91CF9108950E945D1AF9CFFC01118237
:104BA00010821382128215821482FB010190002070
:104BB000E9F73197AF01461B570BBACFEF92FF923F
:104BC0000F931F93CF93DF9300D000D000D0CDB7C9
:104BD000DEB78C01862FF8011182108213821282B7
:104BE0001582148250E09E012F5F3F4F7901B90179
:104BF00090E00E949742F70101900020E9F7319779
:104C0000AF014E195F09B701C80192DF29960FB6AF
:104C1000F894DEBF0FBECDBFDF91CF911F910F91F2
:104C2000FF90EF900895EF92FF920F931F93CF9311
:104C3000DF93CDB7DEB7E0970FB6F894DEBF0FBEB7
:104C4000CDBF8C017B014AE0FB016581CE018B96D3
:104C5000B5DF6EEF72E0CE018596A0DF4AE0F70186
:104C60006481CE014F96AADF6EEF72E0CE014996C5
:104C700095DF4AE0F7016381CE0143969FDF6EEF37
:104C800072E0CE010D968ADF4AE0F7016281CE0123
:104C9000019694DF18861F821A8619861C861B8649
:104CA000BE016F5F7F4FCE01079662DFBE01635F7B
:104CB0007F4FCE0107962ADFBE016D5E7F4F26DF54
:104CC000BE01675E7F4F22DFBE01615E7F4F1EDF48
:104CD000BE016B5D7F4F1ADFBE01655D7F4F16DF42
:104CE000F801118210821382128215821482BC0193
:104CF000C8013EDFCE0107960E946F1ACE010196D1
:104D00000E946F1ACE010D960E946F1ACE01439633
:104D10000E946F1ACE0149960E946F1ACE014F96DB
:104D20000E946F1ACE0185960E946F1ACE018B9653
:104D30000E946F1AC801E0960FB6F894DEBF0FBE4E
:104D4000CDBFDF91CF911F910F91FF90EF9008950C
:104D5000DC0188EC92E08D939D9384E0FB0101904F
:104D60000D928A95E1F70895EF92FF920F931F93AA
:104D7000CF93DF9300D01F92CDB7DEB78C017B01BC
:104D8000FB0184858830A8F088EC92E0F8019183DB
:104D900080831282138214821582C8010F900F90B3
:104DA0000F900F90DF91CF911F910F91FF90EF9097
:104DB000089580E591E00E94860C24E030E0AE0189
:104DC0004F5F5F4F6CE070E0F70184857FD8BE01D4
:104DD0006F5F7F4FC801BCDFE0CF0F931F93CF936E
:104DE000DF9300D000D01F921F92CDB7DEB78C01A9
:104DF000D80159964D915C915A974115510551F042
:104E0000ED91FC91048CF58DE02D70E060E0C8011F
:104E10001995EECFF801808D36DB892BA9F148E09A
:104E200050E0BE016F5F7F4FD80158968C9150DBE8
:104E300018161906F4F4D801509684E0FE01319654
:104E400001900D928A95E1F78D8190E0982F882747
:104E50002E81820F911DF801958B848B8F81282FD5
:104E600030E0322F22278885820F932F911D928F59
:104E7000818F28960FB6F894DEBF0FBECDBFDF91AD
:104E8000CF911F910F91089590E080E0F2CF4F9263
:104E90005F926F927F928F929F92AF92BF92CF92CA
:104EA000DF92EF92FF920F931F93CF93DF93CDB7D3
:104EB000DEB763970FB6F894DEBF0FBECDBF7C019F
:104EC0006B013A01FB0120E090E080E06AE0319163
:104ED000332309F460C040ED430F4A3008F04CC062
:104EE000689FA001699F500D1124CA01C097830FCC
:104EF000911D37FD9A958F3F910549F340F3F701D6
:104F0000428153816481758180911E0790911F07B2
:104F1000A0912007B0912107481759076A077B071E
:104F200009F4F3C18701085F1F4F0E94C9106F7019
:104F300077277C5FC801AFDC813009F0EBC188ECDA
:104F400092E09A838983F70182819381A481B5815C
:104F50008B839C83AD83BE8345E350E0BE016F5FCE
:104F60007F4FC8010E942219892BA9F5D12CC12C91
:104F7000C8010E94C11C17C03E3209F0C0CF2330C7
:104F800009F4BDCFD301A20FB11D12968C932F5FF0
:104F900090E080E09CCF233009F0B1CFF30185830E
:104FA000CC24C394D12CC60163960FB6F894DEBF0F
:104FB0000FBECDBFDF91CF911F910F91FF90EF906A
:104FC000DF90CF90BF90AF909F908F907F906F9029
:104FD0005F904F9008950E94C910F7017783668310
:104FE00042E050E0B7016A5F7F4FC80177D981E0A6
:104FF00090E09A83898342E050E0BE016F5F7F4F6B
:10500000C8016CD980E091E09A83898342E050E046
:10501000BE016F5F7F4FC80161D91A82198242E0D9
:1050200050E0BE016F5F7F4FC80158D942E050E0A9
:10503000BE016F5F7F4FC80151D942E050E0BE0111
:105040006F5F7F4FC8014AD95601F60180818823DE
:10505000F1F06501F60181912F01882311F08E3264
:10506000A1F446018A189B081814190464F48D866B
:1050700041E050E0BE01635F7F4FC8012FD9A4011A
:10508000B501C8012BD95201E0CF6201E3CF1D86E3
:1050900041E050E0BE01635F7F4FC8011FD9C12CC2
:1050A000DD24D394DA82C98242E050E0BE016F5F12
:1050B0007F4FC80113D9DA82C98242E050E0BE01B5
:1050C0006F5F7F4FC8010AD9C8010E942F1D892B2D
:1050D00009F44CCFF3E0AF2EB12C230122E0420EB5
:1050E000511CC9C0F7014281538164817581808D53
:1050F000918DA28DB38D481759076A077B0709F078
:10510000FAC0848D958DC59709F0F5C081A192A153
:105110005DEFC52EDD24DA940C970CF4A2C04CE0B0
:1051200050E0BE016F5F7F4FC8019EDA8B819C818A
:105130009827892798279A8B898BF7014681578171
:1051400029813A814217530709F0DAC097FFD8C086
:105150008F7092703BEFC32EDD24DA94892B09F017
:1051600080C06F8078847624672476242AEFC22E4C
:10517000DD24DA946114710409F473C0D12CC12CBC
:105180008D819E81982789279827C816D906E0F433
:1051900041E050E0BE01635F7F4FC80165DA4D8595
:1051A000442329F050E070E060E0C8015DDA8D85AD
:1051B0008111EECF44E050E070E060E0C80154DAC5
:1051C000FFEFCF1ADF0ADCCF912C812C41E050E0B9
:1051D000BE016D5E7F4FC80147DA4B89842F807C0A
:1051E00009F065C0442329F050E070E060E0C80198
:1051F0003BDA8B898111EACF42E050E0BE01615F6A
:105200007F4FC80131DA42E050E0BE01635F7F4F5B
:10521000C8012ADA44E050E070E060E0C80124DA16
:1052200042E050E0BE016F5E7F4FC8011DDA8F85FE
:10523000988949895A898115914009F040C0CD84E7
:10524000DE84DC24CD24DC2481E0C816D104B9F549
:105250004115544009F046C044E050E0B201C80195
:1052600003DA21E0A21AB10809F482CEFFEFCF16CB
:10527000DF0609F07DCE0E94C9103B014C01C80138
:10528000ACDD181619060CF42DCF0E94C910661952
:10529000770988099909693873418105910538F5BD
:1052A00062E370E080E090E00E949910E8CF41E076
:1052B00050E070E060E0C801D7D91B8A9ACF54272C
:1052C0004527542770E060E0C801CED9FFEF8F1A60
:1052D0009F0A6814790409F079CF96EFC92EDD246E
:1052E000DA94BFCFE7EFCE2EDD24DA94BACFCC2408
:1052F000CA94DC2CB6CF6EEFC62EDD24DA94B1CF83
:105300004CEFC42EDD24DA94ACCF8EEFC82EDD2412
:10531000DA9449CED12CC12C46CECF92DF92EF92B7
:10532000FF920F931F93CF93DF93CDB7DEB7AF9765
:105330000FB6F894DEBF0FBECDBF7C016A0108EC4A
:1053400012E01A8309831C861B8688EE93E0A0E096
:10535000B0E08D879E87AF87B88B8CE292E09A870A
:105360008987188F0F8B198E1A8E1B8E1C8E88E0E2
:1053700089A31BA70AA71CA61DA61EA61FA680916F
:10538000120790911307A0911407B09115078EA3EF
:105390009FA3A8A7B9A78B839C83AD83BE831886E0
:1053A0001F82AE01465D5F4FCE01019670DD8130F8
:1053B0009105B1F4D701ED91FC910488F589E02DB8
:1053C0001DA30CA38CA59DA5AEA5BFA58EA39FA3D1
:1053D000A8A7B9A7A601BE016C5D7F4FC7011995AB
:1053E000AF960FB6F894DEBF0FBECDBFDF91CF9161
:1053F0001F910F91FF90EF90DF90CF900895CF9283
:10540000DF92EF92FF920F931F93CF93DF93CDB76D
:10541000DEB7AF970FB6F894DEBF0FBECDBF8C01DD
:105420006B017A0188EC92E09A8389831B821C824B
:105430001D821E821C861B8648EE53E060E070E0F1
:105440004D875E876F87788B2CE232E03A87298719
:10545000988F8F8B198E1A8E1B8E1C8E28E029A395
:105460009BA78AA71CA61DA61EA61FA6D8011C9630
:105470008C91883060F40E94CD1C882321F0F801C3
:1054800084850E94AB1C88E0D8011C968C93809187
:10549000120790911307A0911407B09115078EA3DE
:1054A0009FA3A8A7B9A78B839C83AD83BE831886CF
:1054B0001F82AE01465D5F4FB601CE010196E7DC6B
:1054C0000097C1F0D801ED91FC910684F785E02D9D
:1054D00088EC92E09DA38CA38CA59DA5AEA5BFA54D
:1054E0008EA39FA3A8A7B9A7A701BE016C5D7F4F9C
:1054F000C8011995AF960FB6F894DEBF0FBECDBFA9
:10550000DF91CF911F910F91FF90EF90DF90CF909F
:1055100008957F928F929F92AF92BF92CF92DF9227
:10552000EF92FF920F931F93CF93DF93CDB7DEB728
:10553000A6970FB6F894DEBF0FBECDBF8C01762EB6
:10554000942E852E20E2A22ECE0101967C01DC0154
:10555000EA2D1D92EA95E9F76801F3E4CF0ED11C1C
:1055600088EC92E09AA389A38FEF8BA38CA38DA3E1
:105570008EA343E450E0BE016F5D7F4FC6010E94E1
:105580002219019609F4BFC081E089838A8386E0ED
:10559000B82EBB821C82D80114966D917D918D919D
:1055A0009C9117970E9497466D837E838F8398877F
:1055B00089869A8680E890E09C878B874CE150E052
:1055C000B701C6010E946E21FE0137968AE1DF0114
:1055D0001D928A95E9F74801B8E08B0E911CF40101
:1055E000D70101900D92BA94E1F740E150E0B70184
:1055F000C6010E946E21F7011192AA94E9F796E084
:10560000A92EB12C40E250E0B701C6010E946E21E4
:10561000F1E0AF1AB108B1F783E6898392E89A8383
:1056200093E59B838C8385E38D8381E08E837F82EA
:105630009DE3988797E099878A8786E0F401DE01E9
:105640001B9601900D928A95E1F78CE0898B8A8BED
:1056500060E073E0CE0143960E94E248D8011B96B9
:105660006C91CE0149960E94D60CF8016485CE015A
:105670004B960E94D60CD8011D966C91CE014D968A
:105680000E94D60C4EE150E0B701C6010E946E2187
:10569000B3E07B121EC082E3898384E08A83F80131
:1056A00096859B8397859C8390899D8391899E8312
:1056B00096E39F838887828D8987838D8A87848DEF
:1056C0008B87858D8C874CE050E0B701C6010E9426
:1056D0006E2187E3898386E08A8391E09B8393E050
:1056E0009C838D838FE08E838AE38F838BE388870F
:1056F0008FEF898749E050E0B701C6010E946E2113
:10570000C6010E942F1DA6960FB6F894DEBF0FBEED
:10571000CDBFDF91CF911F910F91FF90EF90DF9060
:10572000CF90BF90AF909F908F907F900895CF9231
:10573000DF92EF92FF920F931F93CF93DF937C0141
:105740006B01DC01ED91FC910284F385E02D19954C
:10575000829761F0CFEFDFEFCE01DF91CF911F9104
:105760000F91FF90EF90DF90CF90089585E0F601C4
:10577000808786E090E00E949E468C01009751F35E
:10578000EBE2F4E0DC01ED93FC9380E091E0DF01DB
:105790009C011D9221503040E1F7D80113969C9353
:1057A0008E93129715961C921E921497D701ED9125
:1057B000FC910284F385E02DC7011995EC01019657
:1057C000C9F0C232D10509F44DC0C032D1050CF484
:1057D00049C0B8018C2FCC35D10549F5D701ED91E1
:1057E000FC910284F385E02DC7011995EC018F3FF0
:1057F000980721F4C8010E943A47AECF823691053E
:1058000041F15CF48F32910509F18C359105D9F0A5
:10581000829761F6B80182E20AC08E369105E1F006
:105820004CF4B8018CE0C636D10509F0BFCF0E9418
:105830006516BCCF8237910591F0B80189E0C43775
:10584000D105A9F3B3CFB8018CE5F1CFB8018FE250
:10585000EECFB80188E0EBCFB8018AE0E8CFB8011D
:105860008DE0E5CFF80184819581009749F00190A2
:10587000F081E02DE80FF91F31978081882321F016
:10588000B80180E00E946516D80114968D919C9114
:105890000E949E46EC01009739F06BE274E00E9492
:1058A000E248C8010E943A47F601D287C187D0E09A
:1058B000C0E052CF8DE090E00E949E46009729F014
:1058C0002DE0FC0111922A95E9F708952F923F925D
:1058D0004F925F926F927F928F929F92AF92BF9200
:1058E000CF92DF92EF92FF920F931F93CF93DF93AC
:1058F00000D000D0CDB7DEB78C016B010E948816B6
:10590000019619F48FEF9FEF1CC0D801ED91FC9127
:105910000284F385E02DC80119957C018F3F98071B
:1059200089F3D801ED91FC910684F785E02D682F6D
:10593000C8011995B2E2EB16F104E1F4B601C80111
:10594000F6DE26960FB6F894DEBF0FBECDBFDF9110
:10595000CF911F910F91FF90EF90DF90CF90BF906C
:10596000AF909F908F907F906F905F904F903F90FF
:105970002F900895EDE2EE16F10429F0C701C097CB
:105980000A9708F035C1D801ED91FC910284F385A6
:10599000E02DC80119957C018F3F980709F4B2CF1B
:1059A000992493948D9771F4D801ED91FC91028420
:1059B000F385E02DC80119957C0199249A940196EC
:1059C00009F4A0CFC701C097B12CA12C0A97C8F445
:1059D0009AE0892E8A9CC0018B9C900D1124E0E3F3
:1059E000EE1AF1085701A80EB91ED801ED91FC91ED
:1059F0000284F385E02DC80119957C01C0970A97B0
:105A000048F3BEE2EB16F10401F1C7018F7D853446
:105A10009105D9F0492D95014203C001439F900D96
:105A20001124D6011A969C938E93199783E01896A9
:105A30008C93D801ED91FC910684F785E02D6E2DB5
:105A4000C801199590E080E07CCFB501BB0C880BB4
:105A5000990B0E94CF422B013C01312C212CBEE23C
:105A6000EB16F10499F5D801ED91FC910284F385D0
:105A7000E02DC80119957C01312C212C20E030E06B
:105A800040E251E4C301B2010E940A432B013C01F0
:105A9000B70160537109072E000C880B990B0E9407
:105AA000CF42A30192010E9452442B013C01B1E07C
:105AB0002B1A3108D801ED91FC910284F385E02D79
:105AC000C80119957C01C0970A97C0F2C7018F7D64
:105AD0008534910509F040C0D801ED91FC91028414
