:100000000C9425020C9456020C9456020C94560241
:100010000C9456020C9456020C9456020C94560200
:100020000C9456020C9456020C9456020C947B24A9
:100030000C9456020C9456020C9456020C945602E0
:100040000C9456020C9456020C9456020C945602D0
:100050000C9456020C9456020C9456020C940624EE
:100060000C9456020C94D0230C94A6230C945602A4
:100070000C9456020C9456020C9456020C945602A0
:100080000C9456020C9456020C9456020C94502474
:100090000C9456020C9456020C9456020C94560280
:1000A0000C9456020C9456020C9456020C94560270
:1000B0000C9456020C9456020C9456020C94560260
:1000C0000C9456020C9456020C9456020C94560250
:1000D0000C9456020C9456020C9456020C94560240
:1000E0000C94560207634236B79BD8A71A39685654
:1000F00018AEBAAB558C1D3CB7CC5763BD6DEDFD4A
:10010000753EF6177231BF000000803F0800000006
:10011000BE922449123EABAAAA2ABECDCCCC4C3EFC
:1001200000000080BEABAAAAAA3E00000000BF00EB
:100130000000803F0000000000084178D3BB4387E7
:10014000D1133D190E3CC3BD4282AD2B3E68EC82FB
:1001500076BED98FE1A93E4C80EFFFBE01C4FF7F80
:100160003F00000000000C94AE020C94FA0C0C94BA
:10017000DE0B0C94C5080C94B90A0C94C12A0C949B
:10018000F4030C9426140C94A90A0C94B42A0C942D
:10019000EE0D0C941E050C942E050C942A120C9452
:1001A00016040C941D170C94F3040C9416100C9464
:1001B0009F020C94F4060C94060F0C9492050C9478
:1001C00025070C9408030C94C5060C9434100C9469
:1001D0008D050C9461140C946C090C946F050C94AF
:1001E0006D020C94DF030C94BA080C942A130C943F
:1001F00038050C94E6060C9479050C9470030C9465
:1002000024040C94DB2A0C946E120C94A4080C9415
:1002100090170C94C2020C946E100C94E9030C9489
:1002200083050C94FA030C94C8240C94B70A0C941C
:10023000D0020C946E0D0C940B120C9442050C948D
:1002400072020C94312F0C94FE030C94C50A0C948A
:1002500054120C94A72A0C941A040C94ED030C94D9
:1002600026050C94FD0D0C94E52A0C949B2A0C9405
:10027000BC0A0C940A050C94F1030C94C40A0C9467
:100280000D2A0C9404040C94BB090C94FB040C94EC
:100290001E070C945B050C941F040C94A3090C948A
:1002A0002B100C94E5030C94130D0C948D2A0C94D4
:1002B00020040C9400050C944C050C94C4130C946D
:1002C000AB090C940C040C9414050C9465050C9467
:1002D000350D0C9448130C94EF130C9471020C948C
:1002E00031110C94A7090C947C060C9429070C94EA
:1002F000AD0A0C9412040C94A8060C94CE2A0C940B
:100300000804000020002300260029002C002F00F4
:1003100032000001000003010601090100000A0B80
:1003200002090C0D0E080703040100000000000084
:1003300000000000000000000000000000000000BD
:10034000000000000000000012111000000000007A
:10035000000000000000000000000000000000009D
:1003600000000D0A003B412C0030002D003B4D2CBD
:10037000003B442C003B472C003B4E2C003B532CB5
:1003800000552C00510000002200250028002B0001
:100390002E003100340002010000050108010B01AC
:1003A00000002100240027002A002D003000330027
:1003B00001010000040107010A01010210202008C8
:1003C00008102040102040800201020108040201B0
:1003D000010204081020408080402010080402011F
:1003E0008004020180402010080402010804020178
:1003F00001020408102040800102040810204080FF
:1004000005050505070508080808020202020A0A90
:1004100008080404040401010101010101010303AE
:10042000030303030303040707070C0C0C0C0C0C59
:100430000C0C0202020206060606060606060B0B56
:100440000B0B0B0B0B0BC824312F11241FBECFEF4E
:10045000D1E2DEBFCDBF00E00CBF13E0A0E0B2E010
:10046000EAECF4E700E00BBF02C007900D92A8345D
:10047000B107D9F727E0A8E4B3E001C01D92AD327F
:10048000B207E1F712E0C4E2D2E000E006C0219733
:100490000109802FFE010E941835C332D10780E088
:1004A0000807A9F70E94BA250C94533A0C9400004F
:1004B0008CBD9DBD089520E3FC0120833296862FDC
:1004C00082958F706F706A3030F4605D6293682F30
:1004D0008111F5CF0895695CF9CFFC01818D928D72
:1004E00008950895AF92BF92CF92DF92EF92FF925C
:1004F0000F931F93CF93DF936C017B018B01040F4C
:10050000151FEB015E01AE18BF08C017D10759F0E7
:100510006991D601ED91FC910190F081E02DC60129
:100520001995892B79F7C501DF91CF911F910F9113
:10053000FF90EF90DF90CF90BF90AF900895FC01B7
:10054000538D448D252F30E0842F90E0821B930B38
:10055000541710F0CF96089501970895FC01918DDE
:10056000828D981761F0A28DAE0FBF2FB11D5D96E1
:100570008C91928D9F5F9F73928F90E008958FEF83
:100580009FEF0895FC01918D828D981731F0828D37
:10059000E80FF11D858D90E008958FEF9FEF08958E
:1005A000FC01918D228D892F90E0805C9F4F821BF2
:1005B00091098F739927089581EE95E00E94D002EA
:1005C00021E0892B09F420E0822F0895FC01A48DFD
:1005D000A80FB92FB11DA35ABF4F2C91848D90E065
:1005E00001968F739927848FA689B7892C93A08948
:1005F000B1898C91837080648C93938D848D9813D2
:1006000006C00288F389E02D80818F7D8083089564
:10061000EF92FF920F931F93CF93DF93EC0181E052
:10062000888F9B8D8C8D98131AC0E889F9898081F9
:1006300085FF15C09FB7F894EE89FF896083E8892C
:10064000F98980818370806480839FBF81E090E01E
:10065000DF91CF911F910F91FF90EF900895F62EAB
:100660000B8D10E00F5F1F4F0F731127E02E8C8D45
:100670008E110CC00FB607FCFACFE889F98980818A
:1006800085FFF5CFCE010E94E602F1CFEB8DEC0F96
:10069000FD2FF11DE35AFF4FF0829FB7F8940B8FA7
:1006A000EA89FB8980818062CFCF0F931F93CF931C
:1006B000DF938C01D0E0C0E0F801EC0FFD1F6491E6
:1006C000662341F081EE95E00E940803892B11F02A
:1006D0002196F2CFCE01DF91CF911F910F91089516
:1006E000CF93DF93EC01888D8823B9F0AA89BB8969
:1006F000E889F9898C9185FD03C0808186FD0DC054
:100700000FB607FCF7CF8C9185FFF2CF808185FF74
:10071000EDCFCE010E94E602E9CFDF91CF9108959F
:1007200080E090E0892B29F00E94DC0281110E9478
:10073000000080E090E0892B49F080E090E0892B78
:1007400029F00E94000081110E94000080E090E0EA
:10075000892B49F080E090E0892B29F00E9400006D
:1007600081110E94000080E090E0892B49F080E038
:1007700090E0892B29F00E94000081110C94000068
:1007800008958150823108F05AC0E82FF0E08827A0
:10079000E353FC4F8F4F0C941835ED03F103DF0347
:1007A000E503E9031F04F403FA03FE030404080449
:1007B0000C04120416041F041A042004240480915B
:1007C00080008F77809380000895809180008F7DD6
:1007D000F9CF80918000877FF5CF84B58F7784BD76
:1007E000089584B58F7DFBCF8091B0008F77809383
:1007F000B00008958091B0008F7DF9CF8091900076
:100800008F77809390000895809190008F7DF9CF2D
:1008100080919000877FF5CF8091A0008F778093A3
:10082000A00008958091A0008F7DF9CF8091A00055
:10083000877FF5CF809120018F77809320010895E5
:10084000809120018F7DF9CF80912001877FF5CFA6
:10085000CF93DF93282F30E0F901E45EFC4F8491C1
:10086000F901E654FC4FD491F901E050FC4FC491DA
:10087000CC23A1F081110E94C103EC2FF0E0EE0F18
:10088000FF1FEE5FFC4FA591B491EC91ED2381E049
:1008900090E009F480E0DF91CF91089580E090E04E
:1008A000FACF1F93CF93DF93282F30E0F901E45E56
:1008B000FC4F8491F901E654FC4FD491F901E050CA
:1008C000FC4FC491CC23A9F0162F81110E94C103C3
:1008D000EC2FF0E0EE0FFF1FEA57FC4FA591B4910B
:1008E0008FB7F894EC91111108C0D095DE23DC93FA
:1008F0008FBFDF91CF911F910895DE2BF8CFCF935B
:10090000DF9390E0FC01E654FC4F249180509C4F13
:10091000FC0184918823C9F090E0880F991FFC01A5
:10092000E056FC4FA591B491FC01EA57FC4FC591EC
:10093000D49161110DC09FB7F8948C9120958223BA
:100940008C938881282328839FBFDF91CF910895BE
:10095000623051F49FB7F8943C91822F80958323A5
:100960008C93E8812E2BEFCF8FB7F894EC912E2B40
:100970002C938FBFEACF1F93CF93DF93182FEB01F8
:1009800061E00E947F04209739F460E0812FDF91BD
:10099000CF911F910C945104CF3FD10511F461E028
:1009A000F5CFE12FF0E0E45EFC4FE491E150E2315D
:1009B00008F0B3C0F0E08827EF51FB4F8F4F0C9445
:1009C0001835F304FB0400050A0514058D051E0502
:1009D00026052E05380542054C055B0565058D0588
:1009E0006F057905830584B5806884BDC7BDDF9137
:1009F000CF911F91089584B5806284BDC8BDF7CFA3
:100A000080918000806880938000D0938900C0939B
:100A10008800EDCF80918000806280938000D09329
:100A20008B00C0938A00E3CF809180008860809320
:100A30008000D0938D00C0938C00D9CF8091B000FE
:100A400080688093B000C093B300D1CF8091B00094
:100A500080628093B000C093B400C9CF80919000B1
:100A6000806880939000D0939900C0939800BFCF86
:100A700080919000806280939000D0939B00C093FF
:100A80009A00B5CF80919000886080939000D093B9
:100A90009D00C0939C00ABCF8091A00080688093A4
:100AA000A0008091A0008F7B8093A000D093A9002C
:100AB000C093A8009CCF8091A00080628093A0008A
:100AC000D093AB00C093AA0092CF8091A000886021
:100AD0008093A000D093AD00C093AC0088CF8091EC
:100AE0002001806880932001D0932901C0932801C0
:100AF0007ECF80912001806280932001D0932B01D2
:100B0000C0932A0174CF80912001886080932001D6
:100B1000D0932D01C0932C016ACFC038D1050CF0C1
:100B20003ECF33CF6091B9047091BA0488E00E943F
:100B3000BB048091B9049091BA040B9734F482E01D
:100B400090E090930302809302028091B904909107
:100B5000BA048A3F910534F08EEF9FEF9093030221
:100B60008093020220910202309103028091B90425
:100B70009091BA04820F931F9093BA048093B904A2
:100B80006091B7047091B80487E00E94BB04809123
:100B9000B7049091B80497FD09C08091B704909173
:100BA000B80444979093B8048093B7048091B70435
:100BB0009091B804029734F481E090E09093B804E7
:100BC0008093B7046091BB047091BC0486E00E94DE
:100BD000BB048091BB049091BC0497FD09C0809137
:100BE000BB049091BC040A979093BC048093BB040F
:100BF0008091BB049091BC04029734F481E090E0B2
:100C00009093BC048093BB0408953FB7F8948091FF
:100C10005C0490915D04A0915E04B0915F0426B5E0
:100C2000A89B05C02F3F19F00196A11DB11D3FBF24
:100C3000BA2FA92F982F8827BC01CD01620F711DF3
:100C4000811D911D42E0660F771F881F991F4A95ED
:100C5000D1F708958F929F92AF92BF92CF92DF9279
:100C6000EF92FF924B015C010E9405066B017C0133
:100C70000E9405066C197D098E099F09683E734024
:100C800081059105A8F321E0821A9108A108B10815
:100C900088EEC80E83E0D81EE11CF11C811491047B
:100CA000A104B10429F7FF90EF90DF90CF90BF909F
:100CB000AF909F908F9008952FB7F894609158044B
:100CC0007091590480915A0490915B042FBF08954C
:100CD000FB0124813581428153812417350750F46B
:100CE000A081B181A20FB31F8C938481958101965D
:100CF0009583848380E00895CF93DF93EC01E881AE
:100D0000F9810284F385E02DCE0119950196B9F79A
:100D1000DF91CF910895CF93DF93EC01E881F981C2
:100D20000284F385E02DCE0119958F3F980769F075
:100D3000E881F981813291059CF30684F785E02DE5
:100D4000682FCE01199590E080E0DF91CF91089552
:100D5000FC01A285B3851097A9F086859785029737
:100D600088F0CD010196938782876C93868597855D
:100D70000197978786870284F385E02D108281E0B2
:100D800090E0089590E080E00895FC0186819781CD
:100D90008F3F980729F02FEF3FEF37832683089581
:100DA000A085B185109789F02485358521153105F9
:100DB00061F0CD010196918780878C912150310996
:100DC00035872487082E000C990B0895FC01868135
:100DD0009781019639F481E024853585232B19F418
:100DE00080E0089581E00895CF92DF92EF92FF9224
:100DF0000F931F93CF93DF937C016A018B01D0E0A7
:100E0000C0E0CC15DD0581F0D701ED91FC910284A5
:100E1000F385E02DC70119958F3F980729F0F80158
:100E200081938F012196EDCFCE01DF91CF911F915C
:100E30000F91FF90EF90DF90CF900895062E000C59
:100E4000770BFC01778366830895FC01848195818B
:100E50000895FC01A681B7819D012F5F3F4F8481DA
:100E6000958140855185840F951F2817390750F4C7
:100E7000378326836C930680F781E02D108281E012
:100E800090E0089590E080E00895FC0120812EBD5F
:100E90009B012150310941F051810DB407FEFDCF76
:100EA0004EB55EBD4193F5CF61507109860F971F16
:100EB0000DB407FEFDCF2EB5FC0120830895E0910F
:100EC0002D05F0912E05808190912C05892B808332
:100ED0000895E0912D05F0912E05908180912C05CB
:100EE00080958923808308958EBD00000DB407FE90
:100EF000FDCF8EB50895AF92BF92CF92DF92EF9261
:100F0000FF920F931F93CF93DF9300D000D01F92D7
:100F10001F92CDB7DEB78C017B016A01809130054D
:100F20008333E1F45801A40EB51EA016B10609F4EE
:100F30006FC00E94690780EF0E947407812F0E9492
:100F40007407802F0E9474070F5F1F4FF701819174
:100F50007F010E9474070E945F07E7CF5B01A40E28
:100F6000B51E8433C1F40E94690719830A838D2D4D
:100F700080688B83CC8264E070E0CE0101960E9491
:100F80004507AE14BF0409F441C0F70181917F0108
:100F90000E947407F6CF0E9469070F3F110509F000
:100FA00028F419820A8384E08B830CC017FD17C0D4
:100FB00019820A8333E0169507953A95E1F7007E8A
:100FC0000C600B8386E0C816D104A0F5F701DE01A2
:100FD0001496EA15FB0599F081918D93FACFC8011B
:100FE00026E0969587952A95E1F7807E19830A83F6
:100FF0000115104C10F48461D7CF8C61D5CFB601A8
:101000006D5F7F4FCE0101960E9445070E945F07EA
:10101000C60128960FB6F894DEBF0FBECDBFDF9194
:10102000CF911F910F91FF90EF90DF90CF90BF90E5
:10103000AF90089563E070E0CE0101960E944507ED
:10104000F70181917F010E947407AE14BF04C1F7BC
:10105000DDCFCF93DF931F92CDB7DEB7898341E019
:1010600050E0BE016F5F7F4F90E080E00E947B0701
:101070000F90DF91CF91089590E0209130052333B8
:1010800039F40C96982F990F990F990F80E00895D5
:101090004896F8CFDA01E0913105F0E0FE2FEE2717
:1010A000E60FF71F90E0982F8827A901BD018E0F4A
:1010B0009F1F0C947B07CF93DF931F921F92CDB796
:1010C000DEB779836A8322E030E0AE014F5F5F4F85
:1010D00060E170E00E944A080F900F90DF91CF917D
:1010E0000895CF93DF931F921F92CDB7DEB7798318
:1010F0006A8322E030E0AE014F5F5F4F64E070E052
:101100000E944A080F900F90DF91CF910895CF93DE
:10111000DF931F92CDB7DEB72091310530E0322F3B
:101120002227260F371F90E0982F8827498341E018
:1011300050E0BE016F5F7F4F820F931F0E947B07BD
:101140000F90DF91CF910895CF93DF931F92CDB78A
:10115000DEB76983DC01ED91FC910280F381E02D23
:1011600041E050E0BE016F5F7F4F19950F90DF9116
:10117000CF910895FC019485FB018485981303C0E9
:1011800081E0983008F080E00895CF93DF931F92BC
:10119000CDB7DEB76983DC01ED91FC910280F3816C
:1011A000E02D41E050E0BE016F5F7F4F19950F9039
:1011B000DF91CF91089544E050E0BC018FE090E0D2
:1011C0000C947B0744E050E0BC0185E090E00C9477
:1011D0007B0744E050E0BC0181E090E00C947B0789
:1011E00008950F931F93CF93DF9300D000D0CDB716
:1011F000DEB78C0180E591E00E9458028CE992E014
:101200009A838983F80182819381A481B5818B833C
:101210009C83AD83BE83CE0103960E94E20826968E
:101220000FB6F894DEBF0FBECDBFDF91CF911F91F7
:101230000F9108950F931F93CF93DF9300D000D0A9
:10124000CDB7DEB78C0180E591E00E9458028CE9B1
:1012500092E09A838983F80182819381A481B58188
:101260008B839C83AD83BE83CE0103960E94E908E5
:1012700026960FB6F894DEBF0FBECDBFDF91CF919B
:101280001F910F9108950F931F93CF93DF9300D079
:1012900000D0CDB7DEB78C0180E591E00E94580206
:1012A0008CE992E09A838983F80182819381A481F9
:1012B000B5818B839C83AD83BE83CE0103960E9450
:1012C000DB0826960FB6F894DEBF0FBECDBFDF91C8
:1012D000CF911F910F910895FF920F931F93CF937A
:1012E000DF93EB01FC01178A168A2A81211109C0BC
:1012F0002B81211106C02C81211103C02D812223B5
:1013000001F141155105E9F08A01FC01F08C80E5FD
:1013100091E00E945802AE014E5F5F4F24E030E042
:101320006CE070E08F2D0E944A08B8018F2D0E945A
:101330005B0881E090E0DF91CF911F910F91FF90CA
:10134000089580E0F7CFFC01848595850895FC0120
:101350008489958908952CE932E0FC01318320834A
:10136000FB014089518962897389FC01428353835F
:10137000648375830895DC01ED91FC91048CF58DF7
:10138000E02D1994CF92DF92EF92FF920F931F936B
:101390000E945C068B019C01C0905303D0905403C3
:1013A000E0905503F090560360914F037091500305
:1013B00080915103909152030C191D092E093F0988
:1013C000083E134021053105E0F0DC01CB01019618
:1013D000A11DB11D80934F0390935003A09351031F
:1013E000B0935203B701A60148515C4F6F4F7F4F36
:1013F00040935303509354036093550370935603E3
:10140000C7CF1F910F91FF90EF90DF90CF9008957D
:101410000F931F938091AF049091B004019709F04E
:1014200063C00E945C0600914B0310914C03209115
:101430004D0330914E03061717072807390708F0A8
:1014400053C00E945C0666507F4F8F4F9F4F609342
:101450004B0370934C0380934D0390934E03409144
:10146000CD04442319F08091A80481111092A8049E
:101470002091490330914A038FEF9FEF20313105CE
:101480002CF42230310534F481E090E09093010295
:10149000809300028091000290910102820F931FBD
:1014A00090934A038093490341111BC080914803E4
:1014B0008F5F80934803809148038531A8F0809125
:1014C0000402882389F061E082E00E94510461E017
:1014D00082E00E947F0460E082E01F910F910C94F3
:1014E000510410924803E7CF1F910F9108950F9375
:1014F0001F93CF93DF93EC01FC0110E000E00F5F3E
:101500001F4F81918111FBCF0C0F1D1F20E030E098
:10151000A901C017D107B1F0E99180ED8E0F8A3093
:10152000C0F7AAE0B0E00E9486324E2F4053550B20
:101530009A01032E000C440B550B260F371F481F32
:10154000591FE7CFCA01B901DF91CF911F910F91C8
:101550000895FC01768765870895DC01ED91FC9183
:10156000068CF78DE02D199591E089270895862F37
:10157000089581E08627089521E0FC018485883064
:1015800008F020E0822F0895089590E080E008950B
:101590000F931F93CF93DF93EC012097F9F00A810B
:1015A0001B81888587FD06C08E819F81009711F081
:1015B0000E94C80A8885853031F489859A8500970C
:1015C00011F00E94C33588819981009711F00E9423
:1015D000C335CE010E94C335E801DFCFDF91CF9143
:1015E0001F910F910895FC0180819181009711F066
:1015F0000C94C3350895AF92BF92CF92DF92EF92D1
:10160000FF920F931F93CF93DF9359018B017B01BF
:10161000E40EF51ECBE9D5E0C82E880FDD08A50144
:1016200070E060E0CE010E94D92FF80161938F0134
:10163000B601CE010E945D37009749F0FC01208180
:10164000222329F0EC0121960E151F0541F7DF91A9
:10165000CF911F910F91FF90EF90DF90CF90BF90AF
:10166000AF900895FB0101900020E9F73197AF0199
:10167000461B570BDC01ED91FC910280F381E02DBC
:101680001994CF93DF93FC0144815581608171816E
:1016900081EE95E00E947202EC016AEA72E081EE4E
:1016A00095E00E94320B8C0F9D1FDF91CF91089522
:1016B0008F929F92AF92BF92EF92FF920F931F93E0
:1016C000CF93DF93CDB7DEB7A1970FB6F894DEBF07
:1016D0000FBECDBF7C01FA01CB0119A2223008F464
:1016E0002AE08E010F5D1F4F822E912CB12CA12C70
:1016F000BF01A50194010E944532F901CA016A3077
:101700000CF5605DD8016E938D01232B242B252BC6
:1017100079F790E080E0109721F0BD01C7010E94A9
:10172000320BA1960FB6F894DEBF0FBECDBFDF918E
:10173000CF911F910F91FF90EF90BF90AF909F902E
:101740008F900895695CDECFCF92DF92EF92FF9287
:101750000F931F93CF93DF936B01770FEE08FF0872
:10176000F7FE1FC0EC01E881F9810190F081E02DC6
:101770006DE219958C0144275527BA014C195D0972
:101780006E097F092AE0CE010E94580B800F911F3D
:10179000DF91CF911F910F91FF90EF90DF90CF904D
:1017A00008952AE0B701A601DF91CF911F910F9113
:1017B000FF90EF90DF90CF900C94580B8F929F92F8
:1017C000AF92BF92CF92DF92EF92FF920F931F934F
:1017D000CF93DF937C01EB016C0182E0C80ED11C3A
:1017E0004701E5E08E0E911C10E000E0F60141910A
:1017F0006F0150E070E060E02AE0CE010E94580BDB
:101800005C01E881F9810190F081E02D6EE2CE016A
:1018100019958A0D9B1D080F191FC814D90431F79B
:10182000F701458150E070E060E02AE0CE010E94BF
:10183000580B800F911FDF91CF911F910F91FF9057
:10184000EF90DF90CF90BF90AF909F908F900895D2
:101850000C94320BAF92BF92CF92DF92EF92FF9235
:101860000F931F93CF93DF9300D01F92CDB7DEB7B6
:101870008C016B017A01809130058333E9F45B01BF
:101880006801C40ED51EC016D106A9F10E946907D1
:101890008FE00E947407812F0E947407802F0E949E
:1018A00074070F5F1F4F80E00E947407F50181935A
:1018B0005F010E945F07E7CF843369F50E946907E3
:1018C00019830A838F2D8F778B83EC8264E070E01D
:1018D000CE0101960E944507A70170E060E0C601B5
:1018E0000E944337E114F10421F0B701C6010E94C0
:1018F00045070E945F07C7010F900F900F900F9050
:10190000DF91CF911F910F91FF90EF90DF90CF90DB
:10191000BF90AF9008950E9469070F3F110509F02D
:1019200030F419820A831B8263E070E0D1CF17FD87
:101930000BC019820A8333E0169507953A95E1F7B3
:10194000007E08600B83F0CFC80126E0969587954E
:101950002A95E1F7807E19830A830115104C18F44B
:1019600080618B83E1CF8861FCCFCF93DF931F929F
:10197000CDB7DEB72091310530E0322F2227260F78
:10198000371F90E0982F882741E050E0BE016F5F3D
:101990007F4F820F931F0E942A0C89810F90DF9145
:1019A000CF910895CF93C82F462F61E070E00E9439
:1019B000870861E070E08C2F0E94B50C8111F9CF8F
:1019C000CF910895CF93C82F80E591E00E945802EF
:1019D00068E070E08C2FCF910C94D20CCF93C82F7D
:1019E00080E591E00E94580260E170E08C2FCF9179
:1019F0000C94D20CCF93DF93EC01888D883020F4C7
:101A00000E94EE0C88E0888FDF91CF910895CF93EC
:101A1000C82F80E591E00E94580263E070E08C2FAF
:101A2000CF910C94B50CCF93DF93EC018C8588306B
:101A3000D0F40E94070D843189F0882379F0883131
:101A400069F021E08C3159F4E881F9810084F18555
:101A5000E02DCE01199521E0892B09F420E0822F99
:101A6000DF91CF91089580E0FBCFCF92DF92EF928C
:101A7000FF92CF93DF93EC018C85883068F40E944D
:101A8000E20C0E945C066B017C018C850E94070DB4
:101A9000811109C088E08C87DF91CF91FF90EF9092
:101AA000DF90CF90089561E070E080E090E00E94C8
:101AB0002A060E945C06AB01BC014C195D096E0947
:101AC0007F098D859E85B0E0A0E0481759076A0719
:101AD0007B07D8F28C850E94EE0CDCCFCF93FC0103
:101AE000C08D80E591E00E94580260E270E08C2F8A
:101AF0000E94D20C62E070E08C2F0E94B50C84FD35
:101B000016C062E070E08C2F0E94B50C83FF0AC003
:101B100048E162E070E08C2F0E94870880E090E04E
:101B2000CF91089580E591E00E945802E3CF40E113
:101B300062E070E08C2F0E94870881E0F0CFCF93A5
:101B4000DF931F92CDB7DEB741E050E0BE016F5F7B
:101B50007F4F90E080E00E942A0C89810F90DF91F6
:101B6000CF910895CF93DF93C4E1D0E00E949F0D01
:101B7000882361F061E070E080E090E00E942A0636
:101B80002197A1F780E0DF91CF91089581E0FBCF0D
:101B90001F93CF93DF931F92CDB7DEB7182F80E549
:101BA00091E00E945802812F0E943C0827E0129F7A
:101BB000F0011124EC50FB4F22813381377041E05A
:101BC00050E0BE016F5F7F4F820F931F0E942A0C6F
:101BD00089810F90DF91CF911F910895FC01808D35
:101BE000883040F4218D328D232B21F00E94C80DC6
:101BF00090E008958FEF9FEF0895CF93DF93FC015E
:101C00002485283028F08FEF9FEFDF91CF91089542
:101C1000EC010190F081E02D0084F185E02D199513
:101C2000892B89F38C850E94C80D90E0EECFDA01F4
:101C3000E0913105F0E0FE2FEE27E60FF71F90E070
:101C4000982F8827A901BD018E0F9F1F0C942A0C85
:101C50008F929F92AF92BF92CF92DF92EF92FF92BC
:101C60000F931F93CF93DF93CDB7DEB760970FB677
:101C7000F894DEBF0FBECDBF7C019091300591116D
:101C800015C018E0812F60960FB6F894DEBF0FBE26
:101C9000CDBFDF91CF911F910F91FF90EF90DF901B
:101CA000CF90BF90AF909F908F90089508E09333AE
:101CB00009F404E06B0180E591E00E9458029E0166
:101CC0002F5F3F4F5901490110E063E070E0812F21
:101CD0000E94B50CF40181934F018823C1F01F5F6E
:101CE0000113F3CF00E0F50181915F018D3149F0DF
:101CF000883139F08A51823020F00F5F1013F3CF12
:101D0000C0CF60E170E0802F0E94D20C102FA12E76
:101D1000B12C83EE93E00197F1F742E870E060E0C8
:101D2000812F0E9487084FEF62E070E0812F0E94B0
:101D30008708B601C114D10491F4809105029091F5
:101D4000060201968115F0EC9F0708F45CC09093A1
:101D50000602809305026091050270910602812FB0
:101D60000E94710886E0E2E1F2E0DE01199601903E
:101D70000D928A95E1F7F70183818F778C878481B3
:101D80008D8785818E87A7014E5F5F4F24E030E00D
:101D90006CE070E0812F0E944A08B601812F0E94FA
:101DA0005B0826E030E0AE01475F5F4F66E070E021
:101DB000812F0E944A0861E070E0812F0E94D20CBE
:101DC00027E02A9DC0012B9D900D11249C012C50D1
:101DD0003B4F7901F9011182108222E030E0AE011F
:101DE000415F5F4F68E270E0812F0E94170E8F8580
:101DF0009889982789279827F701938382831682E9
:101E0000158214823FCF80E090ECA1CFCF92DF9279
:101E1000EF92FF920F931F93CF93DF9300D000D0E8
:101E2000CDB7DEB78C016B017A01FC01808D883063
:101E300010F40E94EE0C8CE992E09A838983F601FB
:101E400082819381A481B5818B839C83AD83BE8382
:101E5000B701CE0101960E94280EF801808F8830CC
:101E6000A0F4F586E486128E118E81E026960FB6D8
:101E7000F894DEBF0FBECDBFDF91CF911F910F91C0
:101E8000FF90EF90DF90CF90089580E0EFCF7F92AA
:101E90008F929F92AF92BF92CF92DF92EF92FF927A
:101EA0000F931F93CF93DF931F921F92CDB7DEB78F
:101EB000782E8B014A01590122E030E0AE014F5FDC
:101EC0005F4F64E270E00E94170EE980FA80FE2402
:101ED000EF24FE24E00EF11E97013770409130058B
:101EE000072D10E0433309F042C0085F1F4F102F49
:101EF0000027110F110F110FC901800F911F4733D8
:101F0000C9F1A9014A0D5B1D4130584098F160E0CC
:101F100078E06B01C21AD30AA601B4010E947B07C4
:101F2000A5014C195D09B4016C0D7D1DC8010E940D
:101F30007B07EA0CFB1CF982EA8222E030E0AE016A
:101F40004F5F5F4F64E270E0872D0E944A080F9058
:101F50000F90DF91CF911F910F91FF90EF90DF9045
:101F6000CF90BF90AF909F908F907F900895005F2B
:101F70001F4FBDCFA501B401DACFEF92FF921F939F
:101F8000CF93DF931F921F92CDB7DEB7182F22E0B9
:101F900030E0AE014F5F5F4F60E270E00E94170ECD
:101FA000E980FA80FE24EF24FE2422E030E0AE0136
:101FB0004F5F5F4F60E270E0812F0E94170E8981B2
:101FC0009A81982789279827E816F90689F487E0E7
:101FD000189FF0011124EC50FB4FF582E482C701F9
:101FE0000F900F90DF91CF911F91FF90EF90089588
:101FF0007C01DBCF1F93CF93DF93182F80E591E017
:102000000E945802812F0E94BD0FEC0163E070E036
:10201000812F0E94B50C873121F08C3111F0D0E076
:10202000C0E0CE01DF91CF911F910895CF93DF9350
:10203000EC018C85883060F40E94070D873111F027
:102040008C3131F48C850E94FA0F8115984088F309
:10205000DF91CF910895FC018485883010F40C94B1
:10206000FA0F90E080E008959F92AF92BF92CF92D6
:10207000DF92EF92FF920F931F93CF93DF938C0128
:102080005B01942EE52EFC01C688D788F08C80E594
:1020900091E00E9458028F2D0E94BD0FC92DDE2DA8
:1020A0008C179D0708F4EC019E01A501B6018F2D48
:1020B0000E94470FF801868997898C0F9D1F978B87
:1020C000868BCE01DF91CF911F910F91FF90EF9002
:1020D000DF90CF90BF90AF909F9008958F929F9286
:1020E000AF92BF92CF92DF92EF92FF920F931F9326
:1020F000CF936C015B018A01FC01C485C830F0F507
:102100007A014130584018F0E12C88E0F82E80E543
:1021100091E00E9458028C2F0E94BD0F4C0163E099
:1021200070E08C2F0E94B50C873111F08C3149F58D
:102130008E149F0460F380E591E00E94580297019D
:10214000A50170E060E08C2F0E94470F60E270E014
:102150008C2F0E94D20C62E070E08C2F0E94B50C94
:1021600084FD17C063E070E08C2F0E94B50C8111D4
:102170000BC081E090E0F6019383828310E000E0E1
:1021800010C0F12CE12CD7CF80E591E00E945802DD
:10219000E2CF40E162E070E08C2F0E948708EF28D8
:1021A00041F3C801CF911F910F91FF90EF90DF9005
:1021B000CF90BF90AF909F908F900895FF920F9314
:1021C0001F93CF93DF931F921F92CDB7DEB7F82EE8
:1021D00022E030E0AE014F5F5F4F66E270E00E94A8
:1021E000170E09811A8110270127102722E030E0FD
:1021F000AE014F5F5F4F66E270E08F2D0E94170EB9
:1022000089819A819827892798270817190749F4FF
:10221000C8010F900F90DF91CF911F910F91FF9008
:1022200008958C01E3CF1F93CF93DF93182F87E09E
:10223000189FE0011124CC50DB4F888199810097D1
:1022400061F480E591E00E945802812F0E94DE1027
:102250002E81821B910999838883DF91CF911F91F1
:102260000895FC018485883010F40C94131190E0DB
:1022700080E008954F925F927F928F929F92AF92EB
:10228000BF92CF92DF92EF92FF920F931F93CF9363
:10229000DF931F921F92CDB7DEB7782E6B014A01F4
:1022A000A82EB12C27E0829FC0011124FC01EC5024
:1022B000FB4F7F010081118180E591E00E9458026F
:1022C0000815190554F4872D0E94DE10F7012681A8
:1022D0008C01021B1109118300830115110529F5D9
:1022E00063E070E0872D0E94B50C843159F088239B
:1022F00049F001E010E08C3111F410E000E011959C
:1023000001951109C8010F900F90DF91CF911F9196
:102310000F91FF90EF90DF90CF90BF90AF909F9084
:102320008F907F905F904F900895801691060CF4E7
:10233000840187E08A9DF0018B9DF00D1124EC5003
:10234000FB4FE280F380C114D10451F12701F7E083
:102350005F22872D0E943C08840D951D2091300539
:10236000273309F453C09801240D351D213038401E
:1023700008F44CC020E038E0490184189508A40115
:10238000B6010E942A0C2601480C591C6801C81885
:10239000D908872D0E943C08A601B2010E942A0C90
:1023A000E00EF11E87E08A9DF0018B9DF00D112457
:1023B000EC50FB4FF382E28220813181201B310BF4
:1023C000318320838681800F912F911D8A3F910553
:1023D00010F4232BF1F487E08A9DF0018B9DF00D22
:1023E0001124EC50FB4F1682F982EA8222E030E0A1
:1023F000AE014F5F5F4F68E270E0872D0E944A0890
:1024000060E470E0872D0E94D20C7CCFA801B60159
:10241000C5CF868377CFCF93DF93FC01218D328D9B
:102420002115310529F48FEF9FEFDF91CF910895AA
:10243000EC01808D4217530708F0A9010E943A1160
:102440001816190684F7298D3A8D281B390B3A8FF7
:10245000298FEBCF0F931F93CF93DF931F92CDB7AD
:10246000DEB7FC01218D328D232B41F48FEF9FEFDE
:102470000F90DF91CF911F910F9108958C0141E052
:1024800050E0BE016F5F7F4FFC01808D0E943A11CA
:10249000181619065CF7F801818D928D0197928FBD
:1024A000818F898190E0E4CFCF93DF931F92CDB7E6
:1024B000DEB741E050E0BE016F5F7F4FFC018485D5
:1024C0000E943A111816190634F4898190E00F9091
:1024D000DF91CF9108958FEF9FEFF9CFFC018485B5
:1024E000883010F40C943A1190E080E008958F92B7
:1024F0009F92AF92BF92CF92DF92EF92FF920F9393
:102500001F93CF93DF9300D000D000D01F92CDB7A0
:10251000DEB790913005911115C018E0812F2A96F1
:102520000FB6F894DEBF0FBECDBFDF91CF911F91E4
:102530000F91FF90EF90DF90CF90BF90AF909F9062
:102540008F90089528E0F22E933311F494E0F92E41
:102550006B01082F80E591E00E9458029E012F5FD9
:102560003F4F5901490110E063E070E0812F0E9464
:10257000B50CF40181934F018823C1F01F5FF11264
:10258000F3CFF12CF50191915F019D3149F0983124
:1025900039F09A51923020F0F3941F11F3CFBDCF50
:1025A00060E170E08F2D0E94D20C1F2DE12EF12CE6
:1025B00083EE93E00197F1F7402F70E060E0812F08
:1025C0000E9487084FEF62E070E0812F0E94870829
:1025D000B601CD2889F480910502909106020196FA
:1025E0008115F0EC9F0798F1909306028093050205
:1025F0006091050270910602812F0E94710861E0CE
:1026000070E0812F0E94D20C27E02E9DC0012F9DEB
:10261000900D11249C012C503B4F7901F90111823E
:10262000108222E030E0AE01475F5F4F68E270E069
:10263000812F0E94170E89859A85982789279827C8
:10264000F7019383828316821582148267CF80E01C
:1026500090ECCACF0F931F93CF93DF93EC018B01C4
:10266000888D883010F40E94EE0CB80182E00E9440
:102670007712888F883050F41D870C871A8E198E38
:1026800081E0DF91CF911F910F91089580E0F9CF04
:10269000CF92DF92EF92FF921F93CF93DF93EC01E3
:1026A0007B016A018C85883048F40E94070D8823DD
:1026B00019F08C850E94E20C88E08C87F7018281FA
:1026C0009381A481B5810097A105B10551F490E0F3
:1026D00080E0DF91CF911F91FF90EF90DF90CF903E
:1026E00008958F3F9F4FAF4FBF4F89F370E060E079
:1026F00081E20E947712182F8C87883040F780E59E
:1027000091E00E945802A7014E5F5F4F24E030E045
:102710006CE070E0812F0E944A08B601812F0E9470
:102720005B0864E070E0812F0E94D20C0E945C067E
:102730006B017C018C850E94070D873111F18C3172
:1027400001F1882321F20E945C06AB01BC014C1907
:102750005D096E097F098D859E85B0E0A0E0841734
:102760009507A607B70738F061E070E080E090E0D9
:102770000E942A06DFCF8C850E94EE0C88E08C87B1
:10278000A6CF81E090E0A5CF0F931F93CF93DF9367
:102790001F921F92CDB7DEB7FC0124852830E0F4EC
:1027A0008C0180E591E00E94580222E030E0AE0109
:1027B0004F5F5F4F60E170E0F80184850E94170E63
:1027C00089819A819827892798270F900F90DF9108
:1027D000CF911F910F91089590E080E0F6CF0F9375
:1027E0001F93CF93DF931F921F92CDB7DEB7FC01EB
:1027F00024852830E0F48C0180E591E00E945802A5
:1028000022E030E0AE014F5F5F4F64E070E0F8011E
:1028100084850E94170E89819A8198278927982795
:102820000F900F90DF91CF911F910F91089590E03D
:1028300080E0F6CFDC018CE992E08D939D9384E0FB
:10284000FB0101900D928A95E1F70895EF92FF92B6
:102850000F931F93CF93DF9300D01F92CDB7DEB7B6
:102860008C017B01FB0184858830A8F08CE992E023
:10287000F801918380831282138214821582C80129
:102880000F900F900F900F90DF91CF911F910F91AC
:10289000FF90EF90089580E591E00E94580224E0B7
:1028A00030E0AE014F5F5F4F6CE070E0F701848570
:1028B0000E94170EBE016F5F7F4FC8010E941A145D
:1028C000DECF0F931F93CF93DF9300D000D01F92E2
:1028D0001F92CDB7DEB78C01D80159964D915C910E
:1028E0005A974115510551F0ED91FC91048CF58DED
:1028F000E02D70E060E0C8011995EECFF801808D01
:102900000E941311892BB1F148E050E0BE016F5FC6
:102910007F4FD80158968C910E943A1118161906CB
:10292000F4F4D801509684E0FE01319601900D92A6
:102930008A95E1F78D8190E0982F88272E81820F6C
:10294000911DF801958B848B8F81282F30E0322FD9
:1029500022278885820F932F911D928F818F289631
:102960000FB6F894DEBF0FBECDBFDF91CF911F91A0
:102970000F91089590E080E0F2CF4F925F926F92B6
:102980007F928F929F92AF92BF92CF92DF92EF92FF
:10299000FF920F931F93CF93DF93CDB7DEB763976B
:1029A0000FB6F894DEBF0FBECDBF7C016B013A01BC
:1029B000FB0120E090E080E06AE03191332309F4EC
:1029C00061C040ED430F4A3008F04DC0689FA00140
:1029D000699F500D1124CA01C097830F911D37FDC7
:1029E0009A958F3F910549F340F3F7014281538156
:1029F000648175818091AA069091AB06A091AC0686
:102A0000B091AD06481759076A077B0709F40DC254
:102A10008701085F1F4F0E945C066F7077277C5FFD
:102A2000C8010E942A13813009F004C28CE992E0A7
:102A30009A838983F70182819381A481B5818B83F5
:102A40009C83AD83BE8345E350E0BE016F5F7F4F43
:102A5000C8010E946C09892BA9F5D12CC12CC80191
:102A60000E94FA0C17C03E3209F0BFCF233009F4A0
:102A7000BCCFD301A20FB11D12968C932F5F90E0B3
:102A800080E09BCF233009F0B0CFF3018583CC24C5
:102A9000C394D12CC60163960FB6F894DEBF0FBE67
:102AA000CDBFDF91CF911F910F91FF90EF90DF90FD
:102AB000CF90BF90AF909F908F907F906F905F90DE
:102AC0004F9008950E945C06F7017783668342E089
:102AD00050E0B7016A5F7F4FC8010E94341081E067
:102AE00090E09A83898342E050E0BE016F5F7F4FA0
:102AF000C8010E94341080E091E09A83898342E00B
:102B000050E0BE016F5F7F4FC8010E9434101A82EF
:102B1000198242E050E0BE016F5F7F4FC8010E9402
:102B2000341042E050E0BE016F5F7F4FC8010E9449
:102B3000341042E050E0BE016F5F7F4FC8010E9439
:102B400034105601F6018081882301F16501F601F8
:102B500081912F01882311F08E32B1F446018A1839
:102B60009B081814190474F48D8641E050E0BE01EE
:102B7000635F7F4FC8010E943410A401B501C801F2
:102B80000E9434105201DECF6201E1CF1D8641E088
:102B900050E0BE01635F7F4FC8010E943410C12C1A
:102BA000DD24D394DA82C98242E050E0BE016F5F37
:102BB0007F4FC8010E943410DA82C98242E050E09F
:102BC000BE016F5F7F4FC8010E943410C8010E9490
:102BD0006E0D892B09F441CFF3E0AF2EB12C230108
:102BE00022E0420E511CD4C0F7014281538164811E
:102BF0007581808D918DA28DB38D481759076A0715
:102C00007B0709F008C1848D958DC59709F003C134
:102C100081A192A15DEFC52EDD24DA940C970CF40E
:102C2000ADC04CE050E0BE016F5F7F4FC8010E9415
:102C30000B128B819C819827892798279A8B898BE7
:102C4000F7014681578129813A814217530709F0DC
:102C5000E7C097FFE5C08F7092703BEFC32EDD2475
:102C6000DA94892B09F08AC06F80788476246724EF
:102C700076242AEFC22EDD24DA946114710409F45B
:102C80007DC0D12CC12C8D819E81982789279827C2
:102C9000C816D906F8F441E050E0BE01635F7F4FEB
:102CA000C8010E940B124D85442331F050E070E0C2
:102CB00060E0C8010E940B128D858111ECCF44E0C9
:102CC00050E070E060E0C8010E940B12FFEFCF1AE5
:102CD000DF0AD9CF912C812C41E050E0BE016D5E1E
:102CE0007F4FC8010E940B124B89842F807C09F012
:102CF0006CC0442331F050E070E060E0C8010E94F5
:102D00000B128B898111E8CF42E050E0BE01615F78
:102D10007F4FC8010E940B1242E050E0BE01635F8A
:102D20007F4FC8010E940B1244E050E070E060E069
:102D3000C8010E940B1242E050E0BE016F5E7F4F5F
:102D4000C8010E940B128F85988949895A8981157B
:102D5000914009F043C0CD84DE84DC24CD24DC2402
:102D600081E0C816D104D1F54115544009F04AC09C
:102D700044E050E0B201C8010E940B1221E0A21A07
:102D8000B10809F46CCEFFEFCF16DF0609F067CE6D
:102D90000E945C063B014C01C8010E946114181698
:102DA00019060CF421CF0E945C0666197709880980
:102DB0009909693873418105910548F562E370E02E
:102DC00080E090E00E942A06E7CF41E050E070E00A
:102DD00060E0C8010E940B121B8A93CF542745273D
:102DE000542770E060E0C8010E940B12FFEF8F1AB9
:102DF0009F0A6814790409F06FCF96EFC92EDD247D
:102E0000DA94BCCFE7EFCE2EDD24DA94B7CFCC2412
:102E1000CA94DC2CB3CF6EEFC62EDD24DA94AECF8D
:102E20004CEFC42EDD24DA94A9CF8EEFC82EDD241A
:102E3000DA9430CED12CC12C2DCECF92DF92EF92EE
:102E4000FF920F931F93CF93DF93CDB7DEB7AF976A
:102E50000FB6F894DEBF0FBECDBF7C016A010CE94E
:102E600012E01A8309831C861B8688EE93E0A0E09B
:102E7000B0E08D879E87AF87B88B82E392E09A8718
:102E80008987188F0F8B198E1A8E1B8E1C8E88E0E7
:102E900089A31BA70AA71CA61DA61EA61FA6809174
:102EA0009E0690919F06A091A006B091A1068EA3C8
:102EB0009FA3A8A7B9A78B839C83AD83BE831886E5
:102EC0001F82AE01465D5F4FCE0101960E94BD1488
:102ED00081309105B1F4D701ED91FC910488F58919
:102EE000E02D1DA30CA38CA59DA5AEA5BFA58EA30B
:102EF0009FA3A8A7B9A7A601BE016C5D7F4FC7011C
:102F00001995AF960FB6F894DEBF0FBECDBFDF9117
:102F1000CF911F910F91FF90EF90DF90CF90089588
:102F2000CF92DF92EF92FF920F931F93CF93DF9395
:102F3000CDB7DEB7AF970FB6F894DEBF0FBECDBFEB
:102F40008C016B017A018CE992E09A8389831B8260
:102F50001C821D821E821C861B8648EE53E060E0A8
:102F600070E04D875E876F87788B22E332E03A8787
:102F70002987988F8F8B198E1A8E1B8E1C8E28E0B6
:102F800029A39BA78AA71CA61DA61EA61FA6D8011B
:102F90001C968C91883060F40E94070D882321F0E4
:102FA000F80184850E94E20C88E0D8011C968C937D
:102FB00080919E0690919F06A091A006B091A106D7
:102FC0008EA39FA3A8A7B9A78B839C83AD83BE8341
:102FD00018861F82AE01465D5F4FB601CE01019695
:102FE0000E94BD140097C1F0D801ED91FC910684B8
:102FF000F785E02D8CE992E09DA38CA38CA59DA57F
:10300000AEA5BFA58EA39FA3A8A7B9A7A701BE0180
:103010006C5D7F4FC8011995AF960FB6F894DEBF6F
:103020000FBECDBFDF91CF911F910F91FF90EF9019
:10303000DF90CF9008957F928F929F92AF92BF9230
:10304000CF92DF92EF92FF920F931F93CF93DF9374
:10305000CDB7DEB7A6970FB6F894DEBF0FBECDBFD3
:103060008C01762E942E852E20E2A22ECE01019682
:103070007C01DC01EA2D1D92EA95E9F76801F3E491
:10308000CF0ED11C8CE992E09AA389A38FEF8BA37A
:103090008CA38DA38EA343E450E0BE016F5D7F4FF0
:1030A000C6010E946C09019609F4BFC081E08983C2
:1030B0008A8386E0B82EBB821C82D80114966D915B
:1030C0007D918D919C9117970E9420356D837E8311
:1030D0008F83988789869A8680E890E09C878B8783
:1030E0004CE150E0B701C6010E943410FE01379652
:1030F0008AE1DF011D928A95E9F74801B8E08B0E5D
:10310000911CF401D70101900D92BA94E1F740E1CE
:1031100050E0B701C6010E943410F7011192AA9441
:10312000E9F796E0A92EB12C40E250E0B701C601C4
:103130000E943410F1E0AF1AB108B1F783E6898339
:1031400092E89A8393E59B838C8385E38D8381E06A
:103150008E837F829DE3988797E099878A8786E0B0
:10316000F401DE011B9601900D928A95E1F78CE047
:10317000898B8A8B6DEA72E0CE0143960E94683794
:10318000D8011B966C91CE0149960E945B02F80112
:103190006485CE014B960E945B02D8011D966C910E
:1031A000CE014D960E945B024EE150E0B701C60190
:1031B0000E943410B3E07B121EC082E3898384E056
:1031C0008A83F80196859B8397859C8390899D834C
:1031D00091899E8396E39F838887828D8987838DDB
:1031E0008A87848D8B87858D8C874CE050E0B70172
:1031F000C6010E94341087E3898386E08A8391E0C8
:103200009B8393E09C838D838FE08E838AE38F83FF
:103210008BE388878FEF898749E050E0B701C601CB
:103220000E943410C6010E946E0DA6960FB6F89447
:10323000DEBF0FBECDBFDF91CF911F910F91FF90E9
:10324000EF90DF90CF90BF90AF909F908F907F9046
:1032500008950F931F93CF93DF93EC018881998199
:10326000009759F02A813B812617370730F081E01B
:10327000DF91CF911F910F9108958B016F5F7F4F69
:103280000E944C36009759F0998388831B830A83E8
:103290002C813D81232B59F7FC011082E8CF80E07F
:1032A000E7CFEF92FF920F931F93CF93DF93EC0141
:1032B000FB01E080F180E114F10411F1048115813A
:1032C00001151105A9F08C819D81080F191FB80106
:1032D000CE010E942919882399F0288139818C8197
:1032E0009D81B701820F931F0E9468371D830C8355
:1032F000CE01DF91CF911F910F91FF90EF90089534
:1033000088819981009711F00E94C3351982188233
:103310001D821C821B821A82EBCFEF92FF920F93C9
:103320001F93CF93DF93EC017B018A01BA010E94C6
:10333000291928813981811114C02115310519F00D
:10334000C9010E94C335198218821D821C821B820A
:103350001A82CE01DF91CF911F910F91FF90EF90D4
:1033600008951D830C83B701C9010E946837F1CF0E
:10337000EF92FF920F931F93CF93DF9300D000D073
:1033800000D0CDB7DEB78C01862FF80111821082F4
:1033900013821282158214824AE09E012F5F3F4FF2
:1033A0007901B90190E00E94E530F7010190002019
:1033B000E9F73197AF014E195F09B701C8010E94C3
:1033C0008D1929960FB6F894DEBF0FBECDBFDF91E1
:1033D000CF911F910F91FF90EF900895FC01118202
:1033E00010821382128215821482FB010190002048
:1033F000E9F73197AF01461B570B0C948D19EF92EB
:10340000FF920F931F93CF93DF93CDB7DEB7E09773
:103410000FB6F894DEBF0FBECDBF8C017B01FB0160
:103420006581CE018B960E94B81964EB72E0CE01E3
:1034300085960E94EE19F7016481CE014F960E9495
:10344000B81964EB72E0CE0149960E94EE19F701BB
:103450006381CE0143960E94B81964EB72E0CE01FD
:103460000D960E94EE19F7016281CE0101960E942D
:10347000B81918861F821A8619861C861B866981D0
:103480007A816115710531F04D815E81CE0107961B
:103490000E948D19BE01635F7F4FCE0107960E9487
:1034A0005119BE016D5E7F4F0E945119BE01675ECA
:1034B0007F4F0E945119BE01615E7F4F0E945119DA
:1034C000BE016B5D7F4F0E945119BE01655D7F4F4C
:1034D0000E945119F8011182108213821282158202
:1034E00014828017910759F0FC0160817181611588
:1034F000710529F044815581C8010E948D19CE01C2
:1035000007960E94F30ACE0101960E94F30ACE01AB
:103510000D960E94F30ACE0143960E94F30ACE0153
:1035200049960E94F30ACE014F960E94F30ACE01FB
:1035300085960E94F30ACE018B960E94F30AC80179
:10354000E0960FB6F894DEBF0FBECDBFDF91CF91EE
:103550001F910F91FF90EF900895CF92DF92EF921D
:10356000FF920F931F93CF93DF937C016B01DC01DC
:10357000ED91FC910284F385E02D1995829761F01D
:10358000CFEFDFEFCE01DF91CF911F910F91FF9031
:10359000EF90DF90CF90089585E0F601808786E078
:1035A00090E00E9427358C01009751F3E7E5F3E0A6
:1035B000DC01ED93FC9380E091E0DF019C011D9222
:1035C00021503040E1F7D80113969C938E931297C7
:1035D00015961C921E921497D701ED91FC910284CE
:1035E000F385E02DC7011995EC010196C9F0C232AF
:1035F000D10509F44DC0C032D1050CF449C0B80161
:103600008C2FCC35D10549F5D701ED91FC91028481
:10361000F385E02DC7011995EC018F3F980721F440
:10362000C8010E94C335AECF8236910541F15CF4EA
:103630008F32910509F18C359105D9F0829761F6A9
:10364000B80182E20AC08E369105E1F04CF4B8016F
:103650008CE0C636D10509F0BFCF0E946806BCCF0A
:103660008237910591F0B80189E0C437D105A9F3FB
:10367000B3CFB8018CE5F1CFB8018FE2EECFB8013E
:1036800088E0EBCFB8018AE0E8CFB8018DE0E5CF64
:10369000F80184819581009749F00190F081E02D37
:1036A000E80FF91F31978081882321F0B80180E06D
:1036B0000E946806D80114968D919C910E9427352E
:1036C000EC01009739F067E573E00E946837C801A4
:1036D0000E94C335F601D287C187D0E0C0E052CF47
:1036E0008DE090E00E942735009729F02DE0FC0145
:1036F00011922A95E9F708952F923F924F925F9287
:103700006F927F928F929F92AF92BF92CF92DF92F1
:10371000EF92FF920F931F93CF93DF9300D000D0CF
:10372000CDB7DEB78C016B010E948B06019619F4B0
:103730008FEF9FEF1DC0D801ED91FC910284F385BE
:10374000E02DC80119957C018F3F980789F3D801B6
:10375000ED91FC910684F785E02D682FC80119953D
:10376000B2E2EB16F104E9F4B601C8010E94AD1A09
:1037700026960FB6F894DEBF0FBECDBFDF91CF9176
:103780001F910F91FF90EF90DF90CF90BF90AF907F
:103790009F908F907F906F905F904F903F902F9071
:1037A0000895EDE2EE16F10429F0C701C0970A97DB
:1037B00008F035C1D801ED91FC910284F385E02D2C
:1037C000C80119957C018F3F980709F4B1CF99245E
:1037D00093948D9771F4D801ED91FC910284F38557
:1037E000E02DC80119957C0199249A94019609F459
:1037F0009FCFC701C097B12CA12C0A97C8F49AE0BB
:10380000892E8A9CC0018B9C900D1124E0E3EE1A56
:10381000F1085701A80EB91ED801ED91FC91028460
:10382000F385E02DC80119957C01C0970A9748F3EC
:10383000BEE2EB16F10401F1C7018F7D85349105DD
:10384000D9F0492D95014203C001439F900D1124E9
:10385000D6011A969C938E93199783E018968C93B1
:10386000D801ED91FC910684F785E02D6E2DC801FD
:10387000199590E080E07CCFB501BB0C880B990BCB
:103880000E9414312B013C01312C212CBEE2EB169D
:10389000F10499F5D801ED91FC910284F385E02DB6
:1038A000C80119957C01312C212C20E030E040E248
:1038B00051E4C301B2010E944F312B013C01B70119
:1038C00060537109072E000C880B990B0E9414316C
:1038D000A30192010E94A9322B013C01B1E02B1AF5
:1038E0003108D801ED91FC910284F385E02DC801E7
:1038F00019957C01C0970A97C0F2C7018F7D853466
:10390000910509F040C0D801ED91FC910284F38546
:10391000E02DC80119957C01D801ED91FC918B3205
:10392000910519F50284F385E02DC80119957C01F4
:10393000E1E0EE83B12CA12C8AE0882ED801ED9134
:10394000FC91C701C0978A30910508F58A9C9001C7
:103950008B9C300D11245C01A20EB31E0284F385F2
:10396000E02DC80119957C01E9CF8D9749F40284B7
:10397000F385E02DC80119957C013FEF3E83DACF36
:1039800041E04E83D7CFB1E0BE83B12CA12C692D8D
:10399000990C770B880B990B0E941431A3019201AB
:1039A0000E944F312B013C01B501BB0C880B990BD8
:1039B0000E9414314B015C01EE816E2FEE0F770BEC
:1039C000880B990B0E9414319B01AC01C501B40115
:1039D0000E944F314B015C01B101330C880B990BF4
:1039E0000E9414319B01AC01C501B4010E94A932AF
:1039F0009B01AC0160E070E080E291E40E9415332D
:103A00009B01AC01C301B2010E944F31D60119964E
:103A10006D937D938D939C931C9784E01FCFBBE5A2
:103A2000EB16F10409F060C0D801ED91FC9102841D
:103A3000F385E02DC80119958B35910509F078CEF5
:103A400086E0F6018087C8010E948B06D801ED91BF
:103A5000FC910284F385E02DC80119958D359105FF
:103A600009F407CFD801ED91FC910684F785E02D8C
:103A7000682FC8011995BB24BA940E94701B7C0161
:103A8000009709F455CEBB2031F1F6019783868368
:103A9000C8010E948B06B701C8010E947C1B892BBC
:103AA00009F046CEC8010E948B06D801ED91FC9129
:103AB0000284F385E02DC8011995B12C47018C32A1
:103AC0009105D9F221E030E08D35910509F08BC0E8
:103AD00030E020E088C0D40113969C938E93129717
:103AE000FC0195828482D4CFBBE7EB16F10409F088
:103AF00088C0D801ED91FC910284F385E02DC801C6
:103B000019958B37910509F013CE87E0F601808770
:103B1000C8010E948B06D801ED91FC910284F385C7
:103B2000E02DC80119958D37910509F4A2CED80171
:103B3000ED91FC910684F785E02D682FC801199559
:103B400099249A940E94701B7C01009709F4F0CD8F
:103B5000992009F44DC0F60197838683C8010E941D
:103B60008B06B701C8010E94AD1A019609F4E0CD99
:103B7000C8010E948B06D70119968D919C911A97C6
:103B800011969C938E931A961C921E921997D801A7
:103B9000ED91FC910284F385E02DC8011995CA9737
:103BA00009F0C6CDC8010E948B06B701C8010E946A
:103BB0007C1B019609F4BCCDC8010E948B06D8017C
:103BC000ED91FC910284F385E02DC8011995912CAB
:103BD00057018C32910509F4B5CF21E030E08D37E3
:103BE000910509F475CF88279927821B930BC0CDC7
:103BF000D50113969C938E931297FC01B582A482F3
:103C0000ADCFBEE6EB16F10419F519821A821B82BC
:103C10001C82D801ED91FC910484F585E02D44E0EF
:103C200050E0BE016F5F7F4FC8011995049709F0FE
:103C30007FCD44E050E066EB72E0CE0101960E9439
:103C40006F37009709F074CD22E0F601208790CD00
:103C5000F6E6EF16F10429F59E012F5F3F4F79013B
:103C600085E0D9011D928A95E9F7D801ED91FC9183
:103C70000484F585E02D45E050E0B901C8011995AF
:103C8000059709F055CD45E050E06BEB72E0C701B8
:103C90000E946F37009709F04BCDF6011086118610
:103CA00067CDF4E7EF16F10409F042CD19821A82CC
:103CB0001B821C82D801ED91FC910484F585E02DD6
:103CC00044E050E0BE016F5F7F4FC8011995049733
:103CD00009F02ECD44E050E061EC72E0CE01019697
:103CE0000E946F37009709F023CD21E0F60120876D
:103CF0002FEF21873DCD3F924F925F926F927F923F
:103D00008F929F92AF92BF92CF92DF92EF92FF92EB
:103D10000F931F93CF93DF93CDB7DEB7EA970FB61C
:103D2000F894DEBF0FBECDBF7C012A013B016901C3
:103D30000E945C064B015C0187010D5B1F4FC801AF
:103D40000E946114181619069CF00E945C066819FE
:103D500079098A099B09461657066806790608F408
:103D600066C162E370E080E090E00E942A06E7CF3F
:103D700042E250E0BE016F5F7F4FC8010E940B120C
:103D800089818230D1F0312C832DEA960FB6F894D8
:103D9000DEBF0FBECDBFDF91CF911F910F91FF907E
:103DA000EF90DF90CF90BF90AF909F908F907F90DB
:103DB0006F905F904F903F900895F80184899589A6
:103DC0008334910501F76D817E818F8198850E94F2
:103DD00020354B015C01F60180829182A282B38280
:103DE00046E050E0B701685F7F4FCE014D960E94DC
:103DF0002D37892B41F6F70180819181A281B38112
:103E000088169906AA06BB0608F4BDCF8481958161
:103E1000A681B78188159905AA05BB0508F4B3CF1B
:103E200089899A89AB89BC8986879787A08BB18B52
:103E30004EEC50E070E060E0C8010E940B12312CA3
:103E4000C701829698AB8FA7F701B696FAABE9AB9C
:103E500008969CAB8BAB67019AE1C90ED11CBD964D
:103E6000FEABEDABC701429698AF8FABFD97FAAFB3
:103E7000E9AF4701FEE18F0E911CF801818D928D13
:103E8000181619060CF080CFC8010E942A1283333D
:103E9000910509F4B2C014F58130910509F464C0AC
:103EA00044F4892B51F3C8010E942A12AC01552712
:103EB00075C08330910509F462C00697A1F7C80167
:103EC0000E942A12B82E44E050E0B401C8010E94BA
:103ED0000B12EB2DE450FF0BAF0160C08A3391054C
:103EE00009F45FC084F585339105B1F1C697D9F621
:103EF000C8010E942A125C01B601CE0189960E9477
:103F00001A148BA59CA5ADA5BEA5892B8A2B8B2B3E
:103F1000B1F0EDA9FEA94080518062807380B601A6
:103F2000CE0183960E941A148DA19EA1AFA1B8A5BF
:103F3000A501481659066A067B0609F0B8CF44E089
:103F400050E0B60118C08B33910509F440C08F3F93
:103F5000910509F492CFA7CFC8010E942A12C80187
:103F60000E942A12382E89CFC8010E942A1244E0EA
:103F700050E06FA978ADC8010E940B127ECFC80136
:103F80000E942A12B82E44E050E069AD7AADC80113
:103F90000E940B128B2D8450990BAC0170E060E0F5
:103FA000EACFC8010E942A1244E050E069A97AA928
:103FB000C8010E940B12F70166A177A180A591A507
:103FC0000E94203566A377A380A791A756CFC8018A
:103FD0000E942A1244E050E06BA97CA9C8010E940B
:103FE0000B12F70162A573A584A595A50E94203543
:103FF00062A773A784A795A740CFC8010E942A1281
:1040000044E050E06FA578A9C8010E940B12F701A7
:1040100062A173A184A195A10E94203562A373A31C
:1040200084A395A366A777A780AB91AB26CF332453
:104030003A94AACE2F923F924F925F926F927F92C4
:104040008F929F92AF92BF92CF92DF92EF92FF92A8
:104050000F931F93CF93DF9300D000D0CDB7DEB77F
:104060008C010E94812F2FEC37E040E050E00E944D
:104070006732DC01CB010196A11DB11DF8018483DB
:104080009583A683B78380839183A283B3835801EA
:10409000F3E4AF0EB11CC5010E94FA0C64E470E0B9
:1040A000C5010E942A13882309F445C10E945C06B9
:1040B0002B013C01480182E4880E911C48EEC42E7D
:1040C00043E0D42EE12CF12C52E0252E1E821D82DD
:1040D000D4018C918330B1F1811166C0F8018481E3
:1040E0009581A681B7810196A11DB11D8483958319
:1040F000A683B7830E945C0664197509860997092F
:10410000A70196010E944532A90161E0C8010E9401
:104110001B1881E0D4018C938D819E810197C1F29F
:104120000E945C066419750986099709D801D6961C
:104130002D913D914D915C91D997261737074807EE
:10414000590720F6C5010E94FA0CF8018481958177
:10415000A681B7810196A11DB11D84839583A68395
:10416000B7830E945C06F801FE96608371838283A8
:1041700093838D819E8126960FB6F894DEBF0FBE85
:10418000CDBFDF91CF911F910F91FF90EF90DF9006
:10419000CF90BF90AF909F908F907F906F905F90E7
:1041A0004F903F902F9008958430F1F4F80184816E
:1041B0009581A681B7810196A11DB11D8483958348
:1041C000A683B7830E945C0664197509860997095E
:1041D000A70196010E944532A90163E0C8010E942F
:1041E0001B18D4012C9298CF813051F5F80142ADC3
:1041F00053AD64AD75AD9E012F5F3F4FC8010E9466
:104200007B1E382EF2E08F1390C089819A81AB819A
:10421000BC81F80184839583A683B7830E945C06E2
:104220006419750986099709A70196010E9445320C
:10423000A90163E0C8010E941B18D4013C926CCF15
:10424000823009F069CFF80142AD53AD64AD75AD70
:104250009E012F5F3F4FC8010E947B1E382EF5E064
:104260008F135DC0E3E0D401EC93F80182A193A128
:10427000A4A1B5A1892B8A2B8B2B41F484E893E070
:10428000A0E0B0E082A393A3A4A3B5A3F80186A104
:1042900097A1A0A5B1A5892B8A2B8B2B61F482A1B4
:1042A00093A1A4A1B5A1B695A7959795879586A347
:1042B00097A3A0A7B1A7F80182A593A5A4A5B5A52A
:1042C000892B8A2B8B2BA9F482A193A1A4A1B5A140
:1042D000AC01BD0123E076956795579547952A95E2
:1042E000D1F7841B950BA60BB70B82A793A7A4A7A6
:1042F000B5A7F80186A197A1A0A5B1A586A797A704
:10430000A0ABB1AB82A593A5A4A5B5A582AB93AB99
:10431000A4ABB5AB81E090E09E838D83FDCE96E0AB
:10432000891303C0D4011C92F7CEBFEF3B12F4CE29
:10433000F4011082F1CE1E821D821BCFEF92FF92FC
:104340000F931F93CF93DF9300D000D01F921F9243
:10435000CDB7DEB78091930581112AC010927B05FD
:1043600010927A0588EE93E0A0E0B0E080937C059F
:1043700090937D05A0937E05B0937F0582E392E044
:1043800090937905809378058CE992E09093870566
:1043900080938605109288051092890510928A05EF
:1043A00010928B0588E08093900581E080939305BF
:1043B00085E395E090933405809333058091320531
:1043C0008111A0C060E372E080E090E00E942A06C4
:1043D0001FB7F89480912F05811127C0E5E3F4E021
:1043E0008491EFEEF3E09491E82FF0E0EE0FFF1FE1
:1043F000E056FC4FA591B491EC91E92321F461E0E2
:1044000085E30E94510461E085E30E947F048CB53E
:1044100080618CBD8CB580648CBD61E084E30E94BA
:104420007F0461E083E30E947F0480912F058F5F0A
:1044300080932F051FBF80910702282F30E0F901DC
:10444000E050FC4FE491F0E0EE0FFF1FEA57FC4F05
:104450004591549150932E0540932D05F901E65452
:10446000FC4FE491E0932C0561E00E947F040E94E0
:104470005F0780E591E00E94580284E38093300555
:1044800080E80E9429080E94B20D882309F4DDC04B
:1044900088E00E9429080E949F0D883009F0D5C04D
:1044A00080E10E9429080E949F0D803109F0CDC053
:1044B00080E00E9429080E949F0D182F8111C5C01D
:1044C00041E050E0BE016F5F7F4F8FE190E00E94BE
:1044D0002A0C8981833009F0B8C080E480933105CB
:1044E00042E06EE170E0812F0E94870842E06FE1B8
:1044F00070E0812F0E9487081F5F183089F781E0E4
:104500008093320580E591E00E94580246E050E039
:1045100062ED76E089E090E00E947B078CE992E012
:104520009A8389831B821C821D821E82CE01039680
:104530000E94DB088091330590913405FC0112A2A2
:1045400013A214A215A216A217A210A611A612A6B3
:1045500013A614A615A640E65AEE60E070E046AB3E
:1045600057AB60AF71AF40EA5FE060E070E042AF30
:1045700053AF64AF75AFDC01189626E0FD01322F12
:1045800011923A95E9F7AC01425F5F4F34E1FA01CD
:1045900011923A95E9F7E2EDF6E001900D922A9535
:1045A000E1F7FC01EE5BFF4F10820E941A207C01B4
:1045B000019709F0B5C080E591E00E945802009192
:1045C000330510913405B801625F7F4FCE0101962B
:1045D0000E941A14CE0103960E94DB08B8016A5E9D
:1045E0007F4FCE0101960E941A14CE0103960E94BD
:1045F000E908B8016E5E7F4FCE0101960E941A1441
:10460000CE0103960E94E208B801625E7F4FCE01A0
:1046100001960E941A148B819C81AD81BE8180938A
:104620009E0690939F06A093A006B093A1060E94B9
:1046300005067F738091050290910602682779270D
:1046400070930602609305026BC087E38093300588
:1046500080E80E9429080E94B20D882329F188E091
:104660000E9429080E949F0D8830F1F480E10E9489
:1046700029080E949F0D182F8031B1F480E00E941C
:1046800029080E949F0D81110FC041E050E0BE013A
:104690006F5F7F4F89E390E00E942A0C898184300C
:1046A00019F4109331052BCF83E38093300580E814
:1046B0000E9429080E94B20D882371F180E10E94B6
:1046C00029080E949F0D803139F582E10E94290856
:1046D0000E949F0D823101F580E00E9429080E940E
:1046E0009F0D811119C084E08093310515E518876D
:1046F00041E050E0BE01685F7F4F8BE190E00E9497
:104700007B071F8341E050E0BE01695F7F4F8AE174
:1047100090E00E947B07F3CE10923005F12CE12C43
:10472000C70128960FB6F894DEBF0FBECDBFDF914C
:10473000CF911F910F91FF90EF90089545E250E0C7
:1047400065E270E084EB96E00C941D321F920F92AC
:104750000FB60F9211240BB60F922F933F934F93E6
:104760005F936F937F938F939F93AF93BF93EF93D9
:10477000FF9381EE95E00E94E602FF91EF91BF91D9
:10478000AF919F918F917F916F915F914F913F91E9
:104790002F910F900BBE0F900FBE0F901F9018958A
:1047A0001F920F920FB60F9211240BB60F922F93F8
:1047B0008F939F93EF93FF93E091F105F091F205B2
:1047C0008081E091F705F091F80582FD1DC0908190
:1047D0008091FA058F5F8F732091FB05821741F05E
:1047E000E091FA05F0E0EF51FA4F958F8093FA05CA
:1047F000FF91EF919F918F912F910F900BBE0F9092
:104800000FBE0F901F9018958081F2CF1F920F92CC
:104810000FB60F9211242F933F938F939F93AF93D3
:10482000BF938091580490915904A0915A04B0917B
:104830005B043091570423E0230F2D3758F5019680
:10484000A11DB11D209357048093580490935904DF
:10485000A0935A04B0935B0480915C0490915D0432
:10486000A0915E04B0915F040196A11DB11D8093DB
:104870005C0490935D04A0935E04B0935F04BF91C9
:10488000AF919F918F913F912F910F900FBE0F90FD
:104890001F90189526E8230F0296A11DB11DD2CFB7
:1048A0001F920F920FB60F9211240BB60F922F93F7
:1048B0003F934F935F936F937F938F939F93AF93A8
:1048C000BF93EF93FF93E091AD04F091AE0419957F
:1048D000FF91EF91BF91AF919F918F917F916F91D8
:1048E0005F914F913F912F910F900BBE0F900FBE94
:1048F0000F901F9018951F920F920FB60F921124D0
:104900000BB60F922F933F934F935F936F937F93C9
:104910008F939F93AF93BF93EF93FF938091060183
:1049200080FD23C08091CE049091CF04A091D0044B
:10493000B091D1040196A11DB11D8093CE04909336
:10494000CF04A093D004B093D10486E990E0909373
:10495000B8048093B7046091B7047091B80487E0FD
:104960000E94BB0481E08093A804FF91EF91BF9166
:10497000AF919F918F917F916F915F914F913F91F7
:104980002F910F900BBE0F900FBE0F901F90189598
:10499000CF92DF92EF92FF92CF93DF93E1EEF5E0BB
:1049A0001382128288EEC82E83E0D82EE12CF12CDF
:1049B000C482D582E682F7828CE592E0918380837F
:1049C00085EC90E09587848784EC90E097878687D4
:1049D00080EC90E0918B808B81EC90E0938B828BCC
:1049E00082EC90E0958B848B86EC90E0978B868BA5
:1049F000118E128E138E148EEEE7F6E0CCE9D2E023
:104A0000D183C0831282138214821582E4E8F6E017
:104A1000D183C0831282138214821582EAE8F6E001
:104A2000D183C0831282138214821582E0E9F6E0FA
:104A3000D183C0831282138214821582E6E9F6E0E4
:104A4000D183C0831282138214821582E2EAF6E0D7
:104A5000D183C0831282138214821582ECE9F6E0BE
:104A6000D183C0831282138214821582E8EAF6E0B1
:104A7000D183C0831282138214821582EEEAF6E09B
:104A8000D183C0831282138214821582E1E2F7E09F
:104A9000D183C08312821382148215826CEA72E081
:104AA0008BE197E00E94EE19E1E1F7E013821282B8
:104AB00082EA92E091838083A8EFB6E0B583A48375
:104AC00089E190E091878087B783A6831C920E943A
:104AD0005C066093F4067093F5068093F606909357
:104AE000F706EEEEF6E0D183C083128213821482C1
:104AF0001582E8EEF6E0D183C0831282138214821D
:104B00001582E9EDF6E013821282C482D582E68234
:104B1000F7828EE692E09183808388E0848788EE36
:104B200093E096878587E4EBF6E0D183C083128219
:104B3000138214821582D783C6831086118612864B
:104B40001386D587C48716861786108A118AD38B59
:104B5000C28B148A158A168A178AD18FC08F128E3B
:104B6000138E148E158EDF91CF91FF90EF90DF9012
:104B7000CF900895CF93DF93CDB7DEB76A970FB686
:104B8000F894DEBF0FBECDBF789484B5826084BD3B
:104B900084B5816084BD85B5826085BD85B5816041
:104BA00085BD80916E00816080936E0010928100BF
:104BB000809181008260809381008091810081607A
:104BC000809381008091800081608093800080913B
:104BD000B10084608093B1008091B00081608093C7
:104BE000B00080919100826080939100809191004B
:104BF000816080939100809190008160809390000B
:104C00008091A10082608093A1008091A1008160C9
:104C10008093A1008091A00081608093A00080918A
:104C20002101826080932101809121018160809324
:104C300021018091200181608093200180917A0080
:104C4000846080937A0080917A00826080937A00F9
:104C500080917A00816080937A0080917A008068E8
:104C600080937A001092C100E091F105F091F20575
:104C700082E08083E091ED05F091EE051082E091F5
:104C8000EF05F091F0058FEC80831092F905E0912B
:104C9000F505F091F60586E08083E091F305F0914B
:104CA000F405808180618083E091F305F091F40543
:104CB000808188608083E091F305F091F405808124
:104CC00080688083E091F305F091F40580818F7D09
:104CD000808360E082E00E947F0462E083E00E94C3
:104CE0007F0460E08CE00E94510460E08DE00E944F
:104CF000510461E08CE00E947F0461E08DE00E943D
:104D00007F0460E088E20E947F0460E08AE20E9403
:104D10007F0460E08CE20E947F0460E08EE20E94EB
:104D20007F0461E081E30E947F0461E085E30E94EB
:104D30007F0445E250E065E270E084EB96E00E947B
:104D40000D320E945C0685E38093070289ED96E0B0
:104D50000E94350D60E081E30E94510464E170E03F
:104D600080E090E00E942A0661E081E30E94510405
:104D700064E670E080E090E00E942A060E949E2196
:104D80000CE912E01A8309838091CE069091CF0638
:104D9000A091D006B091D1068B839C83AD83BE8356
:104DA000CE0101960E94430966EC72E081EE95E027
:104DB0000E94280C6CEC76E0CE0101960E94FF194F
:104DC000CE0101960E94410BCE0101960E94F30A8A
:104DD0001A8309838091C2069091C306A091C406EC
:104DE000B091C5068B839C83AD83BE83CE010196B3
:104DF0000E941A0968ED72E081EE95E00E94280C8D
:104E000060EC76E0CE0101960E94FF19CE0101967A
:104E10000E94410BCE0101960E94F30A1A83098376
:104E20008091BC069091BD06A091BE06B091BF06D0
:104E30008B839C83AD83BE83CE0101960E94F108D3
:104E40006BEE72E081EE95E00E94280C6AEB76E052
:104E5000CE0101960E94FF19CE0101960E94410BDE
:104E6000CE0101960E94F30A64E670E080E090E0D3
:104E70000E942A061092B6041092B5040E94C2093C
:104E80006B5F7F4F8F4F9F4F6093B1047093B2045D
:104E90008093B3049093B40460ED77E080E090E0F9
:104EA0000E942A0613E0D12E0BE9E02E05E0F02E39
:104EB00086E4C82E01E00E94C2098090B10490905F
:104EC000B204A090B304B090B404681579058A05C3
:104ED0009B0508F4AAC18091B6048111A6C170E0B7
:104EE00060E088E00E94BB0470E060E087E00E9420
:104EF000BB0470E060E086E00E94BB0481EE95E0B8
:104F00000E947003F8948091680084608093680028
:104F100080916D00816080936D0078941092CD0433
:104F20000E945C0681E090E09093B0048093AF040F
:104F300080E1809391001092900088E99AE3909329
:104F400097008093960082E18093910082E995E03A
:104F50009093AE048093AD0481E08093710089ED5D
:104F600096E00E94350D8AEF90E0A0E0B0E08093DB
:104F7000DD069093DE06A093DF06B093E0066DEFAA
:104F800072E081EE95E00E94280C64EB76E0CE01A1
:104F900001960E94FF19CE0101960E94410BCE019D
:104FA00001960E94F30A8CE992E09A8389838091AA
:104FB000B6069091B706A091B806B091B9068B835A
:104FC0009C83AD83BE8347EA57E0BE016F5F7F4F8E
:104FD00089ED96E00E9448138C016EE073E081EE4B
:104FE00095E00E94280CB80181EE95E00E94A40B88
:104FF0006AEA72E081EE95E00E94320B81E00130B6
:10500000110509F080E08093CD040130110509F409
:10501000F6C289ED96E00E94350D60E081E30E94C2
:10502000510464E170E080E090E00E942A0661E0B3
:1050300081E30E94510464E670E080E090E00E9409
:105040002A060E949E210CE912E01A8309838091AE
:10505000CE069091CF06A091D006B091D1068B8359
:105060009C83AD83BE83CE0101960E94430966EC0A
:1050700072E081EE95E00E94280C6CEC76E0CE01A7
:1050800001960E94FF19CE0101960E94410BCE01AC
:1050900001960E94F30A1A8309838091C2069091B7
:1050A000C306A091C406B091C5068B839C83AD83D3
:1050B000BE83CE0101960E941A0968ED72E081EE6E
:1050C00095E00E94280C60EC76E0CE0101960E94EB
:1050D000FF19CE0101960E94410BCE0101960E945C
:1050E000F30A1A8309838091BC069091BD06A091B2
:1050F000BE06B091BF068B839C83AD83BE83CE0179
:1051000001960E94F1086BEE72E081EE95E00E943C
:10511000280C6AEB76E0CE0101960E94FF19CE01C1
:1051200001960E94410BCE0101960E94F30A64E6AB
:1051300070E080E090E00E942A0606E910E08AEF25
:10514000882E912CA12CB12C9CE9C92E92E0D92E4D
:105150008091CD04811157C21093BC040093BB040D
:105160001093BA040093B9041093B8040093B704E1
:105170008092DD069092DE06A092DF06B092E006F5
:105180006DEF72E081EE95E00E94280C64EB76E012
:10519000CE0101960E94FF19CE0101960E94410B9B
:1051A000CE0101960E94F30ADA82C9828091B60686
:1051B0009091B706A091B806B091B9068B839C83F5
:1051C000AD83BE8347EA57E0BE016F5F7F4F89ED35
:1051D00096E00E9448137C016EE073E081EE95E05A
:1051E0000E94280CB70181EE95E00E94A40B6AEAA8
:1051F00072E081EE95E00E94320B81E0B1E0EB16A7
:10520000F10409F080E08093CD0466E970E080E06D
:1052100090E00E942A06EA94EF2821F41092DC061E
:105220001092DB060E94080A93CF0E945C068090D1
:10523000A9049090AA04A090AB04B090AC04861688
:105240009706A806B906A8F51091B5041F5F10933C
:10525000B5048091B604882309F46FC00E945C06EF
:105260006A567F4F8F4F9F4F6093A9047093AA0493
:105270008093AB049093AC04812F6D2D0E940C356C
:105280009093B504913009F44BC06FEF70E0923009
:1052900009F070C070E060E088E00E94BB0470E03C
:1052A00060E087E00E94BB046FEF70E086E00E9440
:1052B000BB041092A70481EE95E00E94D00218165C
:1052C00019060CF094C181EE95E00E94D0021816E8
:1052D00019060CF08AC181EE95E00E94AE02803280
:1052E0000CF04EC08D3019F08A3009F04EC090910C
:1052F000A604992309F4FDC0D701EC2D1D92EA956F
:10530000E9F7923008F44FC0A2E6B4E0EBE9F5E02B
:1053100082E0981709F447C02D9121938F5FF9CF50
:1053200070E060E088E00E94BB046FEF70E087E00F
:105330000E94BB0470E060E0B9CF0E945C066C592B
:105340007F4F8F4F9F4F6093A9047093AA0480935F
:10535000AB049093AC0411701093B504113041F07C
:105360006FEF70E088E00E94BB046FEF70E099CFB0
:1053700070E060E088E00E94BB0470E060E0D7CF9E
:10538000E091A604E23308F427C181EE95E00E9483
:10539000D002892B09F097CF62E370E080E090E0C3
:1053A0000E942A0690CF2AE030E044E050E0BE019F
:1053B0006F5E7F4F8EE20E94FB0ABE016F5E7F4FE1
:1053C000CE0101960E941A1465E081EE95E00E94DC
:1053D0000803E0916004E154E53108F0ACC00E2E02
:1053E000000CFF0B8827E850F64D8F4F0C941835B2
:1053F000E52A9B2A9B2ACE2A9B2A9B2AC12A9B2AE2
:105400009B2A9B2A9B2A9B2ADB2AB42A9B2A9B2A1B
:105410000D2A9B2AA72A9B2A8D2A84E893E00E94C2
:10542000550381E893E00E94550361EE75E084EB3B
:1054300096E00E94DE0B8DE793E00E94550361EE3B
:1054400075E08AEB96E00E94DE0B89E793E00E940C
:10545000550361EE75E086EC96E00E94DE0B85E771
:1054600093E00E94550361EE75E080EC96E00E94A7
:10547000DE0B81E793E00E94550361EE75E08CEC52
:1054800096E00E94DE0B8DE693E00E945503B2ED9C
:10549000AB2EB6E0BB2E10E0D5018D915D018031C1
:1054A00020F489E693E00E945503F501319740818D
:1054B00050E070E060E020E181EE95E00E94580B42
:1054C0001F5F163029F585E693E00E945503409151
:1054D000D80650E070E060E02AE081EE95E00E949E
:1054E000580B82E693E00E94550381EE95E00E94FE
:1054F00070031092A60481EE95E00E94D002181667
:1055000019060CF072C081EE95E00E94AE02F3CF56
:105510008BE693E00E945503BFCF8B819C81AD81C8
:10552000BE818093B6069093B706A093B806B09359
:10553000B9060E949E2363E081EE95E00E94080375
:1055400064EF71E080E090E00E942A06CECF8B816C
:105550009C81AD81BE818093BC069093BD06A093D3
:10556000BE06B093BF06E5CF8B819C81AD81BE8125
:105570008093C8069093C906A093CA06B093CB0641
:10558000D8CF8B819C81AD81BE818093C2069093E0
:10559000C306A093C406B093C506CBCF8B819C8174
:1055A000AD81BE818093CE069093CF06A093D006A6
:1055B000B093D106BECF20E130E046E050E062ED8E
:1055C00076E08DE20E94FB0AB4CF8BE995E00E9461
:1055D000770A6093D806ADCF91E09E0F9093A60412
:1055E000F0E0E05AFB4F8083D0CE0093A704809177
:1055F000A704882309F45FCC0093B6045CCC109216
:10560000DC061092DB0681E08093A804109204026D
:105610007AEF472E512C612C712CECE9AE2EE2E092
:10562000BE2EF6E98F2E912CA2ED2A2EA4E03A2E62
:105630000E945C066093F4067093F5068093F6066C
:105640009093F7060091330510913405011511056B
:1056500009F4CBC00E945C066B017C019801225CBE
:105660003F4F3E8B2D8BF90180819181A281B381C7
:10567000A7019601281B390B4A0B5B0BCA01B90124
:10568000683E33E0730781059105C8F128EE33E0E9
:1056900040E050E00E9445326F8B788F898F9A8F5F
:1056A000C61AD70AE80AF90AAD89BE89CD92DD92F9
:1056B000ED92FC921397F80186A597A5A0A9B1A930
:1056C00069017A01CC0CDD1CEE1CFF1C8C159D05BC
:1056D000AE05BF0508F041C216A617A610AA11AA6A
:1056E000F80182A993A9A4A9B5A98C159D05AE05B9
:1056F000BF0508F03BC212AA13AA14AA15AAF80102
:1057000086A597A5A0A9B1A9892B8A2B8B2B09F077
:1057100036C2EE5BFF4F8081833009F030C284E0F7
:105720008083C8010E941A200196D801D2964D911B
:105730005D916D917C91D597452B462B472BA1F41C
:10574000F801EE5BFF4F2081233011F021110CC0D6
:105750001082F8013E9684E1DF011D928A95E9F7F7
:10576000C8010E941A2003968230910511F0049717
:10577000E1F580E591E00E94580200913305109117
:105780003405B801625F7F4FCE0101960E941A1462
:10579000CE0103960E94DB08B8016A5E7F4FCE01FE
:1057A00001960E941A14CE0103960E94E908B801DE
:1057B0006E5E7F4FCE0101960E941A14CE010396B1
:1057C0000E94E208B801625E7F4FCE0101960E94FE
:1057D0001A148B819C81AD81BE8180939E0690932B
:1057E0009F06A093A006B093A1064091F4065091A5
:1057F000F5066091F6067091F7068091F00490919D
:10580000F104A091F204B091F30484179507A60760
:10581000B70708F0E0C00E945C0668517C4F8F4FCC
:105820009F4F6093F0047093F1048093F20490937F
:10583000F30489ED96E00E94130D813009F0A2C1B6
:105840002091DB063091DC06232B09F09BC180936D
:10585000CD048091CE049091CF04A091D004B0915A
:10586000D104BF93AF939F938F93E3E2F3E0FF9351
:10587000EF9340EC54E05F934F930E947D3780910B
:10588000D8061F928F93A9E2B3E0BF93AF932DEB9D
:1058900034E03F932F930E947D37E0911507F091FC
:1058A0001607F0931807E09317070FB6F894DEBFBA
:1058B0000FBECDBF8091190790911A07892B09F06F
:1058C00010826DEB74E081E197E00E94280C6EE29B
:1058D00073E081E197E00E94280C60EC74E081E1C4
:1058E00097E00E94280C6EE273E081E197E00E944D
:1058F000280C88E20E942804BC0181E197E00E9404
:10590000A40B6EE273E081E197E00E94280C8AE22A
:105910000E942804BC0181E197E00E94A40B6EE282
:1059200073E081E197E00E94280C8CE20E94280439
:10593000BC0181E197E00E94A40B6EE273E081E17B
:1059400097E00E94280C8EE20E942804BC0181E1AD
:1059500097E00E94A40B6EE273E081E197E00E9461
:10596000280C8CE00E942804BC0181E197E00E9491
:10597000A40B6EE273E081E197E00E94280C8DE0B9
:105980000E942804BC0181E197E00E94A40B6BEA0D
:1059900072E081E197E00E94280C46E150E068EF58
:1059A00076E089ED96E00E946E1060E373E081EE90
:1059B00095E00E94280C68EF76E081EE95E00E9469
:1059C000320B6AEA72E081EE95E00E94320B90920F
:1059D000BC048092BB0489ED96E00E94130D8130D7
:1059E00009F02EC28091DB069091DC06892B09F02C
:1059F00027C289ED96E00E943111181619060CF0A5
:105A00001FC28091CD04882309F41AC289ED96E063
:105A10000E943111892B09F413C21092CC04109208
:105A2000CB040E945C066B017C01A9E1CA0ED11C6B
:105A3000E11CF11CC092C704D092C804E092C904D2
:105A4000F092CA041092C6048EE1F10111928A9577
:105A5000E9F78091C6048111C4C189ED96E00E94E6
:105A60003111181619060CF0EBC10E945C066C157A
:105A70007D058E059F0508F0E3C1F0E2FD8B2D89C1
:105A80002B3741F00E945C066C157D058E059F0545
:105A900008F4A9C00E945C066C157D058E059F0563
:105AA000C0F63D893B37A9F68091CB049091CC0498
:105AB0008C010F5F1F4F1093CC040093CB048E52C8
:105AC0009B4FDC013C930E945C066C157D058E05A6
:105AD0009F0508F0BECF012B09F4BBCF8091C6040F
