:100000000C944C0D0C947D0D0C947D0D0C947D0D79
:100010000C947D0D0C947D0D0C947D0D0C947D0D38
:100020000C947D0D0C947D0D0C947D0D0C94A639D3
:100030000C947D0D0C947D0D0C947D0D0C947D0D18
:100040000C947D0D0C947D0D0C947D0D0C947D0D08
:100050000C947D0D0C947D0D0C947D0D0C94313918
:100060000C947D0D0C94FB380C94D1380C947D0DC0
:100070000C947D0D0C947D0D0C947D0D0C947D0DD8
:100080000C947D0D0C947D0D0C947D0D0C947B399E
:100090000C947D0D0C947D0D0C947D0D0C947D0DB8
:1000A0000C947D0D0C947D0D0C947D0D0C947D0DA8
:1000B0000C947D0D0C947D0D0C947D0D0C947D0D98
:1000C0000C947D0D0C947D0D0C947D0D0C947D0D88
:1000D0000C947D0D0C947D0D0C947D0D0C947D0D78
:1000E0000C947D0D07634236B79BD8A71A39685622
:1000F00018AEBAAB558C1D3CB7CC5763BD6DEDFD4A
:10010000753EF6177231BF000000803F0800000006
:10011000BE922449123EABAAAA2ABECDCCCC4C3EFC
:1001200000000080BEABAAAAAA3E00000000BF00EB
:100130000000803F0000000000084178D3BB4387E7
:10014000D1133D190E3CC3BD4282AD2B3E68EC82FB
:1001500076BED98FE1A93E4C80EFFFBE01C4FF7F80
:100160003F00000000000C94391D0C94970F0C9474
:1001700070180C94BF1B0C94F21A0C94051A0C9472
:10018000E2350C94BC1B0C9434410C94250E0C9459
:1001900093220C949E2B0C9403240C94AF100C947B
:1001A000470E0C94AD220C94E90D0C9480400C94F5
:1001B0001B360C9441410C94F61A0C9403360C94A3
:1001C000061B0C94960F0C9474180C941E360C9409
:1001D0001A410C94101A0C94AD200C946B0F0C94D3
:1001E0002E240C941E150C94D2100C9427170C94EA
:1001F000B01B0C949D100C9469180C9409110C946C
:1002000070210C9427360C947F0D0C94A5100C943F
:10021000640F0C94830F0C9473200C947F0F0C9438
:10022000B71A0C94800D0C9469230C94390E0C941D
:10023000910F0C94890F0C94451F0C944E410C9413
:10024000851B0C942B170C9410180C94C81B0C9441
:1002500058410C946A100C948D0F0C9400410C942E
:10026000F3390C94AC1B0C94DC100C9418360C94E1
:10027000E40D0C94160E0C948B100C9406360C9412
:1002800077100C945C0F0C9427410C94F0100C9494
:10029000EF190C94BA1B0C94F3170C9431180C94AE
:1002A000750F0C94C71B0C9455200C9465240C946A
:1002B000AD1D0C940F360C9481100C9415360C94D3
:1002C000EE1A0C94B9100C94CF270C9424360C948D
:1002D00095100C94710F0C940C360C94741D0C94A6
:1002E000FC150C94E70E0C9404110C94680F0C94FC
:1002F00012360C9409360C94A0240C947F0E0C94A6
:10030000560F0C9400360C943C1E0C94521D0C9409
:100310000E410C9469220C94E6100C94600F0C941E
:10032000A1450C94C3100C943F180C94E80D0C9448
:100330009B0F0C947B0F0C9472100C9421360C9430
:100340002D1E0C94C7170C94FA100C945C270C9477
:100350006A200C9487230C944A220C94FD35FFE00C
:10036000FFD1AFFF32FFD0FFFEFFE0FFD1AEFFD0E5
:10037000FFFEFFE0FFD11002FFFEFFD0FFE0FFC154
:10038000FFD1AED580A83FD300408D142002A1C874
:10039000DA1281CFD9F1DB402EA4A6AFFFD0FFFE49
:1003A000000020002300260029002C002F0032002E
:1003B0000001000003010601090100000A0B020907
:1003C0000C0D0E08070304010000000000000000EF
:1003D000000000000000000000000000000000001D
:1003E00000000000000012111000000000000000DA
:1003F00000000000000000000000000000000000FD
:100400000D0A003B412C0030002D003B4D2C003BE1
:10041000442C003B472C003B4E2C003B532C0055FA
:100420002C00510000002200250028002B002E0087
:100430003100340002010000050108010B01000039
:100440002100240027002A002D0030003300010184
:100450000000040107010A01010210202008081011
:100460002040102040800201020108040201010224
:1004700004081020408080402010080402018004FD
:100480000201804020100804020108040201010258
:100490000408102040800102040810204080050557
:1004A0000505070508080808020202020A0A0808EA
:1004B0000404040401010101010101010303030318
:1004C00003030303040707070C0C0C0C0C0C0C0CA7
:1004D0000202020206060606060606060B0B0B0BB8
:1004E0000B0B0B0B00101000FE0A06A7089500FF6F
:1004F000FE0EFE0BFE1010201000FEAAAA000180C6
:1005000000000180004A51EA505A51C99E00018002
:1005100000000180000001800055551010201000DF
:10052000FEAAAA00018000000180003993C2523265
:100530005F8A5271938000000180000001800055A5
:10054000551010201000FEAAAA00018000000180B2
:10055000003BA5C124311989247125800000018048
:10056000000001800055551010201000FEAAAA00BE
:10057000018000000180007BA5C1247919C1247984
:1005800025800000018000000180005555101020DA
:100590001000FEAAAA000180000001800079BFC2FD
:1005A000487A49C2487989800000018000000180B2
:1005B0000055551010201000FEAAAA00018000006E
:1005C0000180007A4DC2527B53C2D67A4F80000020
:1005D0000180000001800055551010201000FEAA77
:1005E000AA000180000001800031A5CA287A31CA22
:1005F0002849A580000001800000018000555510A9
:1006000010201000FEAAAA000180000001800073E3
:10061000D1CA1073D1CA1073DF80000001800000BE
:1006200001800055551010201000FEAAAA0001807C
:1006300000000180001E3991401E3191081E71801A
:1006400000000180000001800055551010201000AE
:10065000FEAAAA000180000001800022F9A2203E2B
:1006600021A220222180000001800000018000558D
:10067000551010201000FEAAAA0001800000018081
:100680000020F9A08020F9A0803E81800000018038
:10069000000001800055551010201000FEAAAA008D
:1006A0000180000001800022F9A22022219420086C
:1006B00021800000018000000180005555101020AD
:1006C0001000FEAAAA00018000000180003EF9A0EF
:1006D000803EF9A080208180000001800000018020
:1006E0000055551010201000FEAAAA00018000003D
:1006F0000180001EF1A08820F1A0901E89800000DA
:100700000180000001800055551010201000FEAA45
:10071000AA00018000000180001E71A0881C89824F
:10072000883C718000000180000001800055551058
:1007300010201000FEAAAA00018000000180001E07
:10074000F9A0201C2182203CF980000001800000DB
:1007500001800055551010201000FEAAAA0001804B
:100760000000018000391DA510251DA51039DD8070
:10077000000001800000018000555510102010007D
:10078000FEAAAA00018000000180007189CA184AEF
:1007900009CA08719D800000018000000180005599
:1007A000551010201000FEAAAA0001800000018050
:1007B000007199CA044A09CA10719D800000018025
:1007C000000001800055551010201000FEAAAA005C
:1007D000018000000180007199CA044A19CA04719D
:1007E0009980000001800000018000555510102004
:1007F0001000FEAAAA00018000000180007185CAD5
:100800000C4A15CA1C71858000000180000001801F
:100810000055551010201000FEAAAA00018000000B
:100820000180004993EA546A59DBD44A538000009E
:100830000180000001800055551010201000FEAA14
:10084000AA00018000000180003453C29A31178948
:1008500012711380000001800000018000555510C6
:1008600010201000FEAAAA00018000000180007B79
:10087000B9C1247939C12479398000000180000090
:1008800001800055551010201000FEAAAA0001801A
:1008900000000180003325C4B447ADC4A434A58052
:1008A000000001800000018000555510102010004C
:1008B000FEAAAA00018000000180003E89A0D83E67
:1008C000A9A0883E898000000180000001800055B9
:1008D000551010201000FEAAAA000180000001801F
:1008E000003A5DC252325D8A52719D8000000180E3
:1008F000000001800055551010201000FEAAAA002B
:100900000180000001800079CFC2107991C0507B36
:100910008F800000018000000180005555101020DC
:100920001000FEAAAA00018000000180001E719044
:10093000801E61901010E1800000018000000180A5
:100940000055551010201000FEAAAA0001800000DA
:100950000180000E719080166192100EE1800000FF
:100960000180000001800055551010201000FEAAE3
:10097000AA00018000000180001C7192801C61941B
:100980001012E18000000180000001800055551028
:1009900010201000FEAAAA000180000001800012B1
:1009A000719280126192100CE180000001800000C1
:1009B000018000555500000008000E010A0A0804D5
:1009C0000080808080808080008080050404080290
:1009D0000888888888060A0A080100242424FC481C
:1009E00048FC909090070A0A080100107C929070D1
:1009F0001C12927C10070A0A080100629494681085
:100A0000102C52528C070A0A08010038444428303E
:100A1000528A848C72010404080408808080800358
:100A20000C0C0803FF204040808080808080404084
:100A300020030C0C0802FF804040202020202020B2
:100A40004040800707070801011092543854921063
:100A5000070707080101101010FE1010100204040F
:100A60000803FEC0404080040101080204F00202B5
:100A700002080300C0C0060A0A08010004040810A6
:100A8000102020408080060A0A0801003048848433
:100A9000848484844830050A0A0802002060A0206B
:100AA0002020202020F8060A0A0801007884840407
:100AB0001820408080FC060A0A080100788484041B
:100AC000380404848478060A0A08010008182848B3
:100AD0008888FC080808060A0A080100FC80808053
:100AE000F80404048478060A0A080100384080806B
:100AF000F88484848478060A0A080100FC04040847
:100B0000080810101010060A0A080100788484846E
:100B1000788484848478060A0A08010078848484AE
:100B20007C0404040870020707080301C0C0000029
:100B300000C0C00209090803FFC0C0000000C04097
:100B4000408005090908020008102040804020105C
:100B500008060505080102FC000000FC050909085B
:100B60000100804020100810204080060A0A080179
:100B70000078848404081010001010060A0A080186
:100B800000384494ACA4A4A49C403C060A0A080182
:100B9000003048488484FC84848484060A0A08015E
:100BA00000F8848484F884848484F8060A0A08019E
:100BB0000078848480808080848478060A0A080112
:100BC00000F08884848484848488F0060A0A0801FA
:100BD00000FC808080F880808080FC060A0A080182
:100BE00000FC808080F88080808080060A0A0801EE
:100BF0000078848480809C84848C74060A0A0801AE
:100C00000084848484FC8484848484050A0A080221
:100C100000F82020202020202020F8070A0A0801C0
:100C2000003E080808080808888870060A0A0801B3
:100C300000848890A0C0C0A0908884060A0A080199
:100C400000808080808080808080FC060A0A080105
:100C5000008484CCCCB4B484848484060A0A080159
:100C60000084C4C4A4A494948C8C84060A0A080149
:100C70000078848484848484848478060A0A080141
:100C800000F8848484F88080808080070B0B080142
:100C9000FF78848484848484B4CC7806060A0A08A5
:100CA0000100F8848484F89088888484060A0A08FD
:100CB000010078848480601804848478070A0A0814
:100CC0000100FE101010101010101010060A0A0873
:100CD000010084848484848484848478070A0A08D4
:100CE000010082828244444428281010060A0A081F
:100CF000010084848484B4B4CCCC8484060A0A08B9
:100D0000010084844848303048488484070A0A082F
:100D1000010082824444281010101010060A0A08AC
:100D20000100FC0404081020408080FC030C0C0827
:100D300004FFE080808080808080808080E0060AE0
:100D40000A08010080804020201010080404030CD1
:100D50000C0801FFE020202020202020202020E07F
:100D60000603030801093048840701010801FFFE5A
:100D700003030308020A80402006080808010078DF
:100D800084047C84848C74060B0B080100808080B2
:100D9000B8C484848484C4B8060808080100788430
:100DA000808080808478060B0B08010004040474A2
:100DB0008C848484848C74060808080100788484F8
:100DC000FC80808478050B0B08010018202020F897
:100DD000202020202020060B0B0801FE04748888A8
:100DE00088704078848478060B0B0801008080802E
:100DF000B8C4848484848484050B0B0802002020FA
:100E00000060202020202020F8050D0D0801FE089C
:100E1000080018080808080808089060060B0B0866
:100E200001008080808890A0C0A0908884050B0B72
:100E300008020060202020202020202020F8070821
:100E400008080100EC929292929292920608080889
:100E50000100B8C4848484848484060808080100DE
:100E60007884848484848478060A0A0801FEB8C4DD
:100E700084848484C4B88080060A0A0801FE748CC5
:100E8000848484848C740404060808080100B8C4AF
:100E90008480808080800608080801007884806053
:100EA00018048478050A0A080100202020F8202070
:100EB0002020201806080808010084848484848483
:100EC0008C7406080808010084848448484830303F
:100ED000070808080100829292929292926C06088A
:100EE000080801008484483030488484060A0A08CF
:100EF00001FE84848484844C340404780608080841
:100F00000100FC040810204080FC030C0C0803FFC7
:100F1000608080404080804040808060010E0E08EC
:100F200004FE8080808080808080808080808080BF
:100F3000030C0C0802FFC02020404020204040202D
:100F400020C007030308010862928C1010201000D3
:100F5000FEAAAA000180000001800073D1CA104BD4
:100F6000D1CA1073DF8000000180000001800055AD
:100F7000551010201000FEAAAA0001800000018078
:100F800000719DCA5273D3C252425D80000001803D
:100F9000000001800055551010201000FEAAAA0084
:100FA00001800000018000499DCA527A5DCA504903
:100FB0009180000001800000018000555510102034
:100FC0001000FEAAAA00018000000180007393CAED
:100FD00052739FCA127213800000018000000180CA
:100FE0000055551010201000FEAAAA000180000034
:100FF0000180004B93EA525B9FCA524B93800000E2
:101000000180000001800055551010201000FEAA3C
:10101000AA000180000001800074B9A6A425A5A43F
:10102000A474B980000001800000018000555510B3
:1010300010201000FEAAAA00018000000180004BD1
:10104000D1EA105BD1CA104BDF80000001800000A4
:1010500001800055551010201000FEAAAA00018042
:10106000000001800039CDC212319F8852739380F5
:101070000000018000000180005555101020100074
:10108000FEAAAA000180000001800079CDC2127979
:101090009FC0527B938000000180000001800055BA
:1010A000551010201000FEAAAA0001800000018047
:1010B000004B9DC9207919C904493980000001807D
:1010C000000001800055551010201000FEAAAA0053
:1010D0000180000001800025DDA4843C85A48424D7
:1010E00099800000018000000180005555101020FB
:1010F0001000FEAAAA000180000001800045CDC4B6
:10110000904489A88410998000000180000001802B
:101110000055551010201000FEAAAA000180000002
:10112000018000721DCA127213C21243DD800000DA
:101130000180000001800055551010201000FEAA0B
:10114000AA00018000000180007213CA127213C24B
:101150001243CD8000000180000001800055551031
:1011600010201000FEAAAA00018000000180000EDD
:101170002189200E218A20092180000001800000A1
:1011800001800055551010201000FEAAAA00018011
:10119000000001800039DDC202318D8850739F80CC
:1011A0000000018000000180005555101020100043
:1011B000FEAAAA000180000001800039DDC20231D0
:1011C0008D8842739D8000000180000001800055E1
:1011D000551010201000FEAAAA0001800000018016
:1011E0000071CFCA104A0DCA0271DD800000018073
:1011F000000001800055551010201000FEAAAA0022
:10120000018000000180007245CA4C7245C2444111
:101210008F800000018000000180005555101020D3
:101220001000FEAAAA0001800000018000725DCAC1
:1012300042724DC250419F80000001800000018039
:101240000055551010201000FEAAAA0001800000D1
:101250000180003B9DC12031198904713980000053
:101260000180000001800055551010201000FEAADA
:10127000AA000180000001800039D3C212421FC2BF
:101280001239D38000000180000001800055551004
:1012900010201000FEAAAA00018000000180002298
:1012A00089B6882AA9A2D82289800000018000007E
:1012B00001800055551010201000FEAAAA000180E0
:1012C00000000180003B8DC252339F8A127213804E
:1012D0000000018000000180005555101020100012
:1012E000FEAAAA00018000000180007B8DC2527B13
:1012F0009FC2127A13800000018000000180005517
:10130000551010201000FEAAAA00018000000180E4
:1013100000398FC250324D8A42719D800000018099
:10132000000001800055551010201000FEAAAA00F0
:1013300001800000018000339BC42225A394A26396
:101340009B80000001800000018000555510102096
:101350001000FEAAAA000180000001800039DDC251
:101360000832098A0871DD800000018000000180D8
:101370000055551010201000FEAAAA0001800000A0
:1013800001800039DDC2084189C0483B9D800000D2
:101390000180000001800055551010201000FEAAA9
:1013A000AA00018000000180000EF990200C21822B
:1013B000201C218000000180000001800055551094
:1013C00010201000FEAAAA00018000000180003158
:1013D000CFCA104991C850338F80000001800000AF
:1013E00001800055551010201000FEAAAA000180AF
:1013F00000000180001C8992D81CA9908810898067
:1014000000000180000001800055551010201000E0
:10141000FEAAAA0001800000018000338FCA507B21
:1014200091CA104A0F800000018000000180005521
:101430005500000008000E010A0A08040080800020
:1014400080808080808080070A0A08010010107C5C
:10145000929090927C1010070A0A0801001C20202C
:1014600020F82020207CC206080808010184487862
:101470004848784884070A0A08010082442810FE78
:1014800010FE101010010A0A0804008080808000FD
:101490000080808080060A0A0801007884807884B1
:1014A000847804847804020208020C9090080A0AE6
:1014B0000800003C4299A5A1A1A599423C05070757
:1014C000080205700878887800F806090908010004
:1014D000242448489048482424060404080100FCB9
:1014E0000404041010201000FEAAAA000180003A93
:1014F00063C25433C98A48724980000001800003E6
:10150000C18000000180005555080A0A0800003C0F
:1015100042B9A5A5B9A9A5423C06010108010BFCE9
:1015200003040408020A40A0A040070909080101B9
:10153000101010FE10101000FE05070708020570BD
:101540008808708080F80507070802057088087011
:1015500008887003030308030A204080080A0A0869
:1015600000FE42424242424266594080060C0C084C
:1015700001FF7CF4F4F4F47414141414141C020227
:1015800002080304C0C00302020802FE20C00307D1
:10159000070802052060A020202020050707080278
:1015A00005708888887000F8060909080100909085
:1015B00048482448489090060A0A08010044C44854
:1015C0005050242C549C84060A0A08010044C44844
:1015D0005050283444889C060A0A080100C4244854
:1015E00030D0242C549C84060A0A080100101000F4
:1015F00010106084848478060E0E080100601800C4
:10160000003048488484FC84848484060E0E0801DB
:1016100000186000003048488484FC848484840678
:101620000E0E080100304800003048488484FC84D5
:10163000848484060E0E0801006498000030484837
:101640008484FC84848484060E0E080100484800CB
:10165000003048488484FC84848484060E0E08018B
:1016600000304830003048488484FC8484848407F7
:101670000A0A0801003E509090FE909090909E06BD
:101680000C0C0801FE78848480808080848478102B
:1016900060060E0E08010060180000FC808080F8D3
:1016A00080808080FC060E0E08010018600000FC9F
:1016B000808080F880808080FC060E0E080100305B
:1016C000480000FC808080F880808080FC060E0E40
:1016D00008010048480000FC808080F880808080FD
:1016E000FC050E0E08020060180000F820202020E3
:1016F00020202020F8050E0E08020030C00000F85F
:101700002020202020202020F8050E0E0802006056
:10171000900000F82020202020202020F8050E0E28
:1017200008020090900000F8202020202020202097
:10173000F8070A0A08000078444242F24242424452
:1017400078060E0E0801006498000084C4C4A4A4A6
:1017500094948C8C84060E0E0801006018000078AA
:10176000848484848484848478060E0E080100189E
:1017700060000078848484848484848478060E0ED7
:101780000801003048000078848484848484848440
:1017900078060E0E08010064980000788484848422
:1017A0008484848478060E0E08010048480000787E
:1017B00084848484848484847806050508010284F2
:1017C00048304884060C0C0801FF0474888C9494FB
:1017D000A4A4C444B880060E0E08010060180000DE
:1017E00084848484848484848478060E0E080100B2
:1017F0001860000084848484848484848478060E41
:101800000E08010030480000848484848484848429
:101810008478060E0E080100484800008484848401
:10182000848484848478070E0E0801001860000008
:1018300082824444281010101010060B0B0801007F
:101840008080F088848488F0808080060A0A0801FD
:101850000070888890B0888484A498060C0C0801D5
:1018600000601800007884047C84848C74060C0C5E
:10187000080100186000007884047C84848C74065D
:101880000C0C080100304800007884047C84848CAF
:1018900074060C0C080100649800007884047C84B1
:1018A000848C74060C0C08010048480000788404FD
:1018B0007C84848C74060D0D0801003048300000D3
:1018C0007884047C84848C740708080801007C9266
:1018D000127E9090927C060A0A0801FE788480802D
:1018E000808084781060060C0C08010060180000ED
:1018F000788484FC80808478060C0C0801001860D1
:101900000000788484FC80808478060C0C08010038
:1019100030480000788484FC80808478060C0C08B1
:10192000010048480000788484FC80808478050C9D
:101930000C080200C030000060202020202020F889
:10194000050C0C08020030C0000060202020202080
:1019500020F8050C0C080200609000006020202098
:10196000202020F8050C0C08020090900000602058
:101970002020202020F8060C0C08010064182844C0
:10198000047C848484848478060C0C0801006498A8
:101990000000B8C4848484848484060C0C0801008C
:1019A000601800007884848484848478060C0C0891
:1019B0000100186000007884848484848478060C94
:1019C0000C08010030480000788484848484847882
:1019D000060C0C08010064980000788484848484D8
:1019E0008478060C0C080100484800007884848440
:1019F00084848478060707080101300000FC000099
:101A000030060A0A0801FF04788C9494A4A4C478D0
:101A100080060C0C08010060180000848484848413
:101A2000848C74060C0C0801001860000084848407
:101A30008484848C74060C0C0801003048000084F7
:101A400084848484848C74060C0C0801004848004B
:101A5000008484848484848C74060E0E0801FE182D
:101A600060000084848484844C34040478050C0C65
:101A70000802FE8080F088888890A0C08080800660
:101A80000E0E0801FE4848000084848484844C348F
:101A900004047800F339A14511241FBECFEFD1E231
:101AA000DEBFCDBF00E00CBF14E0A0E0B2E0E8E490
:101AB000F2EA00E00BBF02C007900D92A030B10720
:101AC000D9F728E0A0E0B4E001C01D92A53CB20720
:101AD000E1F71DE0CBE4DDE000E006C0219701095D
:101AE000802FFE010E94C04BCA34D10780E0080756
:101AF000A9F70E94C83B0C9412510C940000089561
:101B000080E008958CBD9DBD08958091040890915A
:101B10000508845E944099F184EE94E09093050862
:101B2000809304088091170881112AC0E9EEF4E03F
:101B3000E491E0931808E0EFF4E0E491E0931908F1
:101B400080911808082E000C990B20911908821B0F
:101B5000910927FD939520911A08203441F0829F26
:101B6000C001112426E0969587952A95E1F7809388
:101B70001B0880E89DE0909316088093150808954F
:101B8000813041F4E3EFF4E0E491E0931808E4EFEE
:101B9000F4E0D3CFE1EFF4E0E491E0931808E2EF52
:101BA000F4E0CBCF20E3FC0120833296862F829590
:101BB0008F706F706A3030F4605D6293682F8111AE
:101BC000F5CF0895695CF9CFFC01818D928D089560
:101BD0000895AF92BF92CF92DF92EF92FF920F9350
:101BE0001F93CF93DF936C017B018B01040F151FB3
:101BF000EB015E01AE18BF08C017D10759F069911B
:101C0000D601ED91FC910190F081E02DC60119956E
:101C1000892B79F7C501DF91CF911F910F91FF902B
:101C2000EF90DF90CF90BF90AF900895FC01538D5F
:101C3000448D252F30E0842F90E0821B930B5417A6
:101C400010F0CF96089501970895FC01918D828D33
:101C5000981761F0A28DAE0FBF2FB11D5D968C91CC
:101C6000928D9F5F9F73928F90E008958FEF9FEF0B
:101C70000895FC01918D828D981731F0828DE80FC7
:101C8000F11D858D90E008958FEF9FEF0895FC0181
:101C9000918D228D892F90E0805C9F4F821B91094E
:101CA0008F739927089589E297E00E94470E21E0FB
:101CB000892B09F420E0822F0895FC01A48DA80F40
:101CC000B92FB11DA35ABF4F2C91848D90E001967E
:101CD0008F739927848FA689B7892C93A089B1899E
:101CE0008C91837080648C93938D848D981306C03F
:101CF0000288F389E02D80818F7D80830895EF92A3
:101D0000FF920F931F93CF93DF93EC0181E0888FB5
:101D10009B8D8C8D98131AC0E889F989808185FF85
:101D200015C09FB7F894EE89FF896083E889F98927
:101D300080818370806480839FBF81E090E0DF9129
:101D4000CF911F910F91FF90EF900895F62E0B8D7C
:101D500010E00F5F1F4F0F731127E02E8C8D8E1137
:101D60000CC00FB607FCFACFE889F989808185FF9E
:101D7000F5CFCE010E945D0EF1CFEB8DEC0FFD2F64
:101D8000F11DE35AFF4FF0829FB7F8940B8FEA8959
:101D9000FB8980818062CFCF0F931F93CF93DF9316
:101DA0008C01D0E0C0E0F801EC0FFD1F64916623C8
:101DB00041F089E297E00E947F0E892B11F0219675
:101DC000F2CFCE01DF91CF911F910F910895CF9364
:101DD000DF93EC01888D8823B9F0AA89BB89E88953
:101DE000F9898C9185FD03C0808186FD0DC00FB6F9
:101DF00007FCF7CF8C9185FFF2CF808185FFEDCF77
:101E0000CE010E945D0EE9CFDF91CF91089580E071
:101E100090E0892B29F00E94530E81110E9400004E
:101E200080E090E0892B49F080E090E0892B29F058
:101E30000E94000081110E94000080E090E0892B48
:101E400049F080E090E0892B29F00E940000811188
:101E50000E94000080E090E0892B49F080E090E053
:101E6000892B29F00E94000081110C940000089534
:101E70008150823108F05AC0E82FF0E08827EC5BEF
:101E8000F04F8F4F0C94C04B640F680F560F5C0FD0
:101E9000600F960F6B0F710F750F7B0F7F0F830F06
:101EA000890F8D0F960F910F970F9B0F80918000D8
:101EB0008F77809380000895809180008F7DF9CF87
:101EC00080918000877FF5CF84B58F7784BD08959A
:101ED00084B58F7DFBCF8091B0008F778093B00069
:101EE00008958091B0008F7DF9CF809190008F7719
:101EF000809390000895809190008F7DF9CF80911C
:101F00009000877FF5CF8091A0008F778093A0000D
:101F100008958091A0008F7DF9CF8091A000877FE8
:101F2000F5CF809120018F778093200108958091D3
:101F300020018F7DF9CF80912001877FF5CFCF934E
:101F4000DF93282F30E0F901E654FC4F8491F9012A
:101F5000E85AFB4FD491F901E256FB4FC491CC23D0
:101F6000A1F081110E94380FEC2FF0E0EE0FFF1F5F
:101F7000E056FC4FA591B491EC91ED2381E090E007
:101F800009F480E0DF91CF91089580E090E0FACFEE
:101F90001F93CF93DF93282F30E0F901E654FC4FD5
:101FA0008491F901E85AFB4FD491F901E256FB4FB5
:101FB000C491CC23A9F0162F81110E94380FEC2F69
:101FC000F0E0EE0FFF1FEC5DFB4FA591B4918FB7D2
:101FD000F894EC91111108C0D095DE23DC938FBFEB
:101FE000DF91CF911F910895DE2BF8CFCF93DF9330
:101FF00090E0FC01E85AFB4F249182569B4FFC0174
:1020000084918823C9F090E0880F991FFC01E25C5D
:10201000FB4FA591B491FC01EC5DFB4FC591D491B0
:1020200061110DC09FB7F8948C91209582238C93F9
:102030008881282328839FBFDF91CF910895623044
:1020400051F49FB7F8943C91822F809583238C9311
:10205000E8812E2BEFCF8FB7F894EC912E2B2C9399
:102060008FBFEACF1F93CF93DF93182FEB0161E06F
:102070000E94F60F209739F460E0812FDF91CF9115
:102080001F910C94C80FCF3FD10511F461E0F5CF3B
:10209000E12FF0E0E654FC4FE491E150E23108F02A
:1020A000B3C0F0E08827E85AFF4E8F4F0C94C04B26
:1020B0006A107210771081108B10041195109D100A
:1020C000A510AF10B910C310D210DC100411E61027
:1020D000F010FA1084B5806884BDC7BDDF91CF9140
:1020E0001F91089584B5806284BDC8BDF7CF8091EB
:1020F0008000806880938000D0938900C09388001E
:10210000EDCF80918000806280938000D0938B001F
:10211000C0938A00E3CF8091800088608093800024
:10212000D0938D00C0938C00D9CF8091B00080688F
:102130008093B000C093B300D1CF8091B000806293
:102140008093B000C093B400C9CF809190008068A4
:1021500080939000D0939900C0939800BFCF809156
:102160009000806280939000D0939B00C0939A006F
:10217000B5CF80919000886080939000D0939D00AF
:10218000C0939C00ABCF8091A00080688093A0009A
:102190008091A0008F7B8093A000D093A900C09372
:1021A000A8009CCF8091A00080628093A000D09373
:1021B000AB00C093AA0092CF8091A000886080936A
:1021C000A000D093AD00C093AC0088CF80912001D7
:1021D000806880932001D0932901C09328017ECF8D
:1021E00080912001806280932001D0932B01C093C5
:1021F0002A0174CF80912001886080932001D093C0
:102200002D01C0932C016ACFC038D1050CF03ECF10
:1022100033CF609185047091860488E00E9432106B
:1022200080918504909186040B9734F482E090E0CD
:1022300090930B0280930A0280918504909186040A
:102240008A3F910534F08EEF9FEF90930B028093BD
:102250000A0220910A0230910B028091850490912C
:102260008604820F931F9093860480938504609167
:102270008B0470918C0487E00E94321080918B0453
:1022800090918C0497FD09C080918B0490918C04EF
:10229000449790938C0480938B0480918B0490914D
:1022A0008C04029734F481E090E090938C04809346
:1022B0008B04609101067091020686E00E94321044
:1022C000809101069091020697FD09C08091010658
:1022D000909102060A9790930206809301068091DE
:1022E000010690910206029734F481E090E0909309
:1022F00002068093010608953FB7F89480919C05EB
:1023000090919D05A0919E05B0919F0526B5A89B33
:1023100005C02F3F19F00196A11DB11D3FBFBA2F77
:10232000A92F982F8827BC01CD01620F711D811D37
:10233000911D42E0660F771F881F991F4A95D1F7BC
:1023400008958F929F92AF92BF92CF92DF92EF92B9
:10235000FF924B015C010E947C116B017C010E9489
:102360007C116C197D098E099F09683E73408105B7
:102370009105A8F321E0821A9108A108B10888EE1E
:10238000C80E83E0D81EE11CF11C81149104A10445
:10239000B10429F7FF90EF90DF90CF90BF90AF90FE
:1023A0009F908F9008952FB7F89460919805709141
:1023B000990580919A0590919B052FBF0895DC01A6
:1023C0001696ED91FC91179712968C91481B4770C9
:1023D00081E090E001C0880F4A95EAF7E60FF11D11
:1023E0003081222319F0832B8083089580958323E5
:1023F000FBCFFB014181DC0112962C911297421711
:1024000068F013962C911397241740F0608115966D
:102410002C91621718F424810C94DF110895FC01AB
:1024200080819281980F92832181921760F4948128
:102430009F5F94839381890F821710F08FEF820F33
:10244000838381E0089580E00895FC0112828081F9
:102450008150838314820895DB01ED91FC911994DE
:102460000F931F93CF93DF931F92CDB7DEB70091E9
:10247000020810910308E0913108F091320882E0DF
:10248000199530E020E04AE0B80180E098E00E9431
:102490002C12182FE0913108F091320883E0199541
:1024A000E0913108F091320880E019951123B9F1DB
:1024B00060910208709103089E012F5F3F4F46E430
:1024C00080E098E00E942C1289818093000860913E
:1024D0000208709103089E012F5F3F4F47E480E0A0
:1024E00098E00E942C128981809301086091020873
:1024F0007091030830E020E048E480E098E00E941A
:102500002C1280930B08609102087091030823E35A
:1025100038E047E180E098E00E942C1211E0812F22
:102520000F90DF91CF911F910F910895CF93DF937B
:1025300080913908811105C081E0809339080E949B
:102540003012C0910208D0910308E0913108F09157
:10255000320882E01995E0913108F091320881E06B
:10256000199530E020E044E1BE0180E098E00E944F
:102570002C1223E338E047E1BE0180E098E00E949E
:102580002C12E0913108F091320880E0DF91CF9178
:1025900019940F931F93CF93E0910E08F0910F08B9
:1025A000309719F080E098E0199500910208109199
:1025B0000308E0913108F091320882E01995E0912A
:1025C0003108F091320881E0199530E020E045E1D2
:1025D000B80180E098E00E942C12C82F882341F0B7
:1025E00023E338E047E1B80180E098E00E942C1234
:1025F000E0913108F091320880E019958C2FCF914D
:102600001F910F9108950B96FC01849108950A96ED
:10261000FC0184910895FC01849108950E940B139C
:10262000882321F0823011F083E0089586E0089538
:10263000FC01E60FF11D849190E0982F88273196D8
:10264000E4918E0F911D089568E00C94181366E0D4
:102650000C9418135F926F927F928F929F92AF9219
:10266000BF92CF92DF92EF92FF920F931F93CF937F
:10267000DF93EC01E62EF42EC22E0C811D81C801E1
:102680000E940B13D82E8C819D810E940E13982ED0
:1026900021E0AA24AA94D21202C02FE0A22E8C819B
:1026A0009D810E940713D82E8C819D810E94031367
:1026B000B82E8C819D810E942413E0E6EC1578F4FD
:1026C000009769F0080F191F91E6D92EBC14C0F4C9
:1026D000188A1B8A1C8A198A1A8A80E0A0C08C81F9
:1026E0009D810E942713F0E4FC1538F4009729F02F
:1026F000080F191F81E4D82EE9CF0F5E1F4FE6CFD8
:10270000BD1430F3892D90E0F80124912F3F31F46E
:102710000F5F1F4FBD14E1F2D394F6CFCD1072C0FE
:102720008C819D810E940B1398012F5F3F4FF80110
:10273000882319F0823009F04EC084918B8BF90107
:1027400024912C8BF8013396E491E88BF8013496B0
:10275000E491E98BF8013596E491EA8B01151105B6
:1027600009F4BBCF8C819D810E940E133C89F31A22
:102770009A89F91A9FEF930F9F0D2CA94EA94F1517
:1027800008F449C0921718F49F1508F047C02B8928
:102790009989E90E9FEF920F9E0D4BA95DA95E15D9
:1027A00008F44DC0941718F49E1508F037C0080FB0
:1027B000111D295F722E7694769476946F2C630E99
:1027C0005E01FCE1AF0EB11C872C912CF61431F1A7
:1027D0005E2C68014AC08491982F9F7092509A8B0A
:1027E00082958F70898BF9012491822F8F708C8B49
:1027F00022952F702B8BF8013296E491E295EF70C1
:10280000E88BACCF3296E491EA21E80FF92FF11D65
:102810000E0F1F1F7FCF921708F0B6CF8889DF9168
:10282000CF911F910F91FF90EF90DF90CF90BF90CD
:10283000AF909F908F907F906F905F9008959417C6
:1028400008F0B2CFEBCFF60184916A817B815C8E78
:10285000FD8E1F8E8E8F95014BE3CE010E942C12B0
:10286000FFEFCF1ADF0A28E0520E8C2D801B871550
:1028700050F3080D191DF394A9CFEF92FF920F9317
:102880001F93CF93DF93F82E062FE42E152FE091A0
:102890001508F091160880E098E01995080FCE2DE4
:1028A000D12F10E02991211108C0812FDF91CF9104
:1028B0001F910F91FF90EF900895402F6F2D80E0B2
:1028C00098E00E942A13F80E180FECCF2EE93FE093
:1028D000009709F40895F9013197F1F70197F8CFBE
:1028E000CF93DF931F921F92CDB7DEB720ED37E075
:1028F0003A8329839091BC00982311F081E00FC0A6
:1029000029813A81232B81F480913B0681FDF6CF0A
:1029100080913A0681110DC091E090933A060F9094
:102920000F90DF91CF91089529813A81215031098B
:10293000DFCF80E0F4CF84EA8093BC0061E080E8E0
:102940000E947014811102C080E008958091B90046
:10295000887F883051F0803141F080913A068111B2
:10296000F3CF82E080933A06EFCF88E78093BB00F5
:1029700084E88093BC0062E080E80E9470148823A1
:1029800019F380913B0681FD05C08091B900887FD5
:10299000883119F781E0089584E98093BC0064E0F0
:1029A00080E10C9470148093BB0084E88093BC0099
:1029B00063E080E80E9470148823A1F080913B06B8
:1029C00081FD0DC08091B900887F883241F08091EF
:1029D0003A06811106C092E090933A06089581E08C
:1029E000089580E0089510923A06089580933B067A
:1029F0001092B90084FF05C08CE08093B8000C945D
:102A0000F31488E4FACFCF93DF93FC0123A52223AC
:102A100089F0EC010E949B14811104C080E0DF91D9
:102A2000CF9108958EA1811107C00E94D3148823ED
:102A3000A9F31BA681E0F3CF80E4F7CF0F931F9398
:102A4000CF93DF93C62FD42F8901633001F138F47F
:102A5000613099F0623009F449C0C1E012C06630BB
:102A600029F1673091F16530C1F70E94031581119A
:102A700017C00E94CC14C0E004C0FC0186A50E94CF
:102A8000F6148C2FDF91CF911F910F910895FC01C7
:102A900016A221E023A74111E0CF0E94CC14DDCF84
:102AA0008D2F0E94D3148111D8CFE3CF0E9403153C
:102AB0008823F9F2DD2389F2F80181918F010E94C8
:102AC000D3148823B1F2D150F5CF0E940315882387
:102AD00081F2DD2311F2F80184910E94D314C82FF2
:102AE000882379F20F5F1F4FD150F3CFFC0146A32B
:102AF00021E023A7B2CFDB011496ED91FC9130E0E9
:102B000020E065E01994DB011496ED91FC9130E032
:102B100020E062E01994DB011496ED91FC9130E025
:102B200020E063E01994CF92DF92EF92FF920F932F
:102B30001F93CF93DF938C017B016A0180E0F60144
:102B4000C491811110C081E0CF3F49F04C2FB701F3
:102B5000C8010E947B15882309F444C080E0BFEFC0
:102B6000CB1ADB0AECCF4FEFCF3F89F3CE3FD9F141
:102B7000C03FA0F7C03E38F04C2F4F70B701C801DE
:102B80000E948315EBCFC03D38F04C2F4F70B7013A
:102B9000C8010E948B15E2CFC03CF8F0D701149613
:102BA000ED91FC9130E020E040E064E0C80119952F
:102BB000C295C07FCE5FD0E0CE010E946614D701DF
:102BC0001496ED91FC9130E020E041E064E0C80112
:102BD0001995CE010E946614C1CFC7FDBFCF8C2FBF
:102BE00090E0F8CF80E0DF91CF911F910F91FF909F
:102BF000EF90DF90CF900895AF92BF92CF92DF9287
:102C0000FF920F931F93CF93DF936C018B01F42EF0
:102C1000E90180E1481709F47EC0841778F1AAE041
:102C20004A1709F461C0BFE04B1709F47FC0F801EF
:102C300002811381F2E3FF1609F4DDC0FF1508F4E9
:102C40008EC085E1F81609F4DBC0A7E1FA1609F495
:102C5000ECC0B4E1FB1265C0D8011696ED91FC9171
:102C6000179715968C918E0F9F2F911D11928E178D
:102C70009F07E1F7C8010E94251253C0E1E14E17FA
:102C800009F451C0F5E14F13D2CFFB01A280B3800C
:102C900042E753E0C6010E949315D50114964C916A
:102CA000406BB801C6010E947B1541E0B801C60126
:102CB0000E948315F50126813781D8011496ED9184
:102CC000FC91D50115964C9166E0C60119958111CC
:102CD0001CC080E0DF91CF911F910F91FF90DF909A
:102CE000CF90BF90AF900895DB011496ED91FC91C9
:102CF00030E020E042E061E0C60119954AE753E088
:102D0000B801C6010E94931592CF40E0B801C601F8
:102D10000E948B158CCF49E653E0B801C6010E9492
:102D2000931581E0D7CF4EE553E0F7CF41E0C601E0
:102D30000E948B1540E0B801C6010E94831541E84E
:102D4000B801C6010E947B154881B801C6010E94E6
:102D50007B1540E0B801C6010E948B15E2CFE6E486
:102D6000FE1609F46CC0F7E4FF1609F46DC08BE39E
:102D7000F812D7CF99818B8138E0390F813031F04B
:102D8000833011F0392F02C0392F985021E0D8013B
:102D900013964C91491708F420E041E0391708F0E8
:102DA00040E091E0F8015281351708F490E0322FAD
:102DB000342B932319F4242309F4B3CFFA80D12CB4
:102DC000C12C843048F490E0FC01E65DFD4FC080EA
:102DD0008A5D9D4FDC01DC90F7FE04C0BE01C80196
:102DE0000E94F91188818C0D888389818D0D8983DA
:102DF000FF0C91F796CFBE01C8010E94F91191CF47
:102E0000C8010E940F12882309F463CFD8011696D7
:102E1000ED91FC91179715968C918E0F9F2F911D18
:102E200011928E179F07E1F77CCF1882F8018281FB
:102E30008983858181508A8383818B8372CFD80176
:102E400015968C9188836DCFF8018181FBCF862FF9
:102E5000642F0C94F60FFC0181850E949F0F21E0E6
:102E6000892B09F420E0822F08950F931F93CF93AD
:102E7000809142088B7F809342088AE398E00E9409
:102E80002B17C82F8091420886958170C817C9F00A
:102E90000E94D31160933C0870933D0880933E08D4
:102EA00090933F088091420892E0892780934208DE
:102EB0008091420882FB882780F9CF911F910F9162
:102EC00008950E94D31100913C0810913D08209173
:102ED0003E0830913F08AB01BC01401B510B620B17
:102EE000730B8091400890914108B0E0A0E0481732
:102EF00059076A077B07E0F2809142088170C81782
:102F0000B9F20E94D31160933C0870933D088093FE
:102F10003E0890933F088091420891E089278460A1
:102F2000809342080E94D3110091440810914508F3
:102F30002091460830914708601B710B820B930B60
:102F4000609348087093490880934A0890934B080F
:102F50000E94D311609344087093450880934608FB
:102F600090934708A5CFFB0124813581428153818D
:102F70002417350750F4A081B181A20FB31F8C93A1
:102F80008481958101969583848380E00895CF9311
:102F9000DF93EC01E881F9810284F385E02DCE0115
:102FA00019950196B9F7DF91CF910895CF93DF93EB
:102FB000EC01E881F9810284F385E02DCE011995B9
:102FC0008F3F980769F0E881F981813291059CF380
:102FD0000684F785E02D682FCE01199590E080E0FA
:102FE000DF91CF910895FC01A285B3851097A9F0D8
:102FF00086859785029788F0CD0101969387828711
:103000006C93868597850197978786870284F385D9
:10301000E02D108281E090E0089590E080E0089536
:10302000FC01868197818F3F980729F02FEF3FEFB2
:10303000378326830895A085B185109789F024856C
:1030400035852115310561F0CD0101969187808785
:103050008C912150310935872487082E000C990B5B
:103060000895FC0186819781019639F481E02485D9
:103070003585232B19F480E0089581E00895CF92DF
:10308000DF92EF92FF920F931F93CF93DF937C0118
:103090006A018B01D0E0C0E0CC15DD0581F0D701DD
:1030A000ED91FC910284F385E02DC70119958F3FC6
:1030B000980729F0F80181938F012196EDCFCE0179
:1030C000DF91CF911F910F91FF90EF90DF90CF9004
:1030D0000895062E000C770BFC0177836683089514
:1030E000FC01848195810895FC01A681B7819D0131
:1030F0002F5F3F4F8481958140855185840F951FB7
:103100002817390750F4378326836C930680F7819C
:10311000E02D108281E090E0089590E080E0089535
:10312000FC0120812EBD9B012150310941F05181CC
:103130000DB407FEFDCF4EB55EBD4193F5CF615096
:103140007109860F971F0DB407FEFDCF2EB5FC0148
:1031500020830895E0917506F09176068081909124
:103160007406892B80830895E0917506F0917606A8
:1031700090818091740680958923808308958EBD07
:1031800000000DB407FEFDCF8EB50895AF92BF923B
:10319000CF92DF92EF92FF920F931F93CF93DF9323
:1031A00000D000D01F921F92CDB7DEB78C017B01FB
:1031B0006A01809178068333E1F45801A40EB51EAC
:1031C000A016B10609F46FC00E94B41880EF0E94E7
:1031D000BF18812F0E94BF18802F0E94BF180F5F59
:1031E0001F4FF70181917F010E94BF180E94AA180A
:1031F000E7CF5B01A40EB51E8433C1F40E94B4185E
:1032000019830A838D2D80688B83CC8264E070E003
:10321000CE0101960E949018AE14BF0409F441C07B
:10322000F70181917F010E94BF18F6CF0E94B41868
:103230000F3F110509F028F419820A8384E08B837B
:103240000CC017FD17C019820A8333E01695079545
:103250003A95E1F7007E0C600B8386E0C816D10436
:10326000A0F5F701DE011496EA15FB0599F08191AE
:103270008D93FACFC80126E0969587952A95E1F7B8
:10328000807E19830A830115104C10F48461D7CF16
:103290008C61D5CFB6016D5F7F4FCE0101960E9444
:1032A00090180E94AA18C60128960FB6F894DEBF9F
:1032B0000FBECDBFDF91CF911F910F91FF90EF9087
:1032C000DF90CF90BF90AF90089563E070E0CE01A3
:1032D00001960E949018F70181917F010E94BF180A
:1032E000AE14BF04C1F7DDCFCF93DF931F92CDB7EC
:1032F000DEB7898341E050E0BE016F5F7F4F90E011
:1033000080E00E94C6180F90DF91CF91089590E061
:1033100020917806233339F40C96982F990F990F42
:10332000990F80E008954896F8CFDA01E091790688
:10333000F0E0FE2FEE27E60FF71F90E0982F88278A
:10334000A901BD018E0F9F1F0C94C618CF93DF9368
:103350001F921F92CDB7DEB779836A8322E030E0F7
:10336000AE014F5F5F4F60E170E00E9495190F90D2
:103370000F90DF91CF910895CF93DF931F921F920B
:10338000CDB7DEB779836A8322E030E0AE014F5FCC
:103390005F4F64E070E00E9495190F900F90DF91ED
:1033A000CF910895CF93DF931F92CDB7DEB72091D1
:1033B000790630E0322F2227260F371F90E0982F12
:1033C0008827498341E050E0BE016F5F7F4F820F45
:1033D000931F0E94C6180F90DF91CF910895CF934D
:1033E000DF931F92CDB7DEB76983DC01ED91FC91CD
:1033F0000280F381E02D41E050E0BE016F5F7F4F1E
:1034000019950F90DF91CF910895FC019485FB01F0
:103410008485981303C081E0983008F080E0089517
:10342000CF93DF931F92CDB7DEB76983DC01ED91B7
:10343000FC910280F381E02D41E050E0BE016F5F1E
:103440007F4F19950F90DF91CF91089544E050E0A0
:10345000BC018FE090E00C94C61844E050E0BC0141
:1034600085E090E00C94C61844E050E0BC0181E097
:1034700090E00C94C61808950F931F93CF93DF9399
:1034800000D000D0CDB7DEB78C0180E591E00E947E
:10349000820D86EC92E09A838983F8018281938180
:1034A000A481B5818B839C83AD83BE83CE010396BB
:1034B0000E942D1A26960FB6F894DEBF0FBECDBF20
:1034C000DF91CF911F910F9108950F931F93CF9389
:1034D000DF9300D000D0CDB7DEB78C0180E591E05E
:1034E0000E94820D86EC92E09A838983F8018281A2
:1034F0009381A481B5818B839C83AD83BE83CE01F0
:1035000003960E94341A26960FB6F894DEBF0FBEBB
:10351000CDBFDF91CF911F910F9108950F931F930E
:10352000CF93DF9300D000D0CDB7DEB78C0180E51C
:1035300091E00E94820D86EC92E09A838983F801E3
:1035400082819381A481B5818B839C83AD83BE836B
:10355000CE0103960E94261A26960FB6F894DEBF77
:103560000FBECDBFDF91CF911F910F910895FF92B4
:103570000F931F93CF93DF93EB01FC01178A168AF9
:103580002A81211109C02B81211106C02C81211112
:1035900003C02D81222301F141155105E9F08A0173
:1035A000FC01F08C80E591E00E94820DAE014E5F3F
:1035B0005F4F24E030E06CE070E08F2D0E949519A1
:1035C000B8018F2D0E94A61981E090E0DF91CF9184
:1035D0001F910F91FF90089580E0F7CFFC01848543
:1035E00095850895FC0184899589089526EC32E03B
:1035F000FC0131832083FB014089518962897389F1
:10360000FC0142835383648375830895DC01ED914B
:10361000FC91048CF58DE02D1994CF92DF92EF92FE
:10362000FF920F931F930E94D3118B019C01C090B6
:103630009304D0909404E0909504F09096046091E7
:103640008F047091900480919104909192040C19D0
:103650001D092E093F09083E134021053105E0F000
:10366000DC01CB010196A11DB11D80938F049093C5
:103670009004A0939104B0939204B701A60148511D
:103680005C4F6F4F7F4F409393045093940460932B
:10369000950470939604C7CF1F910F91FF90EF9000
:1036A000DF90CF9008950F931F93CF93DF93EC019A
:1036B000FC0110E000E00F5F1F4F81918111FBCFF3
:1036C0000C0F1D1F20E030E0A901C017D107B1F099
:1036D000E99180ED8E0F8A30C0F7AAE0B0E00E9439
:1036E0002E494E2F4053550B9A01032E000C440BCC
:1036F000550B260F371F481F591FE7CFCA01B901C5
:10370000DF91CF911F910F910895DF92EF92FF9279
:103710000F931F93CF93DF93EC01D62E1CAD0BAD0F
:103720007C0184E0E80EF11CE98DFA8DC701199542
:10373000412F480F2D2D602FC7010E942A139BADEA
:10374000890F8BAF81E090E0DF91CF911F910F91B6
:10375000FF90EF90DF900895FC01768765870895CC
:10376000DC01ED91FC91068CF78DE02D199591E02F
:1037700089270895862F089581E08627089521E0FE
:10378000FC018485883008F020E0822F0895089598
:1037900090E080E008950F931F93CF93DF93EC01A7
:1037A0002097F9F00A811B81888587FD06C08E81EC
:1037B0009F81009711F00E94CB1B8885853031F4E2
:1037C00089859A85009711F00E946B4C88819981B8
:1037D000009711F00E946B4CCE010E946B4CE801E7
:1037E000DFCFDF91CF911F910F910895CF93DF939A
:1037F000EC0188819981009711F00E946B4C19822D
:1038000018821D821C821B821A82DF91CF9108953B
:10381000FC0180819181009711F00C946B4C08950C
:10382000AF92BF92CF92DF92EF92FF920F931F93CE
:10383000CF93DF9359018B017B01E40EF51EC3EE9C
:10384000D6E0C82E880FDD08A50170E060E0CE014B
:103850000E944946F80161938F01B601CE010E9492
:103860000D4E009749F0FC012081222329F0EC0144
:1038700021960E151F0541F7DF91CF911F910F91F2
:10388000FF90EF90DF90CF90BF90AF9008950F938F
:103890001F93CF93DF93FC0104811581011511055E
:1038A00039F4FB011082DF91CF911F910F910895A0
:1038B0000F30110510F00FE010E0EB01FC0160810A
:1038C0007181A801CE010E942D4EC00FD11F188218
:1038D000EACFAF92BF92CF92DF92EF92FF920F9317
:1038E0001F93CF93DF9300D01F92CDB7DEB78C012B
:1038F0006B017A01809178068333E9F45B016801FA
:10390000C40ED51EC016D106A9F10E94B4188FE0CE
:103910000E94BF18812F0E94BF18802F0E94BF18DD
:103920000F5F1F4F80E00E94BF18F50181935F0178
:103930000E94AA18E7CF843369F50E94B41819834E
:103940000A838F2D8F778B83EC8264E070E0CE0149
:1039500001960E949018A70170E060E0C6010E94E5
:10396000F34DE114F10421F0B701C6010E94901853
:103970000E94AA18C7010F900F900F900F90DF912F
:10398000CF911F910F91FF90EF90DF90CF90BF905C
:10399000AF9008950E94B4180F3F110509F030F45C
:1039A00019820A831B8263E070E0D1CF17FD0BC040
:1039B00019820A8333E0169507953A95E1F7007E60
:1039C00008600B83F0CFC80126E0969587952A956D
:1039D000E1F7807E19830A830115104C18F4806189
:1039E0008B83E1CF8861FCCFCF93DF931F92CDB75C
:1039F000DEB72091790630E0322F2227260F371FBD
:103A000090E0982F882741E050E0BE016F5F7F4F24
:103A1000820F931F0E94691C89810F90DF91CF91C3
:103A20000895CF93C82F462F61E070E00E94D2190D
:103A300061E070E08C2F0E94F41C8111F9CFCF91CE
:103A40000895CF93C82F80E591E00E94820D68E031
:103A500070E08C2FCF910C94111DCF93C82F80E56F
:103A600091E00E94820D60E170E08C2FCF910C9468
:103A7000111DCF93DF93EC01888D883020F40E94D4
:103A80002D1D88E0888FDF91CF910895CF93C82FA7
:103A900080E591E00E94820D63E070E08C2FCF9171
:103AA0000C94F41CCF93DF93EC018C858830D0F418
:103AB0000E94461D843189F0882379F0883169F0AD
:103AC00021E08C3159F4E881F9810084F185E02D01
:103AD000CE01199521E0892B09F420E0822FDF9196
:103AE000CF91089580E0FBCFCF92DF92EF92FF92CB
:103AF000CF93DF93EC018C85883068F40E94211D00
:103B00000E94D3116B017C018C850E94461D81119E
:103B100009C088E08C87DF91CF91FF90EF90DF9014
:103B2000CF90089561E070E080E090E00E94A111E4
:103B30000E94D311AB01BC014C195D096E097F09CC
:103B40008D859E85B0E0A0E0481759076A077B077E
:103B5000D8F28C850E942D1DDCCFCF93FC01C08D47
:103B600080E591E00E94820D60E270E08C2F0E945F
:103B7000111D62E070E08C2F0E94F41C84FD16C0C1
:103B800062E070E08C2F0E94F41C83FF0AC048E1C1
:103B900062E070E08C2F0E94D21980E090E0CF911B
:103BA000089580E591E00E94820DE3CF40E162E05C
:103BB00070E08C2F0E94D21981E0F0CFCF93DF9379
:103BC0001F92CDB7DEB741E050E0BE016F5F7F4F7F
:103BD00090E080E00E94691C89810F90DF91CF9175
:103BE0000895CF93DF93C4E1D0E00E94DE1D8823C7
:103BF00061F061E070E080E090E00E94A111219707
:103C0000A1F780E0DF91CF91089581E0FBCF1F9372
:103C1000CF93DF931F92CDB7DEB7182F80E591E0E9
:103C20000E94820D812F0E94871927E0129FF001C8
:103C30001124E45CF94F22813381377041E050E078
:103C4000BE016F5F7F4F820F931F0E94691C8981A5
:103C50000F90DF91CF911F910895FC01808D8830E6
:103C600040F4218D328D232B21F00E94071E90E01D
:103C700008958FEF9FEF0895CF93DF93FC01248584
:103C8000283028F08FEF9FEFDF91CF910895EC015E
:103C90000190F081E02D0084F185E02D1995892BAC
:103CA00089F38C850E94071E90E0EECFDA01E09147
:103CB0007906F0E0FE2FEE27E60FF71F90E0982F31
:103CC0008827A901BD018E0F9F1F0C94691C8F923C
:103CD0009F92AF92BF92CF92DF92EF92FF920F939B
:103CE0001F93CF93DF93CDB7DEB760970FB6F894ED
:103CF000DEBF0FBECDBF7C0190917806911115C03B
:103D000018E0812F60960FB6F894DEBF0FBECDBFCE
:103D1000DF91CF911F910F91FF90EF90DF90CF90A7
:103D2000BF90AF909F908F90089508E0933309F46F
:103D300004E06B0180E591E00E94820D9E012F5FFF
:103D40003F4F5901490110E063E070E0812F0E946C
:103D5000F41CF40181934F018823C1F01F5F01130C
:103D6000F3CF00E0F50181915F018D3149F0883199
:103D700039F08A51823020F00F5F1013F3CFC0CF9B
:103D800060E170E0802F0E94111D102FA12EB12C38
:103D900083EE93E00197F1F742E870E060E0812F55
:103DA0000E94D2194FEF62E070E0812F0E94D21979
:103DB000B601C114D10491F480910D0290910E02CC
:103DC00001968115F0EC9F0708F45CC090930E02F9
:103DD00080930D0260910D0270910E02812F0E945E
:103DE000BC1986E0E0E2F2E0DE01199601900D9246
:103DF0008A95E1F7F70183818F778C8784818D879E
:103E000085818E87A7014E5F5F4F24E030E06CE034
:103E100070E0812F0E949519B601812F0E94A6198A
:103E200026E030E0AE01475F5F4F66E070E0812F33
:103E30000E94951961E070E0812F0E94111D27E01A
:103E40002A9DC0012B9D900D11249C01245C394FAB
:103E50007901F9011182108222E030E0AE01415F68
:103E60005F4F68E270E0812F0E94561E8F8598890F
:103E7000982789279827F7019383828316821582D2
:103E800014823FCF80E090ECA1CFCF92DF92EF92EF
:103E9000FF920F931F93CF93DF9300D000D0CDB745
:103EA000DEB78C016B017A01FC01808D883010F443
:103EB0000E942D1D86EC92E09A838983F60182810F
:103EC0009381A481B5818B839C83AD83BE83B7012D
:103ED000CE0101960E94671EF801808F8830A0F401
:103EE000F586E486128E118E81E026960FB6F89440
:103EF000DEBF0FBECDBFDF91CF911F910F91FF901D
:103F0000EF90DF90CF90089580E0EFCF7F928F9277
:103F10009F92AF92BF92CF92DF92EF92FF920F9358
:103F20001F93CF93DF931F921F92CDB7DEB7782EEA
:103F30008B014A01590122E030E0AE014F5F5F4F33
:103F400064E270E00E94561EE980FA80FE24EF24AD
:103F5000FE24E00EF11E9701377040917806072D80
:103F600010E0433309F042C0085F1F4F102F0027B5
:103F7000110F110F110FC901800F911F4733C9F1A4
:103F8000A9014A0D5B1D4130584098F160E078E08E
:103F90006B01C21AD30AA601B4010E94C618A5017A
:103FA0004C195D09B4016C0D7D1DC8010E94C61835
:103FB000EA0CFB1CF982EA8222E030E0AE014F5F9E
:103FC0005F4F64E270E0872D0E9495190F900F906B
:103FD000DF91CF911F910F91FF90EF90DF90CF90E5
:103FE000BF90AF909F908F907F900895005F1F4F7C
:103FF000BDCFA501B401DACFEF92FF921F93CF930B
:10400000DF931F921F92CDB7DEB7182F22E030E06A
:10401000AE014F5F5F4F60E270E00E94561EE98084
:10402000FA80FE24EF24FE2422E030E0AE014F5F50
:104030005F4F60E270E0812F0E94561E89819A8155
:10404000982789279827E816F90689F487E0189FAA
:10405000F0011124E45CF94FF582E482C7010F906E
:104060000F90DF91CF911F91FF90EF9008957C0109
:10407000DBCF1F93CF93DF93182F80E591E00E9451
:10408000820D812F0E94FC1FEC0163E070E0812F04
:104090000E94F41C873121F08C3111F0D0E0C0E097
:1040A000CE01DF91CF911F910895CF93DF93EC0163
:1040B0008C85883060F40E94461D873111F08C3168
:1040C00031F48C850E9439208115984088F3DF9166
:1040D000CF910895FC018485883010F40C94392028
:1040E00090E080E008959F92AF92BF92CF92DF92CE
:1040F000EF92FF920F931F93CF93DF938C015B019D
:10410000942EE52EFC01C688D788F08C80E591E0DE
:104110000E94820D8F2D0E94FC1FC92DDE2D8C1751
:104120009D0708F4EC019E01A501B6018F2D0E94A8
:10413000861FF801868997898C0F9D1F978B868B28
:10414000CE01DF91CF911F910F91FF90EF90DF9003
:10415000CF90BF90AF909F9008958F929F92AF9213
:10416000BF92CF92DF92EF92FF920F931F93CF9364
:104170006C015B018A01FC01C485C830F0F57A014D
:104180004130584018F0E12C88E0F82E80E591E0AD
:104190000E94820D8C2F0E94FC1F4C0163E070E096
:1041A0008C2F0E94F41C873111F08C3149F58E144C
:1041B0009F0460F380E591E00E94820D9701A501C4
:1041C00070E060E08C2F0E94861F60E270E08C2F10
:1041D0000E94111D62E070E08C2F0E94F41C84FD8F
:1041E00017C063E070E08C2F0E94F41C81110BC09B
:1041F00081E090E0F6019383828310E000E010C03C
:10420000F12CE12CD7CF80E591E00E94820DE2CF26
:1042100040E162E070E08C2F0E94D219EF2841F358
:10422000C801CF911F910F91FF90EF90DF90CF9039
:10423000BF90AF909F908F900895FF920F931F9320
:10424000CF93DF931F921F92CDB7DEB7F82E22E0F7
:1042500030E0AE014F5F5F4F66E270E00E94561E95
:1042600009811A8110270127102722E030E0AE01D2
:104270004F5F5F4F66E270E08F2D0E94561E89816E
:104280009A819827892798270817190749F4C801A0
:104290000F900F90DF91CF911F910F91FF90089594
:1042A0008C01E3CF1F93CF93DF93182F87E0189FE4
:1042B000E0011124C45CD94F88819981009761F491
:1042C00080E591E00E94820D812F0E941D212E81A8
:1042D000821B910999838883DF91CF911F91089563
:1042E000FC018485883010F40C94522190E080E029
:1042F00008954F925F927F928F929F92AF92BF925A
:10430000CF92DF92EF92FF920F931F93CF93DF93A1
:104310001F921F92CDB7DEB7782E6B014A01A82EEF
:10432000B12C27E0829FC0011124FC01E45CF94F0D
:104330007F010081118180E591E00E94820D0815C6
:10434000190554F4872D0E941D21F70126818C0147
:10435000021B1109118300830115110529F563E082
:1043600070E0872D0E94F41C843159F0882349F0B5
:1043700001E010E08C3111F410E000E0119501959E
:104380001109C8010F900F90DF91CF911F910F91EC
:10439000FF90EF90DF90CF90BF90AF909F908F9065
:1043A0007F905F904F900895801691060CF48401E1
:1043B00087E08A9DF0018B9DF00D1124E45CF94F9C
:1043C000E280F380C114D10451F12701F7E05F22AC
:1043D000872D0E948719840D951D2091780627331B
:1043E00009F453C09801240D351D2130384008F4DC
:1043F0004CC020E038E0490184189508A401B601BA
:104400000E94691C2601480C591C6801C818D9086B
:10441000872D0E948719A601B2010E94691CE00E37
:10442000F11E87E08A9DF0018B9DF00D1124E45C64
:10443000F94FF382E28220813181201B310B3183DD
:1044400020838681800F912F911D8A3F910510F462
:10445000232BF1F487E08A9DF0018B9DF00D112450
:10446000E45CF94F1682F982EA8222E030E0AE0184
:104470004F5F5F4F68E270E0872D0E94951960E4FE
:1044800070E0872D0E94111D7CCFA801B601C5CF19
:10449000868377CFCF93DF93FC01218D328D211559
:1044A000310529F48FEF9FEFDF91CF910895EC0153
:1044B000808D4217530708F0A9010E947921181630
:1044C000190684F7298D3A8D281B390B3A8F298FCD
:1044D000EBCF0F931F93CF93DF931F92CDB7DEB730
:1044E000FC01218D328D232B41F48FEF9FEF0F9034
:1044F000DF91CF911F910F9108958C0141E050E021
:10450000BE016F5F7F4FFC01808D0E9479211816DC
:1045100019065CF7F801818D928D0197928F818F3A
:10452000898190E0E4CFCF93DF931F92CDB7DEB7C0
:1045300041E050E0BE016F5F7F4FFC0184850E9427
:1045400079211816190634F4898190E00F90DF91D3
:10455000CF9108958FEF9FEFF9CFFC0184858830CC
:1045600010F40C94792190E080E008958F929F924E
:10457000AF92BF92CF92DF92EF92FF920F931F9371
:10458000CF93DF9300D000D000D01F92CDB7DEB71D
:1045900090917806911115C018E0812F2A960FB6D8
:1045A000F894DEBF0FBECDBFDF91CF911F910F9169
:1045B000FF90EF90DF90CF90BF90AF909F908F9043
:1045C000089528E0F22E933311F494E0F92E6B0154
:1045D000082F80E591E00E94820D9E012F5F3F4FE2
:1045E0005901490110E063E070E0812F0E94F41C42
:1045F000F40181934F018823C1F01F5FF112F3CFC3
:10460000F12CF50191915F019D3149F0983139F01C
:104610009A51923020F0F3941F11F3CFBDCF60E197
:1046200070E08F2D0E94111D1F2DE12EF12C83EEC5
:1046300093E00197F1F7402F70E060E0812F0E9436
:10464000D2194FEF62E070E0812F0E94D219B601BB
:10465000CD2889F480910D0290910E02019681156A
:10466000F0EC9F0798F190930E0280930D026091F9
:104670000D0270910E02812F0E94BC1961E070E062
:10468000812F0E94111D27E02E9DC0012F9D900DAE
:1046900011249C01245C394F7901F90111821082A7
:1046A00022E030E0AE01475F5F4F68E270E0812FAB
:1046B0000E94561E89859A85982789279827F70191
:1046C0009383828316821582148267CF80E090ECF8
:1046D000CACF0F931F93CF93DF93EC018B01888D8B
:1046E000883010F40E942D1DB80182E00E94B6228D
:1046F000888F883050F41D870C871A8E198E81E0C0
:10470000DF91CF911F910F91089580E0F9CFCF9263
:10471000DF92EF92FF921F93CF93DF93EC017B0127
:104720006A018C85883048F40E94461D882319F060
:104730008C850E94211D88E08C87F70182819381FE
:10474000A481B5810097A105B10551F490E080E006
:10475000DF91CF911F91FF90EF90DF90CF90089560
:104760008F3F9F4FAF4FBF4F89F370E060E081E212
:104770000E94B622182F8C87883040F780E591E0A0
:104780000E94820DA7014E5F5F4F24E030E06CE095
:1047900070E0812F0E949519B601812F0E94A61901
:1047A00064E070E0812F0E94111D0E94D3116B0103
:1047B0007C018C850E94461D873111F18C3101F1FD
:1047C000882321F20E94D311AB01BC014C195D0971
:1047D0006E097F098D859E85B0E0A0E0841795075E
:1047E000A607B70738F061E070E080E090E00E9433
:1047F000A111DFCF8C850E942D1D88E08C87A6CF6C
:1048000081E090E0A5CF0F931F93CF93DF931F928A
:104810001F92CDB7DEB7FC0124852830E0F48C016F
:1048200080E591E00E94820D22E030E0AE014F5F12
:104830005F4F60E170E0F80184850E94561E898117
:104840009A819827892798270F900F90DF91CF9111
:104850001F910F91089590E080E0F6CF0F931F9382
:10486000CF93DF931F921F92CDB7DEB7FC01248553
:104870002830E0F48C0180E591E00E94820D22E076
:1048800030E0AE014F5F5F4F64E070E0F801848577
:104890000E94561E89819A819827892798270F9010
:1048A0000F90DF91CF911F910F91089590E080E0DC
:1048B000F6CFDC0186EC92E08D939D9384E0FB01C2
:1048C00001900D928A95E1F70895EF92FF920F9370
:1048D0001F93CF93DF9300D01F92CDB7DEB78C012B
:1048E0007B01FB0184858830A8F086EC92E0F8011A
:1048F000918380831282138214821582C8010F90E3
:104900000F900F900F90DF91CF911F910F91FF901B
:10491000EF90089580E591E00E94820D24E030E060
:10492000AE014F5F5F4F6CE070E0F70184850E943D
:10493000561EBE016F5F7F4FC8010E945924DECF13
:104940000F931F93CF93DF9300D000D01F921F923D
:10495000CDB7DEB78C01D80159964D915C915A972D
:104960004115510551F0ED91FC91048CF58DE02D30
:1049700070E060E0C8011995EECFF801808D0E94CB
:104980005221892BB1F148E050E0BE016F5F7F4FAB
:10499000D80158968C910E94792118161906F4F4C2
:1049A000D801509684E0FE01319601900D928A95CF
:1049B000E1F78D8190E0982F88272E81820F911D3D
:1049C000F801958B848B8F81282F30E0322F22279E
:1049D0008885820F932F911D928F818F28960FB615
:1049E000F894DEBF0FBECDBFDF91CF911F910F9125
:1049F000089590E080E0F2CF4F925F926F927F92A5
:104A00008F929F92AF92BF92CF92DF92EF92FF92DE
:104A10000F931F93CF93DF93CDB7DEB763970FB696
:104A2000F894DEBF0FBECDBF7C016B013A01FB01E4
:104A300020E090E080E06AE03191332309F461C026
:104A400040ED430F4A3008F04DC0689FA001699FB8
:104A5000500D1124CA01C097830F911D37FD9A95FF
:104A60008F3F910549F340F3F701428153816481FF
:104A700075818091F2079091F307A091F407B091AE
:104A8000F507481759076A077B0709F40DC2870124
:104A9000085F1F4F0E94D3116F7077277C5FC8019A
:104AA0000E946923813009F004C286EC92E09A8367
:104AB0008983F70182819381A481B5818B839C8353
:104AC000AD83BE8345E350E0BE016F5F7F4FC801F9
:104AD0000E94B71A892BA9F5D12CC12CC8010E94BC
:104AE000391D17C03E3209F0BFCF233009F4BCCFC7
:104AF000D301A20FB11D12968C932F5F90E080E03E
:104B00009BCF233009F0B0CFF3018583CC24C3942D
:104B1000D12CC60163960FB6F894DEBF0FBECDBF91
:104B2000DF91CF911F910F91FF90EF90DF90CF9089
:104B3000BF90AF909F908F907F906F905F904F90BD
:104B400008950E94D311F7017783668342E050E015
:104B5000B7016A5F7F4FC8010E94732081E090E037
:104B60009A83898342E050E0BE016F5F7F4FC801A6
:104B70000E94732080E091E09A83898342E050E0B4
:104B8000BE016F5F7F4FC8010E9473201A82198295
:104B900042E050E0BE016F5F7F4FC8010E9473206A
:104BA00042E050E0BE016F5F7F4FC8010E9473205A
:104BB00042E050E0BE016F5F7F4FC8010E9473204A
:104BC0005601F6018081882301F16501F60181918A
:104BD0002F01882311F08E32B1F446018A189B0808
:104BE0001814190474F48D8641E050E0BE01635F2F
:104BF0007F4FC8010E947320A401B501C8010E9423
:104C000073205201DECF6201E1CF1D8641E050E00A
:104C1000BE01635F7F4FC8010E947320C12CDD2459
:104C2000D394DA82C98242E050E0BE016F5F7F4FC9
:104C3000C8010E947320DA82C98242E050E0BE01BE
:104C40006F5F7F4FC8010E947320C8010E94AD1D95
:104C5000892B09F441CFF3E0AF2EB12C230122E0E0
:104C6000420E511CD4C0F701428153816481758189
:104C7000808D918DA28DB38D481759076A077B07E8
:104C800009F008C1848D958DC59709F003C181A1F4
:104C900092A15DEFC52EDD24DA940C970CF4ADC023
:104CA0004CE050E0BE016F5F7F4FC8010E944A2276
:104CB0008B819C819827892798279A8B898BF7016C
:104CC0004681578129813A814217530709F0E7C08D
:104CD00097FFE5C08F7092703BEFC32EDD24DA940E
:104CE000892B09F08AC06F80788476246724762423
:104CF0002AEFC22EDD24DA946114710409F47DC018
:104D0000D12CC12C8D819E81982789279827C81680
:104D1000D906F8F441E050E0BE01635F7F4FC8015F
:104D20000E944A224D85442331F050E070E060E05B
:104D3000C8010E944A228D858111ECCF44E050E0E9
:104D400070E060E0C8010E944A22FFEFCF1ADF0A3C
:104D5000D9CF912C812C41E050E0BE016D5E7F4F98
:104D6000C8010E944A224B89842F807C09F06CC0C4
:104D7000442331F050E070E060E0C8010E944A2214
:104D80008B898111E8CF42E050E0BE01615F7F4F27
:104D9000C8010E944A2242E050E0BE01635F7F4F9B
:104DA000C8010E944A2244E050E070E060E0C8017F
:104DB0000E944A2242E050E0BE016F5E7F4FC80170
:104DC0000E944A228F85988949895A898115914084
:104DD00009F043C0CD84DE84DC24CD24DC2481E0D2
:104DE000C816D104D1F54115544009F04AC044E039
:104DF00050E0B201C8010E944A2221E0A21AB10883
:104E000009F46CCEFFEFCF16DF0609F067CE0E94E3
:104E1000D3113B014C01C8010E94A02418161906A9
:104E20000CF421CF0E94D3116619770988099909DA
:104E3000693873418105910548F562E370E080E0CF
:104E400090E00E94A111E7CF41E050E070E060E007
:104E5000C8010E944A221B8A93CF54274527542712
:104E600070E060E0C8010E944A22FFEF8F1A9F0A9B
:104E70006814790409F06FCF96EFC92EDD24DA9417
:104E8000BCCFE7EFCE2EDD24DA94B7CFCC24CA9482
:104E9000DC2CB3CF6EEFC62EDD24DA94AECF4CEF10
:104EA000C42EDD24DA94A9CF8EEFC82EDD24DA9447
:104EB00030CED12CC12C2DCECF92DF92EF92FF922B
:104EC0000F931F93CF93DF93CDB7DEB7AF970FB696
:104ED000F894DEBF0FBECDBF7C016A0106EC12E084
:104EE0001A8309831C861B8688EE93E0A0E0B0E05D
:104EF0008D879E87AF87B88B88E492E09A878987F1
:104F0000188F0F8B198E1A8E1B8E1C8E88E089A32A
:104F10001BA70AA71CA61DA61EA61FA68091E60712
:104F20009091E707A091E807B091E9078EA39FA3AE
:104F3000A8A7B9A78B839C83AD83BE8318861F82E5
:104F4000AE01465D5F4FCE0101960E94FC24813088
:104F50009105B1F4D701ED91FC910488F589E02D1C
:104F60001DA30CA38CA59DA5AEA5BFA58EA39FA335
:104F7000A8A7B9A7A601BE016C5D7F4FC70119950F
:104F8000AF960FB6F894DEBF0FBECDBFDF91CF91C5
:104F90001F910F91FF90EF90DF90CF900895CF92E7
:104FA000DF92EF92FF920F931F93CF93DF93CDB7D2
:104FB000DEB7AF970FB6F894DEBF0FBECDBF8C0142
:104FC0006B017A0186EC92E09A8389831B821C82B2
:104FD0001D821E821C861B8648EE53E060E070E056
:104FE0004D875E876F87788B28E432E03A87298780
:104FF000988F8F8B198E1A8E1B8E1C8E28E029A3FA
:105000009BA78AA71CA61DA61EA61FA6D8011C9694
:105010008C91883060F40E94461D882321F0F801AD
:1050200084850E94211D88E0D8011C968C93809174
:10503000E6079091E707A091E807B091E9078EA3F2
:105040009FA3A8A7B9A78B839C83AD83BE83188633
:105050001F82AE01465D5F4FB601CE0101960E94F0
:10506000FC240097C1F0D801ED91FC910684F785EE
:10507000E02D86EC92E09DA38CA38CA59DA5AEA50A
:10508000BFA58EA39FA3A8A7B9A7A701BE016C5D6A
:105090007F4FC8011995AF960FB6F894DEBF0FBECB
:1050A000CDBFDF91CF911F910F91FF90EF90DF90D7
:1050B000CF9008957F928F929F92AF92BF92CF929E
:1050C000DF92EF92FF920F931F93CF93DF93CDB7B1
:1050D000DEB7A6970FB6F894DEBF0FBECDBF8C012A
:1050E000762E942E852E20E2A22ECE0101967C01F2
:1050F000DC01EA2D1D92EA95E9F76801F3E4CF0E91
:10510000D11C86EC92E09AA389A38FEF8BA38CA38A
:105110008DA38EA343E450E0BE016F5D7F4FC601B7
:105120000E94B71A019609F4BFC081E089838A837F
:1051300086E0B82EBB821C82D80114966D917D91B9
:105140008D919C9117970E94C84B6D837E838F83AE
:10515000988789869A8680E890E09C878B874CE1C7
:1051600050E0B701C6010E947320FE0137968AE124
:10517000DF011D928A95E9F74801B8E08B0E911C7A
:10518000F401D70101900D92BA94E1F740E150E0AB
:10519000B701C6010E947320F7011192AA94E9F7A2
:1051A00096E0A92EB12C40E250E0B701C6010E9462
:1051B0007320F1E0AF1AB108B1F783E6898392E872
:1051C0009A8393E59B838C8385E38D8381E08E8333
:1051D0007F829DE3988797E099878A8786E0F4012C
:1051E000DE011B9601900D928A95E1F78CE0898B88
:1051F0008A8B64ED72E0CE0143960E94184ED8016E
:105200001B966C91CE0149960E94D20DF8016485DF
:10521000CE014B960E94D20DD8011D966C91CE0105
:105220004D960E94D20D4EE150E0B701C6010E949A
:105230007320B3E07B121EC082E3898384E08A83FB
:10524000F80196859B8397859C8390899D8391899E
:105250009E8396E39F838887828D8987838D8A8743
:10526000848D8B87858D8C874CE050E0B701C6011B
:105270000E94732087E3898386E08A8391E09B8381
:1052800093E09C838D838FE08E838AE38F838BE30F
:1052900088878FEF898749E050E0B701C6010E94F7
:1052A0007320C6010E94AD1DA6960FB6F894DEBF0E
:1052B0000FBECDBFDF91CF911F910F91FF90EF9067
:1052C000DF90CF90BF90AF909F908F907F90089588
:1052D0000F931F93CF93DF93EC01888199810097FF
:1052E00059F02A813B812617370730F081E0DF91A2
:1052F000CF911F910F9108958B016F5F7F4F0E9497
:10530000F44C009759F0998388831B830A832C817E
:105310003D81232B59F7FC011082E8CF80E0E7CFD5
:10532000EF92FF920F931F93CF93DF936115710557
:1053300041F480E0DF91CF911F910F91FF90EF90AA
:10534000089541155105B1F07B01EC010C811D81DF
:10535000040F151FB8010E946829882351F3288182
:1053600039818C819D81B701820F931F0E94184E55
:105370001D830C8381E0DECFCF93DF93EC01FB0133
:1053800044815581608171810E949029811103C0FF
:10539000CE010E94F61BCE01DF91CF910895EF92CE
:1053A000FF920F931F93CF93DF93EC017B018A0150
:1053B000BA010E94682981110BC0CE010E94F61B20
:1053C000CE01DF91CF911F910F91FF90EF90089543
:1053D0001D830C83B701888199810E94184EF0CFFC
:1053E000CF93DF93EC01FB018617970749F06081AB
:1053F00071816115710541F0448155810E94CF2969
:10540000CE01DF91CF9108950E94F61BF9CFEF9264
:10541000FF920F931F93CF93DF9300D000D000D063
:10542000CDB7DEB78C01862FF8011182108213826E
:1054300012821582148250E09E012F5F3F4F790146
:10544000B90190E00E948247F70101900020E9F73E
:105450003197AF014E195F09B701C8010E94CF29EA
:1054600029960FB6F894DEBF0FBECDBFDF91CF9166
:105470001F910F91FF90EF900895FC01118210820F
:105480001382128215821482FB0101900020E9F739
:105490003197AF01461B570B0C94CF29EF92FF9227
:1054A0000F931F93CF93DF93CDB7DEB7E0970FB67F
:1054B000F894DEBF0FBECDBF8C017B014AE0FB013B
:1054C0006581CE018B960E94072A6BED72E0CE01BA
:1054D00085960E943D2A4AE0F7016481CE014F96ED
:1054E0000E94072A6BED72E0CE0149960E943D2A88
:1054F0004AE0F7016381CE0143960E94072A6BEDD3
:1055000072E0CE010D960E943D2A4AE0F7016281C9
:10551000CE0101960E94072A18861F821A861986D4
:105520001C861B86BE016F5F7F4FCE0107960E94CF
:10553000F029BE01635F7F4FCE0107960E94BC2910
:10554000BE016D5E7F4F0E94BC29BE01675E7F4F2A
:105550000E94BC29BE01615E7F4F0E94BC29BE0132
:105560006B5D7F4F0E94BC29BE01655D7F4F0E942D
:10557000BC29F801118210821382128215821482D2
:10558000BC01C8010E94F029CE0107960E94081CA8
:10559000CE0101960E94081CCE010D960E94081CA7
:1055A000CE0143960E94081CCE0149960E94081C19
:1055B000CE014F960E94081CCE0185960E94081CC1
:1055C000CE018B960E94081CC801E0960FB6F89495
:1055D000DEBF0FBECDBFDF91CF911F910F91FF9026
:1055E000EF900895FB0101900020E9F73197AF019A
:1055F000461B570BDC01ED91FC910280F381E02DFD
:105600001994CF93DF93FC014481558160817181AE
:1056100089E297E00E94E90DEC016DED72E089E20C
:1056200097E00E94F22A8C0F9D1FDF91CF91089581
:105630008F929F92AF92BF92EF92FF920F931F9320
:10564000CF93DF93CDB7DEB7A1970FB6F894DEBF47
:105650000FBECDBF7C01FA01CB0119A2223008F4A4
:105660002AE08E010F5D1F4F822E912CB12CA12CB0
:10567000BF01A50194010E94ED48F901CA016A30F9
:105680000CF5605DD8016E938D01232B242B252B07
:1056900079F790E080E0109721F0BD01C7010E94EA
:1056A000F22AA1960FB6F894DEBF0FBECDBFDF91F0
:1056B000CF911F910F91FF90EF90BF90AF909F906F
:1056C0008F900895695CDECFCF92DF92EF92FF92C8
:1056D0000F931F93CF93DF936B01770FEE08FF08B3
:1056E000F7FE1FC0EC01E881F9810190F081E02D07
:1056F0006DE219958C0144275527BA014C195D09B3
:105700006E097F092AE0CE010E94182B800F911F9D
:10571000DF91CF911F910F91FF90EF90DF90CF908D
:1057200008952AE0B701A601DF91CF911F910F9153
:10573000FF90EF90DF90CF900C94182B8F929F9258
:10574000AF92BF92CF92DF92EF92FF920F931F938F
:10575000CF93DF937C01EB016C0182E0C80ED11C7A
:105760004701E5E08E0E911C10E000E0F60141914A
:105770006F0150E070E060E02AE0CE010E94182B3B
:105780005C01E881F9810190F081E02D6EE2CE01AB
:1057900019958A0D9B1D080F191FC814D90431F7DC
:1057A000F701458150E070E060E02AE0CE010E9400
:1057B000182B800F911FDF91CF911F910F91FF90B8
:1057C000EF90DF90CF90BF90AF909F908F90089513
:1057D0000C94F22AAB01FB0101900020E9F731970C
:1057E000E61BF70B23E0EE0FFF1F2A95E1F720E8F9
:1057F00030E02E1B3F0B37FF02C02F5F3F4F359528
:105800002795682F822F0C943D140E9496120E94B7
:10581000850D60EE72E080E190E00E94EA2B6BEE75
:1058200072E086E290E00E94EA2B68EF72E08CE37F
:1058300090E00E94EA2B0E94C9128111E8CF0895DE
:1058400083E090E09093F2058093F1050E94961218
:105850000E94850D60E073E083E290E00E94EA2BF5
:105860000E94C9128111F4CF61E082E00E94C80F4A
:1058700061E082E00E94F60F60E082E00C94C80FC5
:10588000CF92DF92EF92FF920F931F93CF93DF930C
:105890007C016B01DC01ED91FC910284F385E02D2C
:1058A0001995829761F0CFEFDFEFCE01DF91CF91B5
:1058B0001F910F91FF90EF90DF90CF90089585E0BA
:1058C000F601808786E090E00E94CF4B8C01009724
:1058D00051F3E7E9F4E0DC01ED93FC9380E091E023
:1058E000DF019C011D9221503040E1F7D801139651
:1058F0009C938E93129715961C921E921497D70123
:10590000ED91FC910284F385E02DC7011995EC011E
:105910000196C9F0C232D10509F44DC0C032D1059B
:105920000CF449C0B8018C2FCC35D10549F5D7010D
:10593000ED91FC910284F385E02DC7011995EC01EE
:105940008F3F980721F4C8010E946B4CAECF82367E
:10595000910541F15CF48F32910509F18C35910587
:10596000D9F0829761F6B80182E20AC08E369105BD
:10597000E1F04CF4B8018CE0C636D10509F0BFCF98
:105980000E94B317BCCF8237910591F0B80189E02E
:10599000C437D105A9F3B3CFB8018CE5F1CFB80175
:1059A0008FE2EECFB80188E0EBCFB8018AE0E8CF14
:1059B000B8018DE0E5CFF80184819581009749F029
:1059C0000190F081E02DE80FF91F31978081882345
:1059D00021F0B80180E00E94B317D80114968D9190
:1059E0009C910E94CF4BEC01009739F067E974E07D
:1059F0000E94184EC8010E946B4CF601D287C187E5
:105A0000D0E0C0E052CF8DE090E00E94CF4B0097F5
:105A100029F02DE0FC0111922A95E9F708952F92C3
:105A20003F924F925F926F927F928F929F92AF922E
:105A3000BF92CF92DF92EF92FF920F931F93CF937B
:105A4000DF9300D000D0CDB7DEB78C016B010E9490
:105A5000D617019619F48FEF9FEF1DC0D801ED9175
:105A6000FC910284F385E02DC80119957C018F3FDC
:105A7000980789F3D801ED91FC910684F785E02D14
:105A8000682FC8011995B2E2EB16F104E9F4B601EA
:105A9000C8010E94402C26960FB6F894DEBF0FBEB8
:105AA000CDBFDF91CF911F910F91FF90EF90DF90CD
:105AB000CF90BF90AF909F908F907F906F905F90AE
:105AC0004F903F902F900895EDE2EE16F10429F0EB
:105AD000C701C0970A9708F035C1D801ED91FC9134
