:100000000C9462000C948A000C948A000C948A0070
:100010000C948A000C948A000C948A000C949E051F
:100020000C948A000C948A000C948A000C948A0028
:100030000C948A000C948A000C948A000C948A0018
:100040000C9454050C948A000C9422050C94FC0426
:100050000C948A000C948A000C948A000C948A00F8
:100060000C941D060C948A00000000002400270058
:100070002A000000000023002600290000000008DC
:10008000000201000003040700000000000000005F
:10009000010204081020408001020408102001021F
:1000A0000408102000000000250028002B00040494
:1000B0000404040404040202020202020303030310
:1000C00003033C0711241FBECFEFD8E0DEBFCDBF36
:1000D00023E0A0E9B1E001C01D92A137B207E1F72A
:1000E00011E0A0E0B1E0E8ECF4E102C005900D926F
:1000F000A039B107D9F710E0C2E6D0E004C02197DB
:10010000FE010E945C0AC136D107C9F70E94870729
:100110000C94620A0C940000E2E8F2E0A089B18934
:1001200082E08C93A485B5851C92A685B78580E175
:100130008C93108EA489B58986E08C93A289B389AB
:100140008C9180618C93A289B3898C9188608C9307
:10015000A289B3898C9180688C930288F389E02D01
:1001600080818F7D80830895AF92BF92CF92DF927E
:10017000EF92FF920F931F93CF93DF936C017B015C
:100180008B01040F151FEB015E01AE18BF08C017ED
:10019000D10759F06991D601ED91FC910190F08160
:1001A000E02DC6010995892B79F7C501DF91CF9123
:1001B0001F910F91FF90EF90DF90CF90BF90AF9085
:1001C000089508950895E0913102F0913202309738
:1001D00029F010922E0210922D0209940895CF93C7
:1001E000DF93AC01E0913302F09134023097F1F0EB
:1001F0009091300280912F029817C0F090E0292F43
:1002000030E02617370754F4D901A057BE4F240F0A
:10021000351FE90128812C939F5FF1CF10923002A6
:1002200060932F02CB01DF91CF910994DF91CF91A1
:100230000895FC01538D448D252F30E0842F90E0EC
:10024000821B930B541710F0CF96089501970895D1
:10025000FC01918D828D981761F0A28DAE0FBF2F9A
:10026000B11D5D968C91928D9F5F9F73928F90E0F0
:1002700008958FEF9FEF0895FC01918D828D98175F
:1002800031F0828DE80FF11D858D90E008958FEF9C
:100290009FEF0895FC01918D228D892F90E0805C65
:1002A0009F4F821B91098F739927089582E892E0EE
:1002B0000E944A0121E0892B09F420E0822F089551
:1002C00080E090E0892B29F00E94560181110C9466
:1002D00000000895FC01A48DA80FB92FB11DA35AE9
:1002E000BF4F2C91848D90E001968F739927848F56
:1002F000A689B7892C93A089B1898C918370806479
:100300008C93938D848D981306C00288F389E02D19
:1003100080818F7D80830895EF92FF920F931F93CA
:10032000CF93DF93EC0181E0888F9B8D8C8D9813A8
:100330001AC0E889F989808185FF15C09FB7F894B4
:10034000EE89FF896083E889F98980818370806400
:1003500080839FBF81E090E0DF91CF911F910F914B
:10036000FF90EF900895F62E0B8D10E00F5F1F4F5A
:100370000F731127E02E8C8D8E110CC00FB607FC69
:10038000FACFE889F989808185FFF5CFCE010E94F7
:100390006A01F1CFEB8DEC0FFD2FF11DE35AFF4FFA
:1003A000F0829FB7F8940B8FEA89FB898081806285
:1003B000CFCFCF93DF93EC01888D8823B9F0AA8942
:1003C000BB89E889F9898C9185FD03C0808186FD10
:1003D0000DC00FB607FCF7CF8C9185FFF2CF80815F
:1003E00085FFEDCFCE010E946A01E9CFDF91CF9169
:1003F0000895833081F028F4813099F08230A9F09B
:1004000008958730A9F08830C9F08430B1F4809124
:1004100080008F7D03C0809180008F778093800063
:10042000089584B58F7784BD089584B58F7DFBCF03
:100430008091B0008F778093B00008958091B000D4
:100440008F7DF9CFCF93DF93282F30E0F901E45867
:10045000FF4F8491F901E057FF4FD491F901E25524
:10046000FF4FC491CC23A1F081110E94F901EC2F20
:10047000F0E0EE0FFF1FEE58FF4FA591B491EC9105
:10048000ED2381E090E009F480E0DF91CF910895C1
:1004900080E090E0FACF1F93CF93DF93282F30E0D6
:1004A000F901E458FF4F8491F901E057FF4FD491CF
:1004B000F901E255FF4FC491CC23A9F0162F811109
:1004C0000E94F901EC2FF0E0EE0FFF1FEC55FF4FFB
:1004D000A591B4918FB7F894EC91111108C0D09503
:1004E000DE23DC938FBFDF91CF911F910895DE2B28
:1004F000F8CFCF93DF9390E0FC01E057FF4F2491BA
:1005000082559F4FFC0184918823D1F090E0880FA1
:10051000991FFC01E859FF4FA591B491FC01EC55DE
:10052000FF4FC591D491623071F49FB7F8943C911C
:10053000822F809583238C93E8812E2B28839FBF65
:10054000DF91CF9108958FB7F894EC912E2B2C93D7
:100550008FBFF6CFCF93EAE3F2E0AFEF90E02081D8
:1005600087FF05C027FF47C0AF3F41F406C0821791
:1005700009F441C0AF3F11F427FDA92F9F5F3996C1
:10058000983069F787FD3AC0AF3F09F437C0C82FEC
:1005900089E0A802D0011124A65CBD4FCC93209124
:1005A000390211962C9311978C2F0C2E000C990B5D
:1005B000FC01E255FF4FE491F0E0EE0FFF1FEC5518
:1005C000FF4F4591549113965C934E931297FC0103
:1005D000E057FF4FE4911496EC93149715966C93A3
:1005E00060E0211161E08C2F0E944B0261E08C2FB2
:1005F000CF910C947902658387FDBCCFCF9108958C
:100600003FB7F8948091250290912602A09127028D
:10061000B091280226B5A89B05C02F3F19F001967E
:10062000A11DB11D3FBFBA2FA92F982F8827BC014C
:10063000CD01620F711D811D911D42E0660F771F74
:10064000881F991F4A95D1F708958F929F92AF9274
:10065000BF92CF92DF92EF92FF924B015C010E941A
:1006600000036B017C010E9400036C197D098E0957
:100670009F09683E734081059105A8F321E0821A25
:100680009108A108B10888EEC80E83E0D81EE11CCD
:10069000F11C81149104A104B10429F7FF90EF909B
:1006A000DF90CF90BF90AF909F908F9008952FB71D
:1006B000F89460912102709122028091230290911E
:1006C00024022FBF08952091D601260F3327331F10
:1006D00021323105ECF42091FA01FC0190E080E038
:1006E000243069F082E00895A091D6012191AC01F7
:1006F0004A545E4FA40FB52FB11D2C930196861757
:1007000098F38091D601680F6093D60180E0089538
:1007100081E008951092FA0181E08093FC0110922B
:10072000FB0161E082E10E944B0261E083E10E94F3
:100730004B02E9EBF0E080818E7F808380818D7FAA
:10074000808388E48093B80085E48093BC0008959A
:10075000E091300280912F02E81730F4F0E0E0578A
:10076000FE4F808190E008958FEF9FEF0895909164
:10077000300280912F022FEF3FEF981748F4E92FB6
:10078000F0E0E057FE4F208130E09F5F9093300211
:10079000C901089580912F0290913002891B990B15
:1007A0000895CF93DF93CB01EA01642F0E94630386
:1007B000CE01DF91CF910895CF93DF931F92CDB7F4
:1007C000DEB7698361E0CE0101960E94630381E098
:1007D00090E00F90DF91CF91089590E080E0089530
:1007E000CF93DF93029769F48FE193E00E94B70300
:1007F000EC018FE193E00E94B703DD27CF5FDE4F6E
:100800008883DF91CF910895FC0101900020E9F7E2
:100810003197AF01481B590BBC0182E892E00C9460
:10082000B4008F929F92AF92BF920F931F93CF937A
:10083000DF93CDB7DEB7A1970FB6F894DEBF0FBE3A
:10084000CDBF19A2423008F44AE08E010F5D1F4F60
:10085000842E912CB12CA12CA50194010E943A0A5E
:10086000E62FB901CA01EA30F4F4E05DD801EE9355
:100870008D01232B242B252B79F790E080E0109716
:1008800019F0CD010E940404A1960FB6F894DEBFC2
:100890000FBECDBFDF91CF911F910F91BF90AF9051
:1008A0009F908F900895E95CE1CF0C940404EF923F
:1008B000FF920F931F93CF93DF9300D000D0CDB75B
:1008C000DEB782E892E00E94280182E892E00E946E
:1008D00028018E010F5F1F4F78018A3341F0F80124
:1008E00081938F0182E892E00E942801F6CFC70130
:1008F0000E94140A182F82E892E00E942801805377
:10090000990B8230910520F4682F812F0E944B02B1
:1009100082E892E00E9428018A3011F08D30C1F700
:1009200082E892E00E943C018A3021F482E892E061
:100930000E9428010F900F900F900F90DF91CF91A0
:100940001F910F91FF90EF900895CF93DF9385ED66
:100950008093BC008091B2019091B301A091B40149
:10096000B091B5010796A11DB11D23E0B695A795DD
:10097000979587952A95D1F72091BC0024FD03C057
:100980001092FA0136C04091B2015091B3016091CA
:10099000B4017091B501452B462B472B69F30097A5
:1009A000A105B10541F025E32A95F1F70000019773
:1009B000A109B109E1CF8091B10191E09093B0011B
:1009C0008823B9F0C091B800D091BA008091BC00E2
:1009D0008A7B8093BC0060E082E10E944B0260E071
:1009E00083E10E944B020E948A03D093BA00C09315
:1009F000B800DF91CF9108951F920F920FB60F921A
:100A000011242F933F934F935F936F937F938F9313
:100A10009F93AF93BF93EF93FF9382E892E00E947E
:100A20006A01FF91EF91BF91AF919F918F917F915B
:100A30006F915F914F913F912F910F900FBE0F904B
:100A40001F9018951F920F920FB60F9211242F939B
:100A50008F939F93EF93FF93E0919202F091930213
:100A60008081E0919802F091990282FD1BC09081F3
:100A700080919B028F5F8F7320919C02821741F0BF
:100A8000E0919B02F0E0EE57FD4F958F80939B0223
:100A9000FF91EF919F918F912F910F900FBE0F902B
:100AA0001F9018958081F4CF1F920F920FB60F926E
:100AB00011242F933F938F939F93AF93BF93809174
:100AC000210290912202A0912302B0912402309140
:100AD000200223E0230F2D3758F50196A11DB11DEB
:100AE000209320028093210290932202A09323025C
:100AF000B09324028091250290912602A0912702B2
:100B0000B09128020196A11DB11D809325029093FA
:100B10002602A0932702B0932802BF91AF919F9124
:100B20008F913F912F910F900FBE0F901F901895AE
:100B300026E8230F0296A11DB11DD2CF1F920F925E
:100B40000FB60F9211242F933F934F936F937F9380
:100B50008F939F93AF93BF93EF93FF9380910A017D
:100B60008F5F80930A01811138C0EAE3F2E0478188
:100B70008581411103C090859923E9F090E0368189
:100B8000232F30E0BC01621B730B161617064CF4C2
:100B9000442389F0240F311D2817390764F4C90153
:100BA0000AC0672B41F04085442329F0241B3109FA
:100BB00082179307A4F386838681882349F0918165
:100BC000A281B3818481911131C09C91892B8C9336
:100BD000399682E0E238F80751F6EAE3F2E08081E4
:100BE00087FD0FC080910A01968198130AC0A281E7
:100BF000B3818481918191111DC09C91809589233D
:100C00008C93399682E0E238F80749F7FF91EF912B
:100C1000BF91AF919F918F917F916F914F913F9134
:100C20002F910F900FBE0F901F9018959C9180955B
:100C30008923CDCF9C91892BE3CF1F920F920FB6C2
:100C40000F9211242F933F934F935F936F937F9352
:100C50008F939F93AF93BF93EF93FF938091B900CE
:100C6000887F803609F44AC0F0F5883209F4A7C0BD
:100C700018F5803109F49BC0B8F4882309F4F9C051
:100C8000883009F494C0FF91EF91BF91AF919F918B
:100C90008F917F916F915F914F913F912F910F9025
:100CA0000FBE0F901F901895883109F488C08032CC
:100CB00051F78093F90114C0803409F49DC040F4C9
:100CC0008033B9F38833F9F68093F90185ECB0C02D
:100CD000803509F485C0883509F496C0883499F6C2
:100CE0000E94A504D0CF883909F48CC038F5883724
:100CF00029F050F4883611F0803729F683E080938C
:100D0000FA011092F80157C0883809F47BC0803985
:100D100019F0803809F0B7CF8091F801803208F0DF
:100D200071C0E091F80181E08E0F8093F80180910D
:100D3000BB00F0E0E852FE4F80833DC0803B39F0BD
:100D4000E0F4803A09F479C0883A09F09CCF84E055
:100D50008093FA011092D7011092D601E0912B02F4
:100D6000F0912C0209958091D60181110FC081E08C
:100D70008093D6011092B60109C0803C09F4A6CF39
:100D8000883C09F4A3CF883B09F07DCFE091D701DF
:100D900081E08E0F8093D701F0E0EA54FE4F80810E
:100DA0008093BB009091D7018091D60129C080919A
:100DB0001F028093BB0085EC8093BC0064CF9091B0
:100DC0001E0280911D02981758F5E0911E0281E0E5
:100DD0008E0F80931E02F0E0E350FE4F8081E9CF3A
:100DE000E0911E0281E08E0F80931E028091BB0075
:100DF000F0E0E350FE4F808390911E0280911D022F
:100E00009817C8F285E8D8CFE0911E0281E08E0FD6
:100E100080931E028091BB00F0E0E350FE4F808380
:100E20008091FC0181115CCF81E08093FB0184EA19
:100E30008093BC001092FA0126CF85EC8093BC0011
:100E40001092FA018091F801803230F4E091F801BB
:100E5000F0E0E852FE4F10826091F80170E0E091FE
:100E60002902F0912A0288ED91E009951092F8018B
:100E70000ACF1092F90134CFE2E8F2E01382128235
:100E800088EE93E0A0E0B0E084839583A683B783E7
:100E900027E131E03183208325EC30E0358724875A
:100EA00024EC30E03787268720EC30E0318B208B34
:100EB00021EC30E0338B228B22EC30E0358B248B1D
:100EC00026EC30E0378B268B118E128E138E148E0B
:100ED000EFE1F3E01382128284839583A683B783C4
:100EE00089E291E091838083EBE2F3E0168217823E
:100EF0001086118612861386148615861686178626
:100F0000108A118A128A138A148A158A089578948D
:100F100084B5826084BD84B5816084BD85B58260FE
:100F200085BD85B5816085BD80916E0081608093AF
:100F30006E00109281008091810082608093810018
:100F40008091810081608093810080918000816028
:100F5000809380008091B10084608093B100809183
:100F6000B00081608093B00080917A0084608093AB
:100F70007A0080917A00826080937A0080917A0072
:100F8000816080937A0080917A00806880937A00F3
:100F90001092C10010926D0310926E0310926F03B5
:100FA0001092700310922D0310922E0310922F03B3
:100FB000109230030E9457036B017C012B013C010E
:100FC00028EB420E2BE0521E611C711C0E9457033D
:100FD0006C157D058E059F0528F046165706680698
:100FE0007906A0F768EE73E080E090E00E942503A8
:100FF0000E948C000E94570360932D0370932E0370
:1010000080932F039093300387E391E00E9455046F
:101010000E9457036B017C012B013C013AE0430E17
:10102000511C611C711C0E9457036C157D058E05B7
:101030009F0528F04616570668067906A0F781E056
:10104000809341030E94570360932D0370932E03F6
:1010500080932F039093300388E491E00E9455041D
:1010600062E08BE00E94790262E08CE00E947902EB
:1010700062E08DE00E9479028BE00E94220221E072
:10108000892B09F420E0C0910001C20F8CE00E947E
:101090002202009711F082E090E0C80F8DE00E94DC
:1010A0002202009711F084E090E0C80FC093000185
:1010B0008CE58093B800C09100011092300210922C
:1010C0002F0210922E0210922D020E948A0383EEAC
:1010D00090E090932C0280932B028FEE90E09093FF
:1010E0002A0280932902CC0FC093BA0082EE90E0CE
:1010F000909332028093310280EF93E09093340218
:10110000809333020E948C008FE491E00E9455048A
:101110006091000170E090E080E040E10E941104E5
:1011200087E691E00E94040481E087BB82E080931F
:10113000B1008093B00092E89093B3008093700068
:10114000EAE3F2E08FEF808311821382128217822A
:101150001086399642E0E238F407A9F71092390276
:1011600080E0282E80E0382E94EF492E55245394A9
:10117000612C712C0E945703672B682B692B09F493
:10118000EFC00E9457030091350210913602209162
:10119000370230913802601771078207930708F40D
:1011A0002FC1009135021091360220913702309103
:1011B00038026B017C01C01AD10AE20AF30A9701D6
:1011C00086010A3F11052105310508F4D1C060935D
:1011D0003502709336028093370290933802409222
:1011E000390350923A0360923B0370923C03109291
:1011F0003D0310923E0310923F03109240038091F2
:10120000310390913203A0913303B0913403809362
:10121000350390933603A0933703B09338030E94AD
:101220005703609331037093320380933303909399
:10123000340382E892E00E943C01843611F40E945B
:1012400057040E94570360932D0370932E038093DD
:101250002F03909330030E9457036B017C018AE6B1
:1012600091E00E9455044AE061E070E080E090E087
:101270000E94110481E791E00E9455044AE0C701F1
:10128000B6010E94110483E791E00E945504809109
:10129000310390913203A0913303B0913403A7013D
:1012A0009601281B390B4A0B5B0BCA01B9014AE0B6
:1012B0000E94110483E791E00E945504609131037C
:1012C0007091320380913303909134030091350380
:1012D000109136032091370330913803601B710B56
:1012E000820B930B4AE00E94110485E791E00E9473
:1012F00055040E9457034AE00E94110487E791E0D9
:101300000E94040487E691E00E9404040E945703AF
:101310004B015C017C016B0132E0C30ED11CE11C6E
:10132000F11C0E945703681579058A059B0528F072
:10133000C616D706E806F906A0F782E892E00E94F2
:101340003C01843611F40E9457040E9457036093B5
:10135000310370933203809333039093340308C0B6
:101360000E945703623071058105910508F009CF8D
:101370008EE791E00E945504C1E0D1E00BE011E05E
:10138000C12CD12C76014AE0C701B6010E9411049C
:1013900083E791E00E945504698170E090E080E06D
:1013A0004AE00E941104F80181918F01209101010E
:1013B00030E00C2C02C0359527950A94E2F760E0E6
:1013C00020FD69810E94AA0227E0C216D104E1042F
:1013D000F104F9F487E691E00E94040469E170E009
:1013E00080E090E00E9425032114310409F4C2CE6C
:1013F0000E945601882309F4BDCE0E940000BACE97
:1014000060933502709336028093370290933802CE
:10141000C8CE8CE891E00E945504FFEFCF1ADF0A96
:10142000EF0AFF0A2196AFCFFC0188279927E8949D
:1014300021912032E9F3293010F02E30C8F32B32FD
:1014400041F02D3239F4689404C00E94320A820FB0
:10145000911D219120532A30C0F31EF4909581955F
:101460009F4F08957AE0979F902D879F802D910D33
:1014700011240895A1E21A2EAA1BBB1BFD010DC069
:10148000AA1FBB1FEE1FFF1FA217B307E407F50734
:1014900020F0A21BB30BE40BF50B661F771F881F10
:1014A000991F1A9469F760957095809590959B01A6
:1014B000AC01BD01CF010895EE0FFF1F0590F4911F
:0814C000E02D0994F894FFCF20
:1014C80030FF0000000000000000FF0F0E0A0908AE
:1014D800070605000000008C01B4001901D9014A73
:1014E8000128013C0100000000DC03D103ED03E109
:1014F80000CA03B703A803564D4450565F317C31E8
:101508005F564D4450560A00564D4450525F004CA9
:10151800697374656E696E67206F6E2041646472CA
:10152800657373203078000D0A00564D4450455FAE
:10153800003A323A007C005F564D445045005265EF
:1015480067697374657273202D3E2000202C20007B
:00000001FF
