:100000000C9462000C948A000C948A000C948A0070
:100010000C948A000C948A000C948A000C944D0570
:100020000C948A000C948A000C948A000C948A0028
:100030000C948A000C948A000C948A000C948A0018
:100040000C9403050C948A000C94D1040C94AB041A
:100050000C948A000C948A000C948A000C948A00F8
:100060000C94CC050C948A000000000024002700AA
:100070002A000000000023002600290000000008DC
:10008000000201000003040700000000000000005F
:10009000010204081020408001020408102001021F
:1000A0000408102000000000250028002B00040494
:1000B0000404040404040202020202020303030310
:1000C0000303EB0611241FBECFEFD8E0DEBFCDBF88
:1000D00011E0A0E0B1E0EEE8F1E102C005900D9280
:1000E000A03DB107D9F723E0A0EDB1E001C01D921A
:1000F000AF36B207E1F710E0C2E6D0E004C02197C6
:10010000FE010E94BF08C136D107C9F70E9424072B
:100110000C94C5080C940000AF92BF92CF92DF926E
:10012000EF92FF920F931F93CF93DF936C017B01AC
:100130008B01040F151FEB015E01AE18BF08C0173D
:10014000D10759F06991D601ED91FC910190F081B0
:10015000E02DC6010995892B79F7C501DF91CF9173
:100160001F910F91FF90EF90DF90CF90BF90AF90D5
:100170000895E0917102F0917202309729F0109287
:100180006E0210926D0209940895CF93DF93AC0133
:10019000E0917302F09174023097F1F09091700247
:1001A00080916F029817C0F090E0292F30E0261759
:1001B000370754F4D901A053BE4F240F351FE9016E
:1001C00028812C939F5FF1CF1092700260936F0291
:1001D000CB01DF91CF910994DF91CF910895FC017C
:1001E000538D448D252F30E0842F90E0821B930B9C
:1001F000541710F0CF96089501970895FC01918D42
:10020000828D981761F0A28DAE0FBF2FB11D5D9644
:100210008C91928D9F5F9F73928F90E008958FEFE6
:100220009FEF0895FC01918D828D981731F0828D9A
:10023000E80FF11D858D90E008958FEF9FEF0895F1
:10024000FC01918D228D892F90E0805C9F4F821B55
:1002500091098F739927089586EC92E00E942001FE
:1002600021E0892B09F420E0822F089580E090E0BE
:10027000892B29F00E942C0181110C940000089513
:10028000FC01A48DA80FB92FB11DA35ABF4F2C910B
:10029000848D90E001968F739927848FA689B78902
:1002A0002C93A089B1898C91837080648C93938DF9
:1002B000848D981306C00288F389E02D80818F7D9C
:1002C00080830895EF92FF920F931F93CF93DF9354
:1002D000EC0181E0888F9B8D8C8D98131AC0E88982
:1002E000F989808185FF15C09FB7F894EE89FF8951
:1002F0006083E889F98980818370806480839FBFEF
:1003000081E090E0DF91CF911F910F91FF90EF90EE
:100310000895F62E0B8D10E00F5F1F4F0F731127FE
:10032000E02E8C8D8E110CC00FB607FCFACFE88939
:10033000F989808185FFF5CFCE010E944001F1CF80
:10034000EB8DEC0FFD2FF11DE35AFF4FF0829FB7AD
:10035000F8940B8FEA89FB8980818062CFCFCF939D
:10036000DF93EC01888D8823B9F0AA89BB89E889DD
:10037000F9898C9185FD03C0808186FD0DC00FB683
:1003800007FCF7CF8C9185FFF2CF808185FFEDCF01
:10039000CE010E944001E9CFDF91CF9108958330D3
:1003A00081F028F4813099F08230A9F008958730E7
:1003B000A9F08830C9F08430B1F4809180008F7D3D
:1003C00003C0809180008F7780938000089584B56A
:1003D0008F7784BD089584B58F7DFBCF8091B00069
:1003E0008F778093B00008958091B0008F7DF9CF12
:1003F000CF93DF93282F30E0F901E458FF4F849129
:10040000F901E057FF4FD491F901E255FF4FC49134
:10041000CC23A1F081110E94CF01EC2FF0E0EE0F70
:10042000FF1FEE58FF4FA591B491EC91ED2381E0B1
:1004300090E009F480E0DF91CF91089580E090E0B2
:10044000FACF1F93CF93DF93282F30E0F901E458C0
:10045000FF4F8491F901E057FF4FD491F901E25524
:10046000FF4FC491CC23A9F0162F81110E94CF0118
:10047000EC2FF0E0EE0FFF1FEC55FF4FA591B4916C
:100480008FB7F894EC91111108C0D095DE23DC935E
:100490008FBFDF91CF911F910895DE2BF8CFCF93BF
:1004A000DF9390E0FC01E057FF4F249182559F4F6E
:1004B000FC0184918823D1F090E0880F991FFC0102
:1004C000E859FF4FA591B491FC01EC55FF4FC59140
:1004D000D491623071F49FB7F8943C91822F80954B
:1004E00083238C93E8812E2B28839FBFDF91CF91AC
:1004F00008958FB7F894EC912E2B2C938FBFF6CFE5
:10050000CF931092B2009FEF90930101EEE7F2E0DB
:10051000AFEF90E0208187FF05C027FF47C0AF3FC6
:1005200041F406C0821709F441C0AF3F11F427FD22
:10053000A92F9F5F3996983069F787FD3AC0AF3F82
:1005400009F437C0C82F89E0A802D0011124A258AD
:10055000BD4FCC9320917D0211962C9311978C2F37
:100560000C2E000C990BFC01E255FF4FE491F0E0DA
:10057000EE0FFF1FEC55FF4F4591549113965C937E
:100580004E931297FC01E057FF4FE4911496EC93C1
:10059000149715966C9360E0211161E08C2F0E94F6
:1005A000210261E08C2FCF910C944F02658387FD6F
:1005B000BCCFCF9108953FB7F89480916502909198
:1005C0006602A0916702B091680226B5A89B05C09B
:1005D0002F3F19F00196A11DB11D3FBFBA2FA92FC2
:1005E000982F8827BC01CD01620F711D811D911DBF
:1005F00043E0660F771F881F991F4A95D1F708952A
:1006000020911602260F3327331F21323105ECF4D7
:1006100020913A02FC0190E080E0243069F082E011
:100620000895A09116022191AC014A505E4FA40F8B
:10063000B52FB11D2C930196861798F38091160261
:10064000680F6093160280E0089581E0089510928B
:100650003A0281E080933C0210923B0261E082E129
:100660000E94210261E083E10E942102E9EBF0E0B7
:1006700080818E7F808380818D7F808380E28093E4
:10068000B80085E48093BC0008950895E09170025D
:1006900080916F02E81730F4F0E0E053FE4F808164
:1006A00090E008958FEF9FEF0895909170028091F0
:1006B0006F022FEF3FEF981748F4E92FF0E0E05377
:1006C000FE4F208130E09F5F90937002C901089532
:1006D00080916F0290917002891B990B0895CF93BE
:1006E000DF93CB01EA01642F0E940003CE01DF916A
:1006F000CF910895CF93DF931F92CDB7DEB7698373
:1007000061E0CE0101960E94000381E090E00F902D
:10071000DF91CF91089590E080E00895FC01019071
:100720000020E9F73197AF01481B590BBC0186EC5B
:1007300092E00C948C008F929F92AF92BF920F9395
:100740001F93CF93DF93CDB7DEB7A1970FB6F89481
:10075000DEBF0FBECDBF19A2423008F44AE08E01C1
:100760000F5D1F4F842E912CB12CA12CA50194015B
:100770000E949D08E62FB901CA01EA30F4F4E05D59
:10078000D801EE938D01232B242B252B79F790E0B4
:1007900080E0109719F0CD010E948E03A1960FB64C
:1007A000F894DEBF0FBECDBFDF91CF911F910F91A7
:1007B000BF90AF909F908F900895E95CE1CF8EE25B
:1007C00091E00E948E0380916F0290917002891BCC
:1007D000990B1816190664F483E693E00E945503FA
:1007E000BC01990F880B990B40E10E949B03EBCF52
:1007F0008FE391E00C948E03CF92DF92EF92FF9201
:100800000F931F93CF93DF9300D0CDB7DEB77C015A
:10081000D12CDE141F04ECF583E693E00E9455030F
:1008200088389105A1F5C12C0C2D10E00E151F057F
:100830006CF483E693E00E945503E1E0F0E0EC0FF6
:10084000FD1FE00FF11F8083C394EECF1981612F4C
:1008500070E090E080E04AE00E949B030A81602FF4
:1008600070E090E080E04AE00E949B038FE391E01B
:100870000E948E03812F90E0FC01EB58FD4F008316
:100880008E5F9E4F602FFC0180810E948002D39476
:10089000C0CF0F900F90DF91CF911F910F91FF90DC
:1008A000EF90DF90CF900895CF93DF9385ED809305
:1008B000BC008091F2019091F301A091F401B091FC
:1008C000F5010796A11DB11D23E0B695A795979553
:1008D00087952A95D1F72091BC0024FD03C0109282
:1008E0003A0236C04091F2015091F3016091F40157
:1008F0007091F501452B462B472B69F30097A10515
:10090000B10541F02AE12A95F1F700C00197A1094C
:10091000B109E1CF8091F10191E09093F00188233A
:10092000B9F0C091B800D091BA008091BC008A7B28
:100930008093BC0060E082E10E94210260E083E1DC
:100940000E9421020E942703D093BA00C093B800EE
:10095000DF91CF9108951F920F920FB60F9211243D
:100960002F933F934F935F936F937F938F939F93B7
:10097000AF93BF93EF93FF9386EC92E00E94400108
:10098000FF91EF91BF91AF919F918F917F916F9167
:100990005F914F913F912F910F900FBE0F901F903D
:1009A00018951F920F920FB60F9211242F938F93C9
:1009B0009F93EF93FF93E091D602F091D70280814D
:1009C000E091DC02F091DD0282FD1BC090818091FC
:1009D000DF028F5F8F732091E002821741F0E09178
:1009E000DF02F0E0EA53FD4F958F8093DF02FF9125
:1009F000EF919F918F912F910F900FBE0F901F90AD
:100A000018958081F4CF1F920F920FB60F92112488
:100A10002F933F938F939F93AF93BF9380916102E6
:100A200090916202A0916302B091640230916002E1
:100A300026E0230F2D3758F50296A11DB11D2093F6
:100A400060028093610290936202A0936302B0936C
:100A500064028091650290916602A0916702B09154
:100A600068020196A11DB11D8093650290936602F4
:100A7000A0936702B0936802BF91AF919F918F914D
:100A80003F912F910F900FBE0F901F90189529E85E
:100A9000230F0396A11DB11DD2CF1F920F920FB647
:100AA0000F9211242F933F934F936F937F938F93C4
:100AB0009F93AF93BF93EF93FF93809101018F5F5B
:100AC00080930101811138C0EEE7F2E04781858112
:100AD000411103C090859923E9F090E03681232FDE
:100AE00030E0BC01621B730B161617064CF444234E
:100AF00089F0240F311D2817390764F4C9010AC091
:100B0000672B41F04085442329F0241B31098217CB
:100B10009307A4F386838681882349F09181A2817B
:100B2000B3818481911131C09C91892B8C9339962A
:100B300082E0E63CF80751F6EEE7F2E0808187FDBF
:100B40000FC080910101968198130AC0A281B381E0
:100B50008481918191111DC09C91809589238C93F2
:100B6000399682E0E63CF80749F7FF91EF91BF9193
:100B7000AF919F918F917F916F914F913F912F9165
:100B80000F900FBE0F901F9018959C918095892310
:100B9000CDCF9C91892BE3CF1F920F920FB60F926E
:100BA00011242F933F934F935F936F937F938F9372
:100BB0009F93AF93BF93EF93FF938091B900887F8A
:100BC000803609F44AC0F0F5883209F4A7C018F558
:100BD000803109F49BC0B8F4882309F4F9C0883047
:100BE00009F494C0FF91EF91BF91AF919F918F91C4
:100BF0007F916F915F914F913F912F910F900FBE19
:100C00000F901F901895883109F488C0803251F7F1
:100C10008093390214C0803409F49DC040F48033BD
:100C2000B9F38833F9F68093390285ECB0C080358A
:100C300009F485C0883509F496C0883499F60E9475
:100C40005404D0CF883909F48CC038F5883729F09E
:100C500050F4883611F0803729F683E080933A0209
:100C60001092380257C0883809F47BC0803919F0D7
:100C7000803809F0B7CF80913802803208F071C017
:100C8000E091380281E08E0F809338028091BB00A2
:100C9000F0E0E85EFD4F80833DC0803B39F0E0F43A
:100CA000803A09F479C0883A09F09CCF84E08093B7
:100CB0003A021092170210921602E0916B02F09124
:100CC0006C0209958091160281110FC081E080931A
:100CD00016021092F60109C0803C09F4A6CF883CA8
:100CE00009F4A3CF883B09F07DCFE091170281E0A2
:100CF0008E0F80931702F0E0EA50FE4F80818093C0
:100D0000BB00909117028091160229C080915F026A
:100D10008093BB0085EC8093BC0064CF90915E0211
:100D200080915D02981758F5E0915E0281E08E0F88
:100D300080935E02F0E0E35CFD4F8081E9CFE091BB
:100D40005E0281E08E0F80935E028091BB00F0E036
:100D5000E35CFD4F808390915E0280915D02981765
:100D6000C8F285E8D8CFE0915E0281E08E0F8093D3
:100D70005E028091BB00F0E0E35CFD4F80838091D8
:100D80003C0281115CCF81E080933B0284EA809336
:100D9000BC0010923A0226CF85EC8093BC001092E2
:100DA0003A0280913802803230F4E0913802F0E06B
:100DB000E85EFD4F10826091380270E0E0916902B8
:100DC000F0916A0288E192E00995109238020ACF08
:100DD0001092390234CFE6ECF2E01382128288EEF0
:100DE00093E0A0E0B0E084839583A683B7832EE0F0
:100DF00031E03183208325EC30E03587248724ECF3
:100E000030E03787268720EC30E0318B208B21ECD7
:100E100030E0338B228B22EC30E0358B248B26ECB8
:100E200030E0378B268B118E128E138E148EE3E6F4
:100E3000F3E01382128284839583A683B78380E2D2
:100E400091E0918380830895789484B5826084BD15
:100E500084B5816084BD85B5826085BD85B58160BE
:100E600085BD80916E00816080936E00109281003C
:100E700080918100826080938100809181008160F7
:100E800080938100809180008160809380008091B8
:100E9000B10084608093B1008091B0008160809344
:100EA000B00080917A00846080937A0080917A000B
:100EB000826080937A0080917A008E7F80937A009E
:100EC00080917A00806880937A001092C10062E07D
:100ED0008BE00E944F0262E08CE00E944F0262E0D1
:100EE0008DE00E944F028BE00E94F80121E0892BE7
:100EF00009F020E0C0910001C20F8CE00E94F801CF
:100F000020E0892B09F422E0C20F8DE00E94F80155
:100F100020E0892B09F424E0C20FC09300018AE28B
:100F20008093B800C09100011092700210926F027D
:100F300010926E0210926D020E94270389EB90E0DE
:100F400090936C0280936B0285EC90E090936A0220
:100F500080936902CC0FC093BA008FED93E0909319
:100F60007202809371028CEF93E0909374028093ED
:100F70007302E091D602F091D702C2E0C083E09103
:100F8000D202F091D3021082E091D402F091D50206
:100F900088E080831092DE02E091DA02F091DB02B9
:100FA00086E08083E091D802F091D902808180614F
:100FB0008083E091D802F091D9028081886080839B
:100FC000E091D802F091D902808180688083E0911D
:100FD000D802F091D90280818F7D808382E491E0F4
:100FE0000E948E036091000170E090E080E040E19B
:100FF0000E949B038FE391E00E948E0381E087BBF8
:10100000C093B100C093B00081E48093B300C0935B
:101010007000EEE7F2E08FEF80831182138212827C
:1010200017821086399622E0E63CF207A9F7109263
:101030007D0202E011E0C5E7D2E0199260E0F8011C
:1010400081918F010E948002F2E0CD37DF07A9F77E
:10105000C0E0D0E005E712E092E0A92E91E0B92EC1
:10106000C12CD12C76018AE591E00E948E034AE0E2
:10107000C701B6010E949B0386E691E00E948E03A1
:10108000F50161915F0170E090E080E04AE00E942C
:101090009B0383E791E00E948E03F80161918F0129
:1010A00070E090E080E04AE00E949B038FE391E0D3
:1010B0000E948E03FFEFCF1ADF0AEF0AFF0A28E033
:1010C000C216D104E104F10471F68DE791E00E94AB
:1010D0008E038FE391E00E948E030E94DB026B017E
:1010E0007C0184EF882E99249394A12CB12C0E942A
:1010F000DB026C197D098E099F09683E73408105EA
:101100009105A8F381E0881A9108A108B10898EE2A
:10111000C90E93E0D91EE11CF11C81149104A104B5
:10112000B10429F7209709F495CF0E942C01882358
:1011300009F490CF0E9400008DCFA1E21A2EAA1BC5
:10114000BB1BFD010DC0AA1FBB1FEE1FFF1FA21777
:10115000B307E407F50720F0A21BB30BE40BF50B74
:10116000661F771F881F991F1A9469F760957095FD
:10117000809590959B01AC01BD01CF010895EE0FC4
:0E118000FF1F0590F491E02D0994F894FFCF25
:10118E0030FF0F0E0A090807060500000000620175
:10119E008C00EF00AF012001FE00120100000000E4
:1011AE007A036F038B0345036803550346035265A9
:1011BE007175657374204576656E74203A20000D46
:1011CE000A004C697374656E696E67206F6E2041FC
:1011DE006464726573732030780052656769737446
:1011EE006572203A20004D6F746F722050696E2028
:1011FE003A200056616C7565203A203A003D3D3D1F
:10120E003D3D3D3D3D3D3D3D3D3D3D3D3D3D3D3D00
:10121E003D3D3D3D3D3D3D3D3D3D3D3D3D3D3D3DF0
:10122E003D3D3D3D3D3D3D3D3D3D3D3D3D3D3D3DE0
:10123E003D3D3D3D3D3D3D3D3D3D3D3D3D3D3D3DD0
:10124E003D3D3D3D3D3D3D3D3D3D3D3D3D3D3D00FD
:107800000C94343C0C94513C0C94513C0C94513CE1
:107810000C94513C0C94513C0C94513C0C94513CB4
:107820000C94513C0C94513C0C94513C0C94513CA4
:107830000C94513C0C94513C0C94513C0C94513C94
:107840000C94513C0C94513C0C94513C0C94513C84
:107850000C94513C0C94513C0C94513C0C94513C74
:107860000C94513C0C94513C11241FBECFEFD8E036
:10787000DEBFCDBF11E0A0E0B1E0EAE8FFE702C063
:1078800005900D92A230B107D9F712E0A2E0B1E065
:1078900001C01D92AD30B107E1F70E942D3D0C945F
:1078A000C33F0C94003C982F95959595959595958B
:1078B000905D8F708A307CF0282F295A8091C0000B
:1078C00085FFFCCF9093C6008091C00085FFFCCF60
:1078D0002093C6000895282F205DF0CF982F809127
:1078E000C00085FFFCCF9093C6000895EF92FF92F1
:1078F0000F931F93EE24FF2487018091C00087FD22
:1079000017C00894E11CF11C011D111D81E2E8164D
:1079100081EAF80687E0080780E0180770F3E09135
:107920000401F091050109958091C00087FFE9CF1E
:107930008091C6001F910F91FF90EF9008950E94D3
:10794000763C982F8091C00085FFFCCF9093C600B5
:1079500091362CF490330CF09053892F089597555D
:10796000892F08951F930E949F3C182F0E949F3CCF
:107970001295107F810F1F9108951F93182F882350
:1079800021F00E94763C1150E1F71F9108951F935A
:10799000182F0E94763C803249F0809103018F5F5E
:1079A000809303018530C1F01F9108958091C0003C
:1079B00085FFFCCF84E18093C6008091C00085FFE5
:1079C000FCCF1093C6008091C00085FFFCCF80E102
:1079D0008093C6001F910895E0910401F091050184
:1079E00009951F9108950E94763C803241F0809164
:1079F00003018F5F80930301853081F008958091AA
:107A0000C00085FFFCCF84E18093C6008091C00058
:107A100085FFFCCF80E18093C6000895E0910401CA
:107A2000F09105010995089548EC50E08823A1F0F4
:107A30002D9A28EE33E0FA013197F1F721503040CA
:107A4000D1F72D9828EE33E0FA013197F1F7215064
:107A50003040D1F7815061F708953F924F925F9285
:107A60006F927F928F929F92AF92BF92CF92DF924E
:107A7000EF92FF920F931F93CF93DF93000082E06A
:107A80008093C00080E18093C4001092C50088E11B
:107A90008093C10086E08093C2005098589A259A3E
:107AA00081E00E94143D24E1F22E9EE1E92E85E959
:107AB000D82E0FE0C02E10E1B12EAA24A394B1E479
:107AC0009B2EA6E58A2EF2E57F2EE0E26E2E79E46B
:107AD000572E63E5462E50E5352E0E94763C8033C6
:107AE000B1F18133B9F1803409F46FC0813409F404
:107AF00076C0823409F485C0853409F488C08035A5
:107B000031F1823521F1813511F1853509F485C0D6
:107B1000863509F48DC0843609F496C0843709F49B
:107B200003C1853709F472C1863709F466C08091B4
:107B300003018F5F80930301853079F6E0910401A2
:107B4000F091050109950E94763C803351F60E9420
:107B5000F33CC3CF0E94763C803249F78091C0004D
:107B600085FFFCCFF092C6008091C00085FFFCCF5E
:107B70009092C6008091C00085FFFCCF8092C60025
:107B80008091C00085FFFCCF7092C6008091C0003C
:107B900085FFFCCF6092C6008091C00085FFFCCFBE
:107BA0005092C6008091C00085FFFCCF4092C60075
:107BB0008091C00085FFFCCF3092C6008091C0004C
:107BC00085FFFCCFB092C60088CF0E94763C8638F5
:107BD00008F4BDCF0E94763C0E94F33C7ECF0E9409
:107BE000763C803809F49CC0813809F40BC1823896
:107BF00009F430C1883909F48FC080E00E94C73C85
:107C00006CCF84E10E94BD3C0E94F33C66CF85E0CE
:107C10000E94BD3C0E94F33C60CF0E94763C809362
:107C200006010E94763C809307010E94F33C55CFE9
:107C30000E94763C803309F411C183E00E94BD3C70
:107C400080E00E94C73C49CF0E94763C80930902A5
:107C50000E94763C8093080280910C028E7F809374
:107C60000C020E94763C853409F409C18091080217
:107C700090910902892B89F000E010E00E94763C87
:107C8000F801E85FFE4F80830F5F1F4F809108026D
:107C9000909109020817190788F30E94763C8032F8
:107CA00009F045CF80910C0280FFF5C0609106017C
:107CB00070910701660F771F7093070160930601AB
:107CC000A0910802B09109021097C9F0E8E0F1E034
:107CD0009B01AD014E0F5F1FF999FECF32BD21BD53
:107CE000819180BDFA9AF99A2F5F3F4FE417F5070B
:107CF00099F76A0F7B1F70930701609306018091CB
:107D0000C00085FFFCCFF092C6008091C00085FFC7
:107D1000FCCFB092C600E1CE83E00E94C73CDDCE2E
:107D200082E00E94C73CD9CE0E94763C8093090233
:107D30000E94763C80930802809106019091070191
:107D4000880F991F90930701809306010E94763C4B
:107D5000853409F49AC080910C028E7F80930C02C6
:107D60000E94763C803209F0B8CE8091C00085FF39
:107D7000FCCFF092C600A0910802B09109021097C2
:107D8000C1F180910C02082F0170182F1695117007
:107D9000E0910601F0910701AF014F5F5F4FBA011B
:107DA00020E030E00023B1F4112339F49491809164
:107DB000C00085FFFCCF9093C6002F5F3F4FCB01E3
:107DC0000196FA012A173B0780F4BC014F5F5F4F11
:107DD000002351F3F999FECFF2BDE1BDF89A90B5B9
:107DE0008091C00085FFFCCFE6CF709307016093C0
:107DF00006018091C00085FDE5CE8091C00085FF21
:107E0000F8CFE0CE81E00E94C73C67CE0E94763C6E
:107E1000803209F08CCE8091C00085FFFCCFF092BB
:107E2000C6008091C00085FFFCCFE092C600809123
:107E3000C00085FFFCCFD092C6008091C00085FFB6
:107E4000FCCFC092C6008091C00085FFFCCFB092ED
:107E5000C60043CE80E10E94C73C3FCE0E94763CE4
:107E60000E94763C182F0E94763C112309F483C0AF
:107E7000113009F484C08FE00E94C73C2ECE80915F
:107E80000C02816080930C02F1CE80910C02816023
:107E900080930C0265CF809107018823880F880B9F
:107EA0008A2180930B028091060190910701880F2F
:107EB000991F90930701809306018091080280FF2B
:107EC00009C08091080290910902019690930902DD
:107ED00080930802F894F999FECF1127E0910601EA
:107EE000F0910701C8E0D1E0809108029091090269
:107EF000103091F40091570001700130D9F303E084
:107F000000935700E8950091570001700130D9F3B4
:107F100001E100935700E8950990199000915700EE
:107F200001700130D9F301E000935700E8951395F3
:107F3000103498F011270091570001700130D9F3E7
:107F400005E000935700E89500915700017001305B
:107F5000D9F301E100935700E8953296029709F0B2
:107F6000C7CF103011F00296E5CF11248091C000E8
:107F700085FFC5CEC8CE8EE10E94C73CAECD85E957
:0A7F80000E94C73CAACDF894FFCF81
:027F8A00800075
:040000030000780081
:00000001FF