:100000000C9462000C948A000C948A000C948A0070
:100010000C948A000C948A000C948A000C948C0432
:100020000C948A000C948A000C948A000C948A0028
:100030000C948A000C948A000C948A000C948A0018
:100040000C9442040C948A000C9410040C94EA035F
:100050000C948A000C948A000C948A000C948A00F8
:100060000C940B050C948A0000000000240027006B
:100070002A000000000023002600290000000008DC
:10008000000201000003040700000000000000005F
:10009000010204081020408001020408102001021F
:1000A0000408102000000000250028002B00040494
:1000B0000404040404040202020202020303030310
:1000C00003032A0611241FBECFEFD8E0DEBFCDBF49
:1000D00011E0A0E0B1E0EEEEFFE002C005900D926D
:1000E000AC36B107D9F723E0ACE6B1E001C01D9210
:1000F000A330B207E1F710E0C2E6D0E004C02197D8
:10010000FE010E94EF07C136D107C9F70E946306BE
:100110000C94F5070C940000AF92BF92CF92DF923F
:10012000EF92FF920F931F93CF93DF936C017B01AC
:100130008B01040F151FEB015E01AE18BF08C0173D
:10014000D10759F06991D601ED91FC910190F081B0
:10015000E02DC6010995892B79F7C501DF91CF9173
:100160001F910F91FF90EF90DF90CF90BF90AF90D5
:1001700008950895E0910D02F0910E02309729F054
:1001800010920A021092090209940895CF93DF9306
:10019000AC01E0910F02F09110023097F1F09091D4
:1001A0000C0280910B029817C0F090E0292F30E0EC
:1001B0002617370754F4D901A459BE4F240F351F11
:1001C000E90128812C939F5FF1CF10920C0260937C
:1001D0000B02CB01DF91CF910994DF91CF9108956C
:1001E000FC01538D448D252F30E0842F90E0821B3D
:1001F000930B541710F0CF96089501970895FC01C2
:10020000918D828D981761F0A28DAE0FBF2FB11D19
:100210005D968C91928D9F5F9F73928F90E0089571
:100220008FEF9FEF0895FC01918D828D981731F02B
:10023000828DE80FF11D858D90E008958FEF9FEF7F
:100240000895FC01918D228D892F90E0805C9F4F55
:10025000821B91098F73992708958AE592E00E9485
:10026000210121E0892B09F420E0822F089580E00C
:1002700090E0892B29F00E942D0181110C9400003F
:100280000895FC01A48DA80FB92FB11DA35ABF4F2B
:100290002C91848D90E001968F739927848FA68985
:1002A000B7892C93A089B1898C91837080648C93D9
:1002B000938D848D981306C00288F389E02D808188
:1002C0008F7D80830895EF92FF920F931F93CF93BA
:1002D000DF93EC0181E0888F9B8D8C8D98131AC081
:1002E000E889F989808185FF15C09FB7F894EE8968
:1002F000FF896083E889F9898081837080648083C5
:100300009FBF81E090E0DF91CF911F910F91FF900F
:10031000EF900895F62E0B8D10E00F5F1F4F0F73B7
:100320001127E02E8C8D8E110CC00FB607FCFACF72
:10033000E889F989808185FFF5CFCE010E944101CE
:10034000F1CFEB8DEC0FFD2FF11DE35AFF4FF08243
:100350009FB7F8940B8FEA89FB8980818062CFCFA9
:10036000CF93DF93EC01888D8823B9F0AA89BB89EC
:10037000E889F9898C9185FD03C0808186FD0DC0D7
:100380000FB607FCF7CF8C9185FFF2CF808185FFF8
:10039000EDCFCE010E944101E9CFDF91CF910895C9
:1003A000833081F028F4813099F08230A9F00895EB
:1003B0008730A9F08830C9F08430B1F48091800092
:1003C0008F7D03C0809180008F7780938000089597
:1003D00084B58F7784BD089584B58F7DFBCF8091E0
:1003E000B0008F778093B00008958091B0008F7D2A
:1003F000F9CFCF93DF93282F30E0F901E458FF4F76
:100400008491F901E057FF4FD491F901E255FF4F74
:10041000C491CC23A1F081110E94D001EC2FF0E017
:10042000EE0FFF1FEE58FF4FA591B491EC91ED2315
:1004300081E090E009F480E0DF91CF91089580E0C1
:1004400090E0FACF1F93CF93DF93282F30E0F9018C
:10045000E458FF4F8491F901E057FF4FD491F9011F
:10046000E255FF4FC491CC23A9F0162F81110E94B1
:10047000D001EC2FF0E0EE0FFF1FEC55FF4FA591E0
:10048000B4918FB7F894EC91111108C0D095DE2388
:10049000DC938FBFDF91CF911F910895DE2BF8CFB2
:1004A000CF93DF9390E0FC01E057FF4F24918255FA
:1004B0009F4FFC0184918823D1F090E0880F991F11
:1004C000FC01E859FF4FA591B491FC01EC55FF4F99
:1004D000C591D491623071F49FB7F8943C91822F0A
:1004E000809583238C93E8812E2B28839FBFDF91F7
:1004F000CF9108958FB7F894EC912E2B2C938FBF4A
:10050000F6CF2091B201260F3327331F2132310558
:10051000ECF42091D601FC0190E080E0243069F0F9
:1005200082E00895A091B2012191AC014E565E4F38
:10053000A40FB52FB11D2C930196861798F38091C7
:10054000B201680F6093B20180E0089581E00895E0
:100550001092D60181E08093D8011092D70161E01A
:1005600082E10E94220261E083E10E942202E9EB23
:10057000F0E080818E7F808380818D7F808388E41E
:100580008093B80085E48093BC0008950895E091BD
:100590000C0280910B02E81730F4F0E0E459FE4FB2
:1005A000808190E008958FEF9FEF089590910C0265
:1005B00080910B022FEF3FEF981748F4E92FF0E0FE
:1005C000E459FE4F208130E09F5F90930C02C901F7
:1005D000089580910B0290910C02891B990B08954C
:1005E000CF93DF93CB01EA01642F0E948102CE01F9
:1005F000DF91CF910895CF93DF931F92CDB7DEB7F0
:10060000698361E0CE0101960E94810281E090E061
:100610000F90DF91CF91089590E080E00895FC0164
:1006200001900020E9F73197AF01481B590BBC013D
:100630008AE592E00C948C00CF92DF92EF92FF92C9
:100640000F931F93CF93DF93CDB7DEB7A1970FB66C
:10065000F894DEBF0FBECDBF6B01682F70E090E055
:1006600080E019A28E010F5D1F4F0D2C000CEE08CB
:10067000FF08A70196010E94CD07E62FCA01B90124
:10068000EA301CF5E05DD801EE938D01232B242B7D
:10069000252B79F71097D9F0CD010E940F038C011B
:1006A00087E391E00E940F03800F911FA1960FB680
:1006B000F894DEBF0FBECDBFDF91CF911F910F9198
:1006C000FF90EF90DF90CF900895E95CDCCF10E0D1
:1006D00000E0E6CF1F93CF93DF93029701F587EFFA
:1006E00092E00E94D602EC0187EF92E00E94D602CF
:1006F000182F8AE391E00E940F036AE070E08C2FCC
:100700000E941C0386E491E00E940F036AE070E0FF
:10071000812F0E941C03DD27CE5FDE4F1883DF91FF
:10072000CF911F910895CF93DF9385ED8093BC0007
:1007300080918E0190918F01A0919001B0919101D3
:100740000796A11DB11D23E0B695A79597958795AE
:100750002A95D1F72091BC0024FD03C01092D60148
:1007600036C040918E0150918F016091900170913F
:100770009101452B462B472B69F30097A105B10545
:1007800041F025E32A95F1F700000197A109B1098D
:10079000E1CF80918D0191E090938C018823B9F095
:1007A000C091B800D091BA008091BC008A7B809340
:1007B000BC0060E082E10E94220260E083E10E94CE
:1007C00022020E94A802D093BA00C093B800DF9121
:1007D000CF9108951F920F920FB60F9211242F936D
:1007E0003F934F935F936F937F938F939F93AF93B9
:1007F000BF93EF93FF938AE592E00E944101FF913E
:10080000EF91BF91AF919F918F917F916F915F9188
:100810004F913F912F910F900FBE0F901F90189501
:100820001F920F920FB60F9211242F938F939F93C5
:10083000EF93FF93E0916A02F0916B028081E09167
:100840007002F091710282FD1BC090818091730251
:100850008F5F8F7320917402821741F0E0917302D1
:10086000F0E0E65AFD4F958F80937302FF91EF9170
:100870009F918F912F910F900FBE0F901F90189501
:100880008081F4CF1F920F920FB60F9211242F93F5
:100890003F938F939F93AF93BF9380910102909169
:1008A0000202A0910302B09104023091000223E001
:1008B000230F2D3758F50196A11DB11D209300027D
:1008C0008093010290930202A0930302B09304026A
:1008D0008091FC019091FD01A091FE01B091FF017A
:1008E0000196A11DB11D8093FC019093FD01A09381
:1008F000FE01B093FF01BF91AF919F918F913F9106
:100900002F910F900FBE0F901F90189526E8230F80
:100910000296A11DB11DD2CF1F920F920FB60F925A
:1009200011242F933F934F936F937F938F939F93B4
:10093000AF93BF93EF93FF93809101018F5F8093FB
:100940000101811138C0E2E1F2E047818581411166
:1009500003C090859923E9F090E03681232F30E0A1
:10096000BC01621B730B161617064CF4442389F066
:10097000240F311D2817390764F4C9010AC0672BF9
:1009800041F04085442329F0241B31098217930745
:10099000A4F386838681882349F09181A281B38163
:1009A0008481911131C09C91892B8C93399682E07E
:1009B000EA35F80751F6E2E1F2E0808187FD0FC0E9
:1009C00080910101968198130AC0A281B38184812C
:1009D000918191111DC09C91809589238C933996AA
:1009E00082E0EA35F80749F7FF91EF91BF91AF91A7
:1009F0009F918F917F916F914F913F912F910F9088
:100A00000FBE0F901F9018959C9180958923CDCF94
:100A10009C91892BE3CF1F920F920FB60F92112456
:100A20002F933F934F935F936F937F938F939F93F6
:100A3000AF93BF93EF93FF938091B900887F803687
:100A400009F44AC0F0F5883209F4A7C018F58031DE
:100A500009F49BC0B8F4882309F4F9C0883009F47C
:100A600094C0FF91EF91BF91AF919F918F917F9132
:100A70006F915F914F913F912F910F900FBE0F900B
:100A80001F901895883109F488C0803251F78093FF
:100A9000D50114C0803409F49DC040F48033B9F30B
:100AA0008833F9F68093D50185ECB0C0803509F420
:100AB00085C0883509F496C0883499F60E9493035E
:100AC000D0CF883909F48CC038F5883729F050F434
:100AD000883611F0803729F683E08093D601109292
:100AE000D40157C0883809F47BC0803919F08038A8
:100AF00009F0B7CF8091D401803208F071C0E09145
:100B0000D40181E08E0F8093D4018091BB00F0E08E
:100B1000EC54FE4F80833DC0803B39F0E0F4803AD6
:100B200009F479C0883A09F09CCF84E08093D6011B
:100B30001092B3011092B201E0910702F091080205
:100B400009958091B20181110FC081E08093B201BB
:100B50001092920109C0803C09F4A6CF883C09F4A8
:100B6000A3CF883B09F07DCFE091B30181E08E0FE8
:100B70008093B301F0E0EE56FE4F80818093BB007E
:100B80009091B3018091B20129C08091FB018093C3
:100B9000BB0085EC8093BC0064CF9091FA018091FA
:100BA000F901981758F5E091FA0181E08E0F8093D2
:100BB000FA01F0E0E752FE4F8081E9CFE091FA01BF
:100BC00081E08E0F8093FA018091BB00F0E0E75244
:100BD000FE4F80839091FA018091F9019817C8F235
:100BE00085E8D8CFE091FA0181E08E0F8093FA0179
:100BF0008091BB00F0E0E752FE4F80838091D801E6
:100C000081115CCF81E08093D70184EA8093BC009E
:100C10001092D60126CF85EC8093BC001092D601AD
:100C20008091D401803230F4E091D401F0E0EC54B2
:100C3000FE4F10826091D40170E0E0910502F091C6
:100C4000060284EB91E009951092D4010ACF10922C
:100C5000D50134CFEAE5F2E01382128288EE93E008
:100C6000A0E0B0E084839583A683B78327E131E0D9
:100C70003183208325EC30E03587248724EC30E075
:100C80003787268720EC30E0318B208B21EC30E059
:100C9000338B228B22EC30E0358B248B26EC30E03A
:100CA000378B268B118E128E138E148EE7EFF2E0A7
:100CB0001382128284839583A683B78389E291E0AD
:100CC000918380830895789484B5826084BD84B5CF
:100CD000816084BD85B5826085BD85B5816085BD37
:100CE00080916E00816080936E00109281008091EF
:100CF0008100826080938100809181008160809377
:100D00008100809180008160809380008091B1009B
:100D100084608093B1008091B00081608093B000C6
:100D200080917A00846080937A0080917A0082605A
:100D300080937A0080917A00816080937A0080911C
:100D40007A00806880937A001092C10062E08BE0A4
:100D50000E94500262E08CE00E94500262E08DE04E
:100D60000E9450028BE00E94F90121E0892B09F0DA
:100D700020E0C0910001C20F8CE00E94F90122E046
:100D8000892B09F020E0C20F8DE00E94F90124E0D8
:100D9000892B09F020E0C20FC09300018CE58093FD
:100DA000B800C091000110920C0210920B02109238
:100DB0000A02109209020E94A8028AEB90E0909326
:100DC00008028093070286EC90E0909306028093DD
:100DD0000502CC0FC093BA0089EB90E090930E020D
:100DE00080930D028AE693E09093100280930F02A5
:100DF000E0916A02F0916B02C2E0C083E09166026A
:100E0000F09167021082E0916802F091690280E13E
:100E1000808310927202E0916E02F0916F0286E080
:100E20008083E0916C02F0916D028081806180830B
:100E3000E0916C02F0916D02808188608083E09186
:100E40006C02F0916D02808180688083E0916C0279
:100E5000F0916D0280818F7D808384E591E00E9416
:100E60000F0360E170E0809100010E941C0381E0AB
:100E700087BBC093B100C093B00082E88093B300F9
:100E8000C0937000E2E1F2E08FEF80831182138261
:100E9000128217821086399632E0EA35F307A9F7F5
:100EA000109211024AE0C42E41E0D42EDFEF50E050
:100EB000A52E50E0B52E02E011E03BE0E32E31E03C
:100EC000F32EF80141918F01F701C1917F0110923A
:100ED000B200D0930101E2E1F2E02FEF80E09081D7
:100EE000C7FF05C097FF46C02F3F41F406C0C91792
:100EF00009F440C02F3F11F497FD282F8F5F3996DA
:100F0000883069F7C7FD39C02F3F09F436C039E092
:100F10002303D0011124AE5EBD4FCC93509111023A
:100F200011965C9311978C2F0C2E000C990BFC01E1
:100F3000E255FF4FE491F0E0EE0FFF1FEC55FF4F3D
:100F40002591349113963C932E931297FC01E05710
:100F5000FF4FE4911496EC93149715964C9360E030
:100F6000511161E08C2F0E94220261E08C2F0E94BF
:100F7000500203C04583C7FDBDCFC016D10609F09E
:100F8000A0CFA114B10409F496CF0E942D018823AB
:100F900009F491CF0E9400008ECFA1E21A2EAA1B65
:100FA000BB1BFD010DC0AA1FBB1FEE1FFF1FA21719
:100FB000B307E407F50720F0A21BB30BE40BF50B16
:100FC000661F771F881F991F1A9469F7609570959F
:100FD000809590959B01AC01BD01CF010895EE0F66
:0E0FE000FF1F0590F491E02D0994F894FFCFC7
:100FEE0030FFFF00000000000000000F0E0A09088D
:100FFE000706050000000063018C00F000B001211F
:10100E0001FF00130100000000FB02F0020C03C6FA
:10101E0002E902D602C7020D0A005061636B6574C5
:10102E002031203A200020205061636B65742032FD
:10103E00203A20004C697374656E696E67206F6E7E
:0C104E00204164647265737320307800E8
:107800000C94343C0C94513C0C94513C0C94513CE1
:107810000C94513C0C94513C0C94513C0C94513CB4
:107820000C94513C0C94513C0C94513C0C94513CA4
:107830000C94513C0C94513C0C94513C0C94513C94
:107840000C94513C0C94513C0C94513C0C94513C84
:107850000C94513C0C94513C0C94513C0C94513C74
:107860000C94513C0C94513C11241FBECFEFD8E036
:10787000DEBFCDBF11E0A0E0B1E0ECE9FFE702C060
:1078800005900D92A230B107D9F712E0A2E0B1E065
:1078900001C01D92AD30B107E1F70E942D3D0C945F
:1078A000CC3F0C94003C982F959595959595959582
:1078B000905D8F708A307CF0282F295A8091C0000B
:1078C00085FFFCCF9093C6008091C00085FFFCCF60
:1078D0002093C6000895282F205DF0CF982F809127
:1078E000C00085FFFCCF9093C6000895EF92FF92F1
:1078F0000F931F93EE24FF2487018091C00087FD22
:1079000017C00894E11CF11C011D111D81E4E8164B
:1079100082E4F8068FE0080780E0180770F3E09132
:107920000401F091050109958091C00087FFE9CF1E
:107930008091C6001F910F91FF90EF9008950E94D3
:10794000763C982F8091C00085FFFCCF9093C600B5
:1079500091362CF490330CF09053892F089597555D
:10796000892F08951F930E949F3C182F0E949F3CCF
:107970001295107F810F1F9108951F93182F882350
:1079800021F00E94763C1150E1F71F9108951F935A
:10799000182F0E94763C803249F0809103018F5F5E
:1079A000809303018530C1F01F9108958091C0003C
:1079B00085FFFCCF84E18093C6008091C00085FFE5
:1079C000FCCF1093C6008091C00085FFFCCF80E102
:1079D0008093C6001F910895E0910401F091050184
:1079E00009951F9108950E94763C803241F0809164
:1079F00003018F5F80930301853081F008958091AA
:107A0000C00085FFFCCF84E18093C6008091C00058
:107A100085FFFCCF80E18093C6000895E0910401CA
:107A2000F09105010995089540E951E08823A1F0FE
:107A30002D9A28EE33E0FA013197F1F721503040CA
:107A4000D1F72D9828EE33E0FA013197F1F7215064
:107A50003040D1F7815061F708953F924F925F9285
:107A60006F927F928F929F92AF92BF92CF92DF924E
:107A7000EF92FF920F931F93CF93DF93000080E16B
:107A80008093C4001092C50088E18093C10086E015
:107A90008093C2005098589A259A81E00E94143D24
:107AA00024E1F22E9EE1E92E85E9D82E0FE0C02ECA
:107AB00010E1B12EAA24A394B1E49B2EA6E58A2E50
:107AC000F2E57F2EE0E26E2E79E4572E63E5462E36
:107AD00050E5352E0E94763C8033B1F18133B9F107
:107AE000803409F46FC0813409F476C0823409F41B
:107AF00085C0853409F488C0803531F1823521F1A3
:107B0000813511F1853509F485C0863509F48DC0BC
:107B1000843609F496C0843709F403C1853709F423
:107B200072C1863709F466C0809103018F5F80932C
:107B30000301853079F6E0910401F0910501099582
:107B40000E94763C803351F60E94F33CC3CF0E94E2
:107B5000763C803249F78091C00085FFFCCFF092DF
:107B6000C6008091C00085FFFCCF9092C600809136
:107B7000C00085FFFCCF8092C6008091C00085FFC9
:107B8000FCCF7092C6008091C00085FFFCCF609250
:107B9000C6008091C00085FFFCCF5092C600809146
:107BA000C00085FFFCCF4092C6008091C00085FFD9
:107BB000FCCF3092C6008091C00085FFFCCFB09210
:107BC000C60088CF0E94763C863808F4BDCF0E945C
:107BD000763C0E94F33C7ECF0E94763C803809F4CC
:107BE0009CC0813809F40BC1823809F43CC1883942
:107BF00009F48FC080E00E94C73C6CCF84E10E94F2
:107C0000BD3C0E94F33C66CF85E00E94BD3C0E94D3
:107C1000F33C60CF0E94763C809306010E94763C44
:107C2000809307010E94F33C55CF0E94763C80333D
:107C300009F41DC183E00E94BD3C80E00E94C73C66
:107C400049CF0E94763C809309020E94763C809343
:107C5000080280910C028E7F80930C020E94763C79
:107C6000853409F415C18091080290910902892B8D
:107C700089F000E010E00E94763CF801E85FFE4FDA
:107C800080830F5F1F4F80910802909109020817AF
:107C9000190788F30E94763C803209F045CF809125
:107CA0000C0280FF01C16091060170910701660F0F
:107CB000771F7093070160930601A0910802B091AD
:107CC00009021097C9F0E8E0F1E09B01AD014E0F09
:107CD0005F1FF999FECF32BD21BD819180BDFA9A17
:107CE000F99A2F5F3F4FE417F50799F76A0F7B1F4B
:107CF00070930701609306018091C00085FFFCCF5F
:107D0000F092C6008091C00085FFFCCFB092C60003
:107D1000E1CE83E00E94C73CDDCE82E00E94C73CFA
:107D2000D9CE0E94763C809309020E94763C8093D3
:107D300008028091060190910701880F991F909386
:107D40000701809306010E94763C853409F4A6C0A1
:107D500080910C028E7F80930C020E94763C8032D0
:107D600009F0B8CE8091C00085FFFCCFF092C6002C
:107D7000609108027091090261157105B9F140E046
:107D800050E080910C02A82FA170B82FB27011C0E2
:107D9000BB2309F45CC0E0910601F0910701319624
:107DA000F0930701E09306014F5F5F4F46175707B7
:107DB000E8F4AA2369F3F999FECF209106013091E6
:107DC000070132BD21BDF89A90B58091C00085FFB2
:107DD000FCCF9093C6002F5F3F4F30930701209355
:107DE00006014F5F5F4F4617570718F38091C00099
:107DF00085FDE5CE8091C00085FFF8CFE0CE81E023
:107E00000E94C73C67CE0E94763C803209F08CCE3F
:107E10008091C00085FFFCCFF092C6008091C00029
:107E200085FFFCCFE092C6008091C00085FFFCCFAB
:107E3000D092C6008091C00085FFFCCFC092C600E2
:107E40008091C00085FFFCCFB092C60043CEE09188
:107E50000601F091070194918091C00085FFFCCF4D
:107E60009093C6009CCF80E10E94C73C33CE0E9415
:107E7000763C0E94763C182F0E94763C112309F430
:107E800083C0113009F484C08FE00E94C73C22CE29
:107E900080910C02816080930C02E5CE80910C02EF
:107EA000816080930C0259CF809107018823880F4D
:107EB000880B8A2180930B02809106019091070123
:107EC000880F991F90930701809306018091080203
:107ED00080FF09C080910802909109020196909359
:107EE000090280930802F894F999FECF1127E091D6
:107EF0000601F0910701C8E0D1E08091080290915D
:107F00000902103091F40091570001700130D9F34B
:107F100003E000935700E89500915700017001308D
:107F2000D9F301E100935700E89509901990009169
:107F3000570001700130D9F301E000935700E89534
:107F40001395103498F011270091570001700130FB
:107F5000D9F305E000935700E895009157000170B0
:107F60000130D9F301E100935700E895329602976A
:107F700009F0C7CF103011F00296E5CF112480919F
:107F8000C00085FFB9CEBCCE8EE10E94C73CA2CD19
:0C7F900085E90E94C73C9ECDF894FFCF0D
:027F9C00800063
:040000030000780081
:00000001FF