:100000000C9462000C948A000C948A000C948A0070
:100010000C948A000C948A000C948A000C944E056F
:100020000C948A000C948A000C948A000C948A0028
:100030000C948A000C948A000C948A000C948A0018
:100040000C9404050C948A000C94D2040C94AC0417
:100050000C948A000C948A000C948A000C948A00F8
:100060000C94CD050C948A000000000024002700A9
:100070002A000000000023002600290000000008DC
:10008000000201000003040700000000000000005F
:10009000010204081020408001020408102001021F
:1000A0000408102000000000250028002B00040494
:1000B0000404040404040202020202020303030310
:1000C0000303EC0611241FBECFEFD8E0DEBFCDBF87
:1000D00011E0A0E0B1E0E0EAF1E102C005900D928C
:1000E000AA3DB107D9F723E0AAEDB1E001C01D9206
:1000F000A137B207E1F710E0C2E6D0E004C02197D3
:10010000FE010E94C808C136D107C9F70E94250721
:100110000C94CE080C940000AF92BF92CF92DF9265
:10012000EF92FF920F931F93CF93DF936C017B01AC
:100130008B01040F151FEB015E01AE18BF08C0173D
:10014000D10759F06991D601ED91FC910190F081B0
:10015000E02DC6010995892B79F7C501DF91CF9173
:100160001F910F91FF90EF90DF90CF90BF90AF90D5
:100170000895E0917B02F0917C02309729F0109273
:1001800078021092770209940895CF93DF93AC011F
:10019000E0917D02F0917E023097F1F090917A0229
:1001A000809179029817C0F090E0292F30E026174F
:1001B000370754F4D901A652BE4F240F351FE90169
:1001C00028812C939F5FF1CF10927A02609379027D
:1001D000CB01DF91CF910994DF91CF910895FC017C
:1001E000538D448D252F30E0842F90E0821B930B9C
:1001F000541710F0CF96089501970895FC01918D42
:10020000828D981761F0A28DAE0FBF2FB11D5D9644
:100210008C91928D9F5F9F73928F90E008958FEFE6
:100220009FEF0895FC01918D828D981731F0828D9A
:10023000E80FF11D858D90E008958FEF9FEF0895F1
:10024000FC01918D228D892F90E0805C9F4F821B55
:1002500091098F739927089588EC92E00E942001FC
:1002600021E0892B09F420E0822F089580E090E0BE
:10027000892B29F00E942C0181110C940000089513
:10028000FC01A48DA80FB92FB11DA35ABF4F2C910B
:10029000848D90E001968F739927848FA689B78902
:1002A0002C93A089B1898C91837080648C93938DF9
:1002B000848D981306C00288F389E02D80818F7D9C
:1002C00080830895EF92FF920F931F93CF93DF9354
:1002D000EC0181E0888F9B8D8C8D98131AC0E88982
:1002E000F989808185FF15C09FB7F894EE89FF8951
:1002F0006083E889F98980818370806480839FBFEF
:1003000081E090E0DF91CF911F910F91FF90EF90EE
:100310000895F62E0B8D10E00F5F1F4F0F731127FE
:10032000E02E8C8D8E110CC00FB607FCFACFE88939
:10033000F989808185FFF5CFCE010E944001F1CF80
:10034000EB8DEC0FFD2FF11DE35AFF4FF0829FB7AD
:10035000F8940B8FEA89FB8980818062CFCFCF939D
:10036000DF93EC01888D8823B9F0AA89BB89E889DD
:10037000F9898C9185FD03C0808186FD0DC00FB683
:1003800007FCF7CF8C9185FFF2CF808185FFEDCF01
:10039000CE010E944001E9CFDF91CF9108958330D3
:1003A00081F028F4813099F08230A9F008958730E7
:1003B000A9F08830C9F08430B1F4809180008F7D3D
:1003C00003C0809180008F7780938000089584B56A
:1003D0008F7784BD089584B58F7DFBCF8091B00069
:1003E0008F778093B00008958091B0008F7DF9CF12
:1003F000CF93DF93282F30E0F901E458FF4F849129
:10040000F901E057FF4FD491F901E255FF4FC49134
:10041000CC23A1F081110E94CF01EC2FF0E0EE0F70
:10042000FF1FEE58FF4FA591B491EC91ED2381E0B1
:1004300090E009F480E0DF91CF91089580E090E0B2
:10044000FACF1F93CF93DF93282F30E0F901E458C0
:10045000FF4F8491F901E057FF4FD491F901E25524
:10046000FF4FC491CC23A9F0162F81110E94CF0118
:10047000EC2FF0E0EE0FFF1FEC55FF4FA591B4916C
:100480008FB7F894EC91111108C0D095DE23DC935E
:100490008FBFDF91CF911F910895DE2BF8CFCF93BF
:1004A000DF9390E0FC01E057FF4F249182559F4F6E
:1004B000FC0184918823D1F090E0880F991FFC0102
:1004C000E859FF4FA591B491FC01EC55FF4FC59140
:1004D000D491623071F49FB7F8943C91822F80954B
:1004E00083238C93E8812E2B28839FBFDF91CF91AC
:1004F00008958FB7F894EC912E2B2C938FBFF6CFE5
:10050000CF931092B2009FEF90930901E0E8F2E0E0
:10051000AFEF90E0208187FF05C027FF47C0AF3FC6
:1005200041F406C0821709F441C0AF3F11F427FD22
:10053000A92F9F5F3996983069F787FD3AC0AF3F82
:1005400009F437C0C82F89E0A802D0011124A058AF
:10055000BD4FCC9320917F0211962C9311978C2F35
:100560000C2E000C990BFC01E255FF4FE491F0E0DA
:10057000EE0FFF1FEC55FF4F4591549113965C937E
:100580004E931297FC01E057FF4FE4911496EC93C1
:10059000149715966C9360E0211161E08C2F0E94F6
:1005A000210261E08C2FCF910C944F02658387FD6F
:1005B000BCCFCF9108953FB7F89480916F0290918E
:1005C0007002A0917102B091720226B5A89B05C07D
:1005D0002F3F19F00196A11DB11D3FBFBA2FA92FC2
:1005E000982F8827BC01CD01620F711D811D911DBF
:1005F00042E0660F771F881F991F4A95D1F708952B
:1006000020912002260F3327331F21323105ECF4CD
:1006100020914402FC0190E080E0243069F082E007
:100620000895A09120022191AC0140505E4FA40F8B
:10063000B52FB11D2C930196861798F38091200257
:10064000680F6093200280E0089581E00895109281
:10065000440281E0809346021092450261E082E10B
:100660000E94210261E083E10E942102E9EBF0E0B7
:1006700080818E7F808380818D7F808388E48093DA
:10068000B80085E48093BC0008950895E0917A0253
:1006900080917902E81730F4F0E0E652FE4F808155
:1006A00090E008958FEF9FEF089590917A028091E6
:1006B00079022FEF3FEF981748F4E92FF0E0E65268
:1006C000FE4F208130E09F5F90937A02C901089528
:1006D0008091790290917A02891B990B0895CF93AA
:1006E000DF93CB01EA01642F0E940003CE01DF916A
:1006F000CF910895CF93DF931F92CDB7DEB7698373
:1007000061E0CE0101960E94000381E090E00F902D
:10071000DF91CF91089590E080E00895FC01019071
:100720000020E9F73197AF01481B590BBC0188EC59
:1007300092E00C948C008F929F92AF92BF920F9395
:100740001F93CF93DF93CDB7DEB7A1970FB6F89481
:10075000DEBF0FBECDBF19A2423008F44AE08E01C1
:100760000F5D1F4F842E912CB12CA12CA50194015B
:100770000E94A608E62FB901CA01EA30F4F4E05D50
:10078000D801EE938D01232B242B252B79F790E0B4
:1007900080E0109719F0CD010E948E03A1960FB64C
:1007A000F894DEBF0FBECDBFDF91CF911F910F91A7
:1007B000BF90AF909F908F900895E95CE1CF86E362
:1007C00091E00E948E038091790290917A02891BB8
:1007D000990B1816190664F485E693E00E945503F8
:1007E000BC01990F880B990B40E10E949B03EBCF52
:1007F00087E491E00C948E03CF92DF92EF92FF9208
:100800000F931F93CF93DF9300D0CDB7DEB77C015A
:10081000D12CDE141F04F4F585E693E00E94550305
:1008200088389105A9F5C12C0C2D10E00E151F0577
:100830006CF485E693E00E945503E1E0F0E0EC0FF4
:10084000FD1FE00FF11F8083C394EECF1981612F4C
:1008500070E090E080E04AE00E949B030A81602FF4
:1008600070E090E080E04AE00E949B0387E491E022
:100870000E948E03812F90E0602F6095FC01EF5F56
:10088000FE4F6083865F9E4FFC0180810E94800244
:10089000D394BFCF0F900F90DF91CF911F910F9105
:1008A000FF90EF90DF90CF900895CF93DF9385ED89
:1008B0008093BC008091FC019091FD01A091FE010C
:1008C000B091FF010796A11DB11D23E0B695A79534
:1008D000979587952A95D1F72091BC0024FD03C0F8
:1008E0001092440236C04091FC015091FD0160918C
:1008F000FE017091FF01452B462B472B69F30097B2
:10090000A105B10541F025E32A95F1F70000019713
:10091000A109B109E1CF8091FB0191E09093FA0127
:100920008823B9F0C091B800D091BA008091BC0082
:100930008A7B8093BC0060E082E10E94210260E03B
:1009400083E10E9421020E942703D093BA00C09342
:10095000B800DF91CF9108951F920F920FB60F92BA
:1009600011242F933F934F935F936F937F938F93B4
:100970009F93AF93BF93EF93FF9388EC92E00E9415
:100980004001FF91EF91BF91AF919F918F917F9126
:100990006F915F914F913F912F910F900FBE0F90EC
:1009A0001F9018951F920F920FB60F9211242F933C
:1009B0008F939F93EF93FF93E091D802F091D90228
:1009C0008081E091DE02F091DF0282FD1BC0908108
:1009D0008091E1028F5F8F732091E202821741F0D4
:1009E000E091E102F0E0E853FD4F958F8093E10242
:1009F000FF91EF919F918F912F910F900FBE0F90CC
:100A00001F9018958081F4CF1F920F920FB60F920E
:100A100011242F933F938F939F93AF93BF93809114
:100A20006B0290916C02A0916D02B0916E023091B8
:100A30006A0223E0230F2D3758F50196A11DB11D41
:100A400020936A0280936B0290936C02A0936D02D4
:100A5000B0936E0280916F0290917002A09171022A
:100A6000B09172020196A11DB11D80936F02909307
:100A70007002A0937102B0937202BF91AF919F91E7
:100A80008F913F912F910F900FBE0F901F9018954F
:100A900026E8230F0296A11DB11DD2CF1F920F92FF
:100AA0000FB60F9211242F933F934F936F937F9321
:100AB0008F939F93AF93BF93EF93FF93809109011F
:100AC0008F5F80930901811138C0E0E8F2E047812F
:100AD0008581411103C090859923E9F090E036812A
:100AE000232F30E0BC01621B730B161617064CF463
:100AF000442389F0240F311D2817390764F4C901F4
:100B00000AC0672B41F04085442329F0241B31099A
:100B100082179307A4F386838681882349F0918105
:100B2000A281B3818481911131C09C91892B8C93D6
:100B3000399682E0E83CF80751F6E0E8F2E080817F
:100B400087FD0FC080910901968198130AC0A28188
:100B5000B3818481918191111DC09C9180958923DD
:100B60008C93399682E0E83CF80749F7FF91EF91C2
:100B7000BF91AF919F918F917F916F914F913F91D5
:100B80002F910F900FBE0F901F9018959C918095FC
:100B90008923CDCF9C91892BE3CF1F920F920FB663
:100BA0000F9211242F933F934F935F936F937F93F3
:100BB0008F939F93AF93BF93EF93FF938091B9006F
:100BC000887F803609F44AC0F0F5883209F4A7C05E
:100BD00018F5803109F49BC0B8F4882309F4F9C0F2
:100BE000883009F494C0FF91EF91BF91AF919F912C
:100BF0008F917F916F915F914F913F912F910F90C6
:100C00000FBE0F901F901895883109F488C080326C
:100C100051F78093430214C0803409F49DC040F41E
:100C20008033B9F38833F9F68093430285ECB0C082
:100C3000803509F485C0883509F496C0883499F662
:100C40000E945504D0CF883909F48CC038F5883714
:100C500029F050F4883611F0803729F683E080932C
:100C600044021092420257C0883809F47BC0803990
:100C700019F0803809F0B7CF80914202803208F035
:100C800071C0E091420281E08E0F80934202809118
:100C9000BB00F0E0EE5DFD4F80833DC0803B39F04E
:100CA000E0F4803A09F479C0883A09F09CCF84E0F6
:100CB000809344021092210210922002E09175026A
:100CC000F091760209958091200281110FC081E098
:100CD000809320021092000209C0803C09F4A6CF44
:100CE000883C09F4A3CF883B09F07DCFE091210235
:100CF00081E08E0F80932102F0E0E050FE4F808172
:100D00008093BB00909121028091200229C08091A4
:100D100069028093BB0085EC8093BC0064CF909106
:100D2000680280916702981758F5E091680281E0A7
:100D30008E0F80936802F0E0E95BFD4F8081E9CF80
:100D4000E091680281E08E0F809368028091BB0081
:100D5000F0E0E95BFD4F808390916802809167022B
:100D60009817C8F285E8D8CFE091680281E08E0F2D
:100D7000809368028091BB00F0E0E95BFD4F8083C7
:100D80008091460281115CCF81E08093450284EA24
:100D90008093BC001092440226CF85EC8093BC0067
:100DA0001092440280914202803230F4E09142027B
:100DB000F0E0EE5DFD4F10826091420270E0E09144
:100DC0007302F091740282E292E00995109242025D
:100DD0000ACF1092430234CFE8ECF2E01382128281
:100DE00088EE93E0A0E0B0E084839583A683B78388
:100DF00026E131E03183208325EC30E035872487FC
:100E000024EC30E03787268720EC30E0318B208BD4
:100E100021EC30E0338B228B22EC30E0358B248BBD
:100E200026EC30E0378B268B118E128E138E148EAB
:100E3000E5E6F3E01382128284839583A683B78369
:100E400088E291E0918380830895789484B58260EC
:100E500084BD84B5816084BD85B5826085BD85B55E
:100E6000816085BD80916E00816080936E001092DC
:100E70008100809181008260809381008091810057
:100E800081608093810080918000816080938000E8
:100E90008091B10084608093B1008091B000816046
:100EA0008093B00080917A00846080937A00809172
:100EB0007A00826080937A0080917A0081608093CA
:100EC0007A0080917A00806880937A001092C10045
:100ED00062E08BE00E944F0262E08CE00E944F02D1
:100EE00062E08DE00E944F028BE00E94F80121E059
:100EF000892B09F020E0C0910001C20F8CE00E9414
:100F0000F80120E0892B09F422E0C20F8DE00E9455
:100F1000F80120E0892B09F424E0C20FC0930001FE
:100F20008CE58093B800C091000110927A02109273
:100F3000790210927802109277020E94270389EBBF
:100F400090E0909376028093750285EC90E0909308
:100F5000740280937302CC0FC093BA008FED93E0BC
:100F600090937C0280937B028CEF93E090937E02BF
:100F700080937D02E091D802F091D902C2E0C08353
:100F8000E091D402F091D5021082E091D602F09166
:100F9000D70280E180831092E002E091DC02F091C0
:100FA000DD0286E08083E091DA02F091DB0280814D
:100FB00080618083E091DA02F091DB0280818860B9
:100FC0008083E091DA02F091DB0280818068808387
:100FD000E091DA02F091DB0280818F7D80838AE4E8
:100FE00091E00E948E036091000170E090E080E04B
:100FF00040E10E949B0387E491E00E948E0381E020
:1010000087BBC093B100C093B00082E88093B30067
:10101000C0937000E0E8F2E08FEF808311821382CA
:10102000128217821086399622E0E83CF207A9F76F
:1010300010927F020AE011E0C1E0D1E0FF24FA94AF
:10104000F9926FEFF80181918F010E948002F1E027
:10105000C930DF07A9F7EE24EA94F12C20E0C22E74
:1010600020E0D22EC1E0D1E00AE011E0812C912CE9
:10107000540182E691E00E948E034AE0C501B4016A
:101080000E949B038EE691E00E948E03F80161911D
:101090008F0170E090E080E04AE00E949B038CE7C3
:1010A00091E00E948E038991B701681B7109072E98
:1010B000000C880B990B4AE00E949B0387E491E0A7
:1010C0000E948E03FFEF8F1A9F0AAF0ABF0A28E023
:1010D00082169104A104B10461F687E891E00E94B0
:1010E0008E0387E491E00E948E030E94DB022B01B5
:1010F0003C0184EF882E99249394A12CB12C0E945A
:10110000DB026419750986099709683E73408105F9
:101110009105A8F381E0881A9108A108B10898EE1A
:10112000490E93E0591E611C711C81149104A104A5
:10113000B10429F7C114D10409F494CF0E942C0101
:10114000882309F48FCF0E9400008CCFA1E21A2ED1
:10115000AA1BBB1BFD010DC0AA1FBB1FEE1FFF1F5B
:10116000A217B307E407F50720F0A21BB30BE40BAB
:10117000F50B661F771F881F991F1A9469F76095F2
:101180007095809590959B01AC01BD01CF010895AC
:10119000EE0FFF1F0590F491E02D0994F894FFCF16
:1011A00030FFFFFFFFFFFFFFFFFF0F0E0A090807D9
:1011B00006050000000062018C00EF00AF01200175
:1011C000FE001201000000007A036F038B03450349
:1011D000680355034603526571756573742045763F
:1011E000656E74203A20000D0A004C697374656EB8
:1011F000696E67206F6E204164647265737320307E
:1012000078005265676973746572203A2000204D3A
:101210006F746F722050696E203A20002056616C06
:101220007565203A203A003D3D3D3D3D3D3D3D3D0B
:101230003D3D3D3D3D3D3D3D3D3D3D3D3D3D3D3DDE
:101240003D3D3D3D3D3D3D3D3D3D3D3D3D3D3D3DCE
:101250003D3D3D3D3D3D3D3D3D3D3D3D3D3D3D3DBE
:101260003D3D3D3D3D3D3D3D3D3D3D3D3D3D3D3DAE
:0A1270003D3D3D3D3D3D3D3D3D004F
:107800000C94343C0C94513C0C94513C0C94513CE1
:107810000C94513C0C94513C0C94513C0C94513CB4
:107820000C94513C0C94513C0C94513C0C94513CA4
:107830000C94513C0C94513C0C94513C0C94513C94
:107840000C94513C0C94513C0C94513C0C94513C84
:107850000C94513C0C94513C0C94513C0C94513C74
:107860000C94513C0C94513C11241FBECFEFD8E036
:10787000DEBFCDBF11E0A0E0B1E0ECE9FFE702C060
:1078800005900D92A230B107D9F712E0A2E0B1E065
:1078900001C01D92AD30B107E1F70E942D3D0C945F
:1078A000CC3F0C94003C982F959595959595959582
:1078B000905D8F708A307CF0282F295A8091C0000B
:1078C00085FFFCCF9093C6008091C00085FFFCCF60
:1078D0002093C6000895282F205DF0CF982F809127
:1078E000C00085FFFCCF9093C6000895EF92FF92F1
:1078F0000F931F93EE24FF2487018091C00087FD22
:1079000017C00894E11CF11C011D111D81E4E8164B
:1079100082E4F8068FE0080780E0180770F3E09132
:107920000401F091050109958091C00087FFE9CF1E
:107930008091C6001F910F91FF90EF9008950E94D3
:10794000763C982F8091C00085FFFCCF9093C600B5
:1079500091362CF490330CF09053892F089597555D
:10796000892F08951F930E949F3C182F0E949F3CCF
:107970001295107F810F1F9108951F93182F882350
:1079800021F00E94763C1150E1F71F9108951F935A
:10799000182F0E94763C803249F0809103018F5F5E
:1079A000809303018530C1F01F9108958091C0003C
:1079B00085FFFCCF84E18093C6008091C00085FFE5
:1079C000FCCF1093C6008091C00085FFFCCF80E102
:1079D0008093C6001F910895E0910401F091050184
:1079E00009951F9108950E94763C803241F0809164
:1079F00003018F5F80930301853081F008958091AA
:107A0000C00085FFFCCF84E18093C6008091C00058
:107A100085FFFCCF80E18093C6000895E0910401CA
:107A2000F09105010995089540E951E08823A1F0FE
:107A30002D9A28EE33E0FA013197F1F721503040CA
:107A4000D1F72D9828EE33E0FA013197F1F7215064
:107A50003040D1F7815061F708953F924F925F9285
:107A60006F927F928F929F92AF92BF92CF92DF924E
:107A7000EF92FF920F931F93CF93DF93000080E16B
:107A80008093C4001092C50088E18093C10086E015
:107A90008093C2005098589A259A81E00E94143D24
:107AA00024E1F22E9EE1E92E85E9D82E0FE0C02ECA
:107AB00010E1B12EAA24A394B1E49B2EA6E58A2E50
:107AC000F2E57F2EE0E26E2E79E4572E63E5462E36
:107AD00050E5352E0E94763C8033B1F18133B9F107
:107AE000803409F46FC0813409F476C0823409F41B
:107AF00085C0853409F488C0803531F1823521F1A3
:107B0000813511F1853509F485C0863509F48DC0BC
:107B1000843609F496C0843709F403C1853709F423
:107B200072C1863709F466C0809103018F5F80932C
:107B30000301853079F6E0910401F0910501099582
:107B40000E94763C803351F60E94F33CC3CF0E94E2
:107B5000763C803249F78091C00085FFFCCFF092DF
:107B6000C6008091C00085FFFCCF9092C600809136
:107B7000C00085FFFCCF8092C6008091C00085FFC9
:107B8000FCCF7092C6008091C00085FFFCCF609250
:107B9000C6008091C00085FFFCCF5092C600809146
:107BA000C00085FFFCCF4092C6008091C00085FFD9
:107BB000FCCF3092C6008091C00085FFFCCFB09210
:107BC000C60088CF0E94763C863808F4BDCF0E945C
:107BD000763C0E94F33C7ECF0E94763C803809F4CC
:107BE0009CC0813809F40BC1823809F43CC1883942
:107BF00009F48FC080E00E94C73C6CCF84E10E94F2
:107C0000BD3C0E94F33C66CF85E00E94BD3C0E94D3
:107C1000F33C60CF0E94763C809306010E94763C44
:107C2000809307010E94F33C55CF0E94763C80333D
:107C300009F41DC183E00E94BD3C80E00E94C73C66
:107C400049CF0E94763C809309020E94763C809343
:107C5000080280910C028E7F80930C020E94763C79
:107C6000853409F415C18091080290910902892B8D
:107C700089F000E010E00E94763CF801E85FFE4FDA
:107C800080830F5F1F4F80910802909109020817AF
:107C9000190788F30E94763C803209F045CF809125
:107CA0000C0280FF01C16091060170910701660F0F
:107CB000771F7093070160930601A0910802B091AD
:107CC00009021097C9F0E8E0F1E09B01AD014E0F09
:107CD0005F1FF999FECF32BD21BD819180BDFA9A17
:107CE000F99A2F5F3F4FE417F50799F76A0F7B1F4B
:107CF00070930701609306018091C00085FFFCCF5F
:107D0000F092C6008091C00085FFFCCFB092C60003
:107D1000E1CE83E00E94C73CDDCE82E00E94C73CFA
:107D2000D9CE0E94763C809309020E94763C8093D3
:107D300008028091060190910701880F991F909386
:107D40000701809306010E94763C853409F4A6C0A1
:107D500080910C028E7F80930C020E94763C8032D0
:107D600009F0B8CE8091C00085FFFCCFF092C6002C
:107D7000609108027091090261157105B9F140E046
:107D800050E080910C02A82FA170B82FB27011C0E2
:107D9000BB2309F45CC0E0910601F0910701319624
:107DA000F0930701E09306014F5F5F4F46175707B7
:107DB000E8F4AA2369F3F999FECF209106013091E6
:107DC000070132BD21BDF89A90B58091C00085FFB2
:107DD000FCCF9093C6002F5F3F4F30930701209355
:107DE00006014F5F5F4F4617570718F38091C00099
:107DF00085FDE5CE8091C00085FFF8CFE0CE81E023
:107E00000E94C73C67CE0E94763C803209F08CCE3F
:107E10008091C00085FFFCCFF092C6008091C00029
:107E200085FFFCCFE092C6008091C00085FFFCCFAB
:107E3000D092C6008091C00085FFFCCFC092C600E2
:107E40008091C00085FFFCCFB092C60043CEE09188
:107E50000601F091070194918091C00085FFFCCF4D
:107E60009093C6009CCF80E10E94C73C33CE0E9415
:107E7000763C0E94763C182F0E94763C112309F430
:107E800083C0113009F484C08FE00E94C73C22CE29
:107E900080910C02816080930C02E5CE80910C02EF
:107EA000816080930C0259CF809107018823880F4D
:107EB000880B8A2180930B02809106019091070123
:107EC000880F991F90930701809306018091080203
:107ED00080FF09C080910802909109020196909359
:107EE000090280930802F894F999FECF1127E091D6
:107EF0000601F0910701C8E0D1E08091080290915D
:107F00000902103091F40091570001700130D9F34B
:107F100003E000935700E89500915700017001308D
:107F2000D9F301E100935700E89509901990009169
:107F3000570001700130D9F301E000935700E89534
:107F40001395103498F011270091570001700130FB
:107F5000D9F305E000935700E895009157000170B0
:107F60000130D9F301E100935700E895329602976A
:107F700009F0C7CF103011F00296E5CF112480919F
:107F8000C00085FFB9CEBCCE8EE10E94C73CA2CD19
:0C7F900085E90E94C73C9ECDF894FFCF0D
:027F9C00800063
:040000030000780081
:00000001FF